:020000040800F2
:10000000680A002081010008F93700086D330008F4
:1000100000000000000000000000000000000000E0
:10002000000000000000000000000000433800084D
:1000300000000000000000004138000845380008BA
:100040009301000893010008930100089301000840
:10005000930100089301000893010008552000084F
:100060000000000093010008930100080000000058
:1000700093010008930100089301000800000000AC
:10008000930100089301000800000000930100089C
:10009000000000009301000893010008930100088C
:1000A000000000009301000800000000F93A000879
:1000B00093010008000000000000000000000000A4
:1000C00000F002F800F030F80CA030C8083824180E
:1000D0002D18A246671EAB4654465D46AC4201D180
:1000E00000F022F87E460F3E0FCCB6460126334282
:1000F00000D0FB1AA246AB46334318470455000014
:10010000245500000023002400250026103A01D3C6
:1001100078C1FBD8520700D330C100D50B607047BF
:100120001FB51FBD10B510BD00F012FE1146FFF740
:10013000F7FF00F099FE00F02AFE03B4FFF7F2FF8C
:1001400003BC00F05FFE000070B505460C46164685
:1001500002E00FCC0FC5103E102EFAD2082E02D3AB
:1001600003CC03C5083E042E07D301CC01C5361FBE
:1001700003E021782970641C6D1C761EF9D270BDD5
:100180000748804707480047FEE7FEE7FEE7FEE72F
:10019000FEE7FEE704480549034A054B70470000A7
:1001A0004D380008C100000868060020680A0020D9
:1001B00068060020034610B50B439B070FD1042AA5
:1001C0000DD308C810C9121FA342F8D018BA21BA1B
:1001D000884201D9012010BD0020C04310BD002A73
:1001E00003D0D30703D0521C07E0002010BD0378D2
:1001F0000C78401C491C1B1B07D103780C78401C51
:10020000491C1B1B01D1921EF1D1184610BD01E003
:1002100004C0091F0429FBD28B0701D50280801C72
:10022000C90700D00270704700290BD0C30702D065
:100230000270401C491E022904D3830702D50280A4
:10024000801C891EE3E70022EEE70022DFE70022A0
:1002500003098B422CD3030A8B4211D300239C4603
:100260004EE003460B433CD4002243088B4231D37B
:1002700003098B421CD3030A8B4201D394463FE00F
:10028000C3098B4201D3CB01C01A524183098B426F
:1002900001D38B01C01A524143098B4201D34B0158
:1002A000C01A524103098B4201D30B01C01A5241BB
:1002B000C3088B4201D3CB00C01A524183088B4242
:1002C00001D38B00C01A524143088B4201D34B002B
:1002D000C01A5241411A00D201465241104670479D
:1002E0005DE0CA0F00D04942031000D340425340A2
:1002F00000229C4603098B422DD3030A8B4212D362
:10030000FC22890112BA030A8B420CD38901921193
:100310008B4208D3890192118B4204D389013AD0D0
:10032000921100E08909C3098B4201D3CB01C01AA5
:10033000524183098B4201D38B01C01A52414309B8
:100340008B4201D34B01C01A524103098B4201D3A6
:100350000B01C01A5241C3088B4201D3CB00C01A13
:10036000524183088B4201D38B00C01A5241D9D22B
:1003700043088B4201D34B00C01A5241411A00D2AC
:100380000146634652415B10104601D34042002BA8
:1003900000D54942704763465B1000D3404201B527
:1003A0000020C046C04602BD70477047704700003D
:1003B0000246C80FC00781434B0030B54B405B007D
:1003C0009B0D20D01923DB06C91801231B05994278
:1003D00020DB0324A40704251346AB400BD3002BDA
:1003E00004D1EB0613409B00E34204D401246407CC
:1003F000002312195941FF231B0599420BD2C90052
:100400000143500F09E0CB0204D501430803024326
:1004100005D0054830BDFF21C905084330BD084659
:1004200007210905884330BD0000C07FF0B50C46A8
:10043000871A9C410D46861A9D4103D2C01BA141DB
:10044000D21963410D0D1F0DC94EEC1BAE435CD09C
:100450007F057F0D0026002F51D02D05AC46A94306
:10046000DD020123ED0A1B051D4320231B1B24D4A1
:100470001746E740381871412F46E740CC199D4098
:100480002818314661410C0D27D161449A4013D59B
:100490000023401C594152000ED140084000012267
:1004A0004B005205D34207D305204007C14201D576
:1004B000B04900E0B0493046F0BD6B00002A00D0E2
:1004C00001229A181F23203C1B1B01D5002302E0A8
:1004D000E540281871410C0DD7D0012424050919D5
:1004E000C407CD0740084908E40F28436144002CA5
:1004F000D5D00024401C61419A40D0D1CDE76A0597
:10050000520DD9D1C90FC907D5E79C4D4E0000281F
:1005100001D0012400E0002434195F00002A01D03A
:10052000012600E00026BE19954FAC420CD8AE4221
:100530000AD8B44206D001256D05EC42BCD0104665
:100540001946F0BD9942FCD000203946F0BDF0B507
:100550001FB40C460F46811A9F412546861A9D41BD
:1005600006D20125ED076F40401ABC4152187B416D
:10057000210D1E0D8D1BAC467D4D8D437ED0750526
:100580006D0D7CD00D05AE46AC431B031B0B794DA6
:1005900052429D41202366469B1B14D31746F740C9
:1005A000381800260090744160462F460741E41930
:1005B00000989D402818664116D4714671189A40DB
:1005C00025D5012320E093182A466A415200002BCA
:1005D00000D0521C1E23203E9B1B002B61DD3541A9
:1005E000EE1728186641E8D5001876415B1C9A4042
:1005F00000D3401C4B05F3181524E34010D3002B07
:1006000052D071467118D30FC01802D3491C05B0DF
:10061000F0BD0123DB079A42F9D140084000F6E71C
:1006200001225205B21801D1002853D00123CC0A6F
:10063000DB029943891E002A08D1020C03D0020C68
:100640000004103902E00246002020390023550B37
:1006500005D112020823550B01D152010D23550C6F
:1006600001D112011B1DD50C01D192009B1C150D4F
:1006700001D152005B1C2025EE1A01E02CE022E0A3
:100680000546F54015439840CA1AE1076918130555
:10069000C918002ABBDA032040070818C10FC90790
:1006A0000FE071466118B2E7F10740080843711086
:1006B00071444A000CD001235B059A42A7D2C90FAE
:1006C000C9070020A3E74905490D26D1002001E014
:1006D0000028F4D100219AE7284D6600002801D0B7
:1006E000012100E0002171185F00002A01D00126DD
:1006F00000E00026BE19224FA94210D8AE420ED803
:10070000B14208D001256D05E94206D01946A8027C
:10071000414010467BE79C4201D0214677E700200C
:10072000394674E710B50C465C4005D50124E40752
:100730006340FFF70CFF10BDFFF778FE10BD30B42B
:100740000C465C4004D50124E407634030BC6DE6F0
:1007500030BCFCE670B50124E40761400D465D4005
:1007600002D4FFF763FE70BD6340FFF7F0FE70BD7B
:10077000FF0700000000F0FF0000F07F0000E0FF36
:100780000000F87F1F22030C02D10F22000402D0C8
:10079000030E03D004E00020014670470002083A2F
:1007A000030F01D10001121F830F01D18000921E9F
:1007B000002801DB4000521E120551184205C012EC
:1007C000411810467047C10FC90700D040420122AE
:1007D00092071143D6E701218907D3E7F0B58B4C87
:1007E0000F09254689B0BD437BD01D092646AE437F
:1007F000FAD00E465E402740F60F3E43254071D0AA
:1008000024012142FBD0FF24AD19A4042D1B039524
:1008100001252D05DB02DB0AC9022B43C90A294346
:100820001E010901040F130F050121431701880B55
:10083000820391432D098C46A90B1E438A039543DD
:10084000B30B9A0396433F09BA0B9403A74302964E
:100850002E467E430497B6464E19D7190C4601968C
:10086000544305977E43371B7646BF1B3601B64679
:10087000BE0B361900967646BC043719009C01D38E
:10088000641C00946400002F01D001263443029EB2
:10089000049F754366467E430496760034196E00C5
:1008A00034190094029C019E1C196643751BAE46C8
:1008B000069465464519059C05956C435943754654
:1008C0000891691A0191049E01465143A41B0491A9
:1008D000611A009C0791E10605D0610901221143CC
:1008E00002E072E06EE06109089D00272C0A2D06E7
:1008F0006918049D7C412A0A2D066918019D6241F0
:10090000AC0DAD026D185441079A910D9202551924
:100910006141029A644658435443069B059A5A43E0
:10092000121A131B9A0E9B015B187A41010B0005EA
:10093000C3185141220A200644195A419A4200D252
:10094000491C01204002814203D315230226F643AD
:1009500002E014230326F6432020C51AA9401746B7
:10096000AF40DA400A4320460399D840091473186F
:1009700019055118039A3843D2075140AC4009D0A9
:100980000122944006D30022401C5141002C01D189
:10099000400840001E4A934212D301220398920657
:1009A000904207DB0520400709181A480143C0128E
:1009B000414004E0032040070818C10FC907002088
:1009C00009B0F0BD0020F107FAE705180C464C41CC
:1009D00011486D42A04115D394181A465A410E4849
:1009E000644290410ED301204A004005824209D35F
:1009F0005A00824206D35940C90F084AC90700204D
:100A00001143DDE700200649DAE700000000FF0798
:100A1000FE070000FFFFFF7F0000E0FF0000F07F07
:100A20000000F87F0121C9050123411842001B067F
:100A3000D3185B0E0AD0C1100722D20689184007CE
:100A40005242D14201D5520089187047090208D597
:100A50000146002A03D0C10FC90700207047104685
:100A60007047420202D00020024970470721090561
:100A70000143F4E70000F87FF0B5FF252D04C60917
:100A8000C209FF2704462E400137CB093E434840A8
:100A90002A402B400746002A6BD0002B69D0AA427F
:100AA00067D0AB4265D0002800DA32460125ED055B
:100AB00029432C4309022002090AD21A4B0C7F2435
:100AC000E31A434C000A7C44E35C7D24240412199D
:100AD00014145B00A218884201D3521C00E04000AD
:100AE00049420C465C4324115C43DB016415E31866
:100AF000040A5C43C502200D0C4644436419250AD0
:100B00005D432303EC0C0D46654300030019EB180D
:100B10004C42A34201D35B18401CD4052018002B83
:100B200007D05B00C91804D3401C002901D140083C
:100B300040003F2189048A4209D3002A08DC1106BB
:100B4000090F04D0032149074018C00FC007F0BDAA
:100B500001224100120689187F2252069142F6D2E4
:100B600005214907C84201D59010F0BDFF20C005FE
:100B7000F0BD002F00DA32461648AA4207D2AB4237
:100B800005D21902090E17D0F80FC007F0BDFF25D6
:100B900063002D06AB42F9D84900A942F6D8AB4212
:100BA00001D1A942F2D0A94201D1002101E06100A6
:100BB0004908D0050843F0BD1102090EFBD0FF2003
:100BC0000243D005F0BD0A460146104654E7000036
:100BD000F64A00000000C07F0102C21504D00123C4
:100BE000DB071943002A0ADB9E239A1A02D408461F
:100BF000D0407047FF2241001206914201D90020E7
:100C00007047C017C04370471F22030C02D10F2248
:100C100000041CD0030E01D10002083A030F01D1D9
:100C20000001121F830F01D18000921E002801DBFA
:100C30004000521ED205511802125118192290403C
:100C400004D3491C002801D14908490008467047CF
:100C5000C10FC90700D04042012292071143D3E7D8
:100C600001218907D0E7000010B5FF22C30D134012
:100C700009D05A4007D0914205DA5C42A14202DD18
:100C8000C905081810BDC40FE407002B06D0002AC0
:100C900006D0002902DBFF20C0050443204610BD1A
:100CA0004102FCD0004810BD0000C07F10B5FF23FA
:100CB0001B0644009C421DD84C009C421AD8034697
:100CC000124A0B4307D4401A02D3EFF3008010BD41
:100CD000EFF3008010BD081A06D2EFF30080012167
:100CE0009043C907084302E0EFF30080904380F38C
:100CF000008810BD0D231B041A4204D011460020A9
:100D000000F006F810BD00F01BF810BD00000090C8
:100D1000C80212D54803400F002804D0C803C043BE
:100D2000012188407047EFF3008000010009032192
:100D30000907084380F300887047002070470000CF
:100D400010B5024800F02BF810BD00000000C07F75
:100D5000754600F053F8AE46050069465346C00894
:100D6000C000854618B020B5FFF714FA60BC002714
:100D70004908B6460026C0C5C0C5C0C5C0C5C0C567
:100D8000C0C5C0C5C0C5403D49008D46704710B5BF
:100D90000446C046C0462046FFF7CFF910BD10B547
:100DA0000C461107090F092904D00A290AD008297D
:100DB0000CD104E011460820FFF7AAFF06E0510617
:100DC00006D501E0510601D50120C007214610BD1E
:100DD000D10607D501010909CC084907000E000614
:100DE000044309E0410F20024907000A0143200E95
:100DF00000061D22D14101430846E7E7004870473D
:100E00000806002001491820ABBEFEE726000200BC
:100E1000704770B58C180578401C6B075B0F01D1CB
:100E20000378401C2A1106D10278401C03E00678A2
:100E3000401C0E70491C5B1EF9D12B0705D4002302
:100E4000521E0DD40B70491CFAE70378401CCB1AD4
:100E5000921C03E01D780D70491C5B1C521EF9D5D5
:100E6000A142D8D3002070BD10B50122D2060020C7
:100E7000074B810054585C50401CC0B23028F8D356
:100E8000012004494007886003F03AFF002010BDAC
:100E90000000002000ED00E008B50021009101688D
:100EA0008A68D243D2071ED08A68104B1A400123A9
:100EB000002A08D0816B102211438163C16B194352
:100EC000C163012008BD8868184388600948084943
:100ED0000068FFF7BCF9009002E00098401E009007
:100EE00000980028F9D1002008BD000015000080FE
:100EF00040420F0014030020F0B5002314E09A00D4
:100F00008458944627461E465A1C06E095004559CB
:100F1000A54201DA2C461646521C8A42F6DBB20084
:100F20008750624684505B1C8B42E8DBF0BD0000BA
:100F300070B500F0EFFF0121002002F057FB012106
:100F4000084602F053FB0121022002F04FFB012171
:100F5000032002F04BFB0021062002F047FB00219A
:100F6000052002F043FB002002F0F0FB264CE51FB9
:100F7000FD3D264801F0C4FEE079030002F0D0FDFB
:100F80000822050A0F22221E142201210F2002F03E
:100F90007DFB17E00121022002F078FB12E0012125
:100FA000002002F073FB0DE00121032002F06EFB34
:100FB00000F0F2F9E079002824D003E0012108468E
:100FC00002F064FB00F022FD2878002806D1002200
:100FD0001146102000F0EAFB01202870FF26F536AC
:100FE000304601F033FC0021084602F04FFB00F0D0
:100FF0000DFD304601F02AFC00221146102000F0C1
:10100000D5FBB6E770BD00001C0400204805002099
:1010100001B582B0012301AA02A9024803F000FE33
:1010200001980EBD2001002070B5104CA568204627
:101030008038006E0E49FFF71FFD06460D48294611
:1010400080680546FFF718FD314604F077F9294618
:1010500004F074F9084904F071F9E179002901D02C
:10106000002070BD002100F035F870BD1C04002088
:1010700000401C461401002048E17A3FF1B5144CB1
:10108000E168606804F0EAF805462846216904F042
:10109000E5F801462846FFF7EFFC06466061276841
:1010A0000098394604F0DAF9314604F047F9394638
:1010B00004F0D4F8074620607F203146C00504F0D4
:1010C000CDF9294604F03AF960603846F8BD0000D1
:1010D00064010020F3B581B0164C1549E160164E4D
:1010E0002661606804F0BAF805463146284604F0E7
:1010F000B5F801462846FFF7BFFC06466061276841
:101100000198394604F0AAF9314604F017F9394636
:1011100004F0A4F8074620607F203146C00504F0A3
:101120009DF9294604F00AF960603846FEBD0000CA
:10113000CDCC4C3E7C0100200000404070B5FFF754
:101140008FFD06460D4904F0F9F80446304603F0D9
:1011500061FE0B4904F0F2F80546304603F05FFEED
:10116000084904F0EBF8294604F078F8214604F029
:1011700075F8054904F072F870BD0000D26F1FBE0B
:10118000B67A7338E46A0FB2CD4C544370B5104848
:10119000C56CC06E0F49884203DD3F2424062146FA
:1011A00001E00D4C0D4904F0C9F8064621462846D9
:1011B00004F0C4F8314604F051F80446084D2C619F
:1011C00008492046FFF758FCE860204670BD000043
:1011D0001C03002000004843CDCC4C3FCDCC4C3EFE
:1011E0001C0400200000C04110B50E48C17905293B
:1011F00002D00021C18410BDC18C3D2901D2491CFF
:10120000C184C08C3C28F6D106488038006A00288A
:10121000F1D0002000F098FA002211460F2000F0D3
:10122000C5FA10BD1C040020FEB500F051F80446BC
:10123000254E264FF0793546803D04281BD02846A0
:101240008038006F0190E868FFF70AFD00900121E7
:101250008907009804F002F8019904F045F808D3D2
:1012600001218907009804F0F9F8019904F0BEF80B
:1012700001D20020B8607868002800D17C607868CE
:10128000C11FFF39FA398C4218D3FF30FF300230CA
:10129000844213D8696A7D20C0004143B868814206
:1012A00002D9FF30F530B860686A7D21C900484333
:1012B000B968884201D80420F071FEBD0020B860F2
:1012C000F0717C60FEBD00001C04002008030020BB
:1012D00010B5072000F064F90149486210BD000014
:1012E0001C03002070B50A4D68682C468034E16804
:1012F00088420CD0074E3078401CC0B230700328B2
:1013000005D900F0BFFCE06868600020307070BD57
:101310001C030020AC010020F8B505461A481B4C00
:10132000854205DD25607F20C00560602846F8BD48
:101330001749E160174F2761606803F08FFF064689
:101340003946304603F08AFF01463046FFF794FBEA
:1013500007466061206800900146284604F07EF848
:10136000394603F0EBFF009903F078FF0546206053
:101370007F203946C00504F071F8314603F0DEFFE6
:1013800060602846F8BD00000000164438010020C7
:101390000000484200004843FEB500250095019535
:1013A0000295002402F0E6FE002855D0732804D0F0
:1013B000D22806D0F5280BD107E00098401C0090F9
:1013C00006E00198401C019002E00298401C029047
:1013D000641C0A2CE6DB0321684603F065FC4D4ED5
:1013E000012804D0022805D0032808D105E0732085
:1013F000F07004E0D220F07001E0F520F07000F011
:1014000089FDF17805242407732926D0D22924D018
:1014100001222021204601F03AFC02F03DFE00228C
:101420008021204601F033FC00222021204601F0DB
:101430002EFC384C203CE571E01FF938C06AFFF7FC
:10144000CBFBFF21373188420DD90220E071002209
:1014500011460F2000F0AAF9FEBD0122802120468E
:1014600001F015FCD9E7782802D20720E071FEBD13
:101470002848F1780F221423A03873291ED0D229CE
:1014800032D0F529F3D12449C1633F210906016413
:10149000224941642249816505652249C1667D2151
:1014A000090101672D21416723218167C1671E481A
:1014B000A0601E48606100F007FDFEBD1C49C163CD
:1014C0001C49016445641C49816505656421C16648
:1014D0009621016743678267C3671848A060184870
:1014E000606100F0CDFCFEBD1649C1631649016480
:1014F0004564164981650565C821C1660167436772
:101500008267C2671248A0601248606100F0B8FCB0
:10151000FEBD00003C0400200000B4420000204159
:1015200000803B456C0700009A99F940000010418B
:101530000000F040CDCCCC3D00803B4433334340F1
:1015400000009040000070419A99193E00A00C459F
:10155000666606400000C04010B5FFF781FB0249F7
:1015600003F0ECFE10BD0000510AA53D10B50520AA
:1015700001220821000701F08AFB00F017FA074C4E
:1015800001220221204601F082FB01221146204661
:1015900001F07DFB00F00AFA10BD000000140050BD
:1015A00010B513490A68824212D00860114A00211E
:1015B0009162114992144A60086008460C3000F0AC
:1015C000C1FE002804D00D480121C171FFF7B0FC15
:1015D00009480C3001F0AAF807480A210C3001F044
:1015E00045F805480C3000F039FF80B210BD00000E
:1015F000C000002000240140440400201C040020FE
:10160000F8B51F490A6B0120000502430A630A6B03
:1016100082430A631A4940310A6802430A60096832
:1016200001400091184C174F2760204600F062FEE1
:10163000164D0126002802D0EE71FFF779FC2760D5
:101640000320000760600020A060E06026610421A4
:10165000616126766076A076FF21C231E161206269
:10166000094920310871A0620620E062064800F0B6
:10167000F9FE002802D0EE71FFF75AFCF8BD000019
:101680000010024000240140500400201C040020EF
:1016900000B585B0972000900020029003200190B3
:1016A00005206946000701F061FA05B000BD0000A1
:1016B00010B50421044801F0E3FA002801D000200D
:1016C00010BD012010BD00000014005000B587B00F
:1016D0000A48426B20210A434263406B0840019054
:1016E0000420029001200490032005900020039024
:1016F00002A9034801F03AFA07B000BD0010024009
:101700000014005010B586B00D48426B02210A4308
:101710004263406B0840009020200190012002901D
:10172000002003900491074C01A9204601F01EFA05
:1017300001222021204601F0AAFA06B010BD0000C7
:10174000001002400004005010B5074B002805D0DF
:1017500001222021184601F09AFA10BD0022202112
:10176000184601F094FA10BD0004005010B586B080
:101770000D48426B01210A434263406B08400090D0
:101780004020019002910020039002200490052443
:10179000240701A9204601F0E9F900224021204652
:1017A00001F075FA06B010BD00100240F8B50F4602
:1017B0003A4D696900291ED02C468034617F00298A
:1017C00019D1374E002A0CD0030002F0A9F91114E8
:1017D00015191D215A5E6214141414141456252967
:1017E00014000F2803D0102003F008FD02E00F20A2
:1017F00003F004FDE683F8BD012003F0FFFCF8BD13
:10180000022003F0FBFCF8BD032003F0F7FCF8BD59
:10181000042003F0F3FCF8BD0F2003F0EFFCF8BD4B
:10182000102003F0EBFC002F08D0E868FF2200B284
:10183000C332642103F04EFAE083F8BD207900281A
:1018400009D005202056030002F06AF90604070AB1
:101850000D101404F1E7E683F8BD1248E083F8BDEB
:101860001148E083F8BD1148E083F8BD0F489D3072
:10187000E083F8BD0E48E083F8BD0E2003F0BEFC07
:10188000F8BD052003F0BAFCF8BD062003F0B6FC55
:10189000F8BD072003F0B2FCF8BD00009C03002057
:1018A0006E0F00002C0800002C0900004C0A0000FC
:1018B0003F0C000030B587B01948416B0123194334
:1018C0004163416B19400191426B20210A434263FD
:1018D000406B084001900820029003930020049080
:1018E000022005900524240702A9204601F03EF9B4
:1018F000032102910B4D02A9284601F037F901227C
:101900001146284601F0C3F901220221284601F0C0
:10191000BEF901220821204601F0B9F907B030BD17
:10192000001002400014005010B5064800F00CF8FA
:101930000448503000F008F80248401D00F004F858
:1019400010BD00000208000070B50446052000220A
:101950000821000701F09BF900F028F80025124E3D
:1019600000220221304601F092F9200505D501221E
:101970001146304601F08BF904E000220121304687
:1019800001F085F900F012F801220221304601F041
:101990007EF900F00BF864006D1CEDB20C2DDFD366
:1019A000FFF7E4FD70BD000000140050002000BFF0
:1019B000401CC0B20A28FAD37047000070B5044634
:1019C0000025114E00220221304601F060F9E005A9
:1019D00005D501221146304601F059F904E00022F4
:1019E0000121304601F053F9FFF7E0FF0122022107
:1019F000304601F04CF9FFF7D9FF64006D1CEDB2E1
:101A0000092DDFD370BD00000014005010B5052073
:101A100000220821000701F03AF9FFF7C7FFFF2075
:101A20004A30FFF7CBFF00F003F8FFF79FFD10BD32
:101A3000F8B50026144F1548855D002400220221C8
:101A4000384601F024F9E80705D00122114638464E
:101A500001F01DF904E000220121384601F017F9D8
:101A6000FFF7A4FF01220221384601F010F9FFF729
:101A70009DFF6D08641CE4B2042CDFD3761CF6B223
:101A80000E2ED8D3F8BD00000014005038050020F9
:101A900010B586B01248426B01210A434263406B85
:101AA0000840009080200190039100200490029053
:101AB0000C4C01A9204601F059F80B490291402134
:101AC000019101A9204601F051F8072001F058F9D1
:101AD00000221146072001F05DF906B010BD00009C
:101AE000001002400004005000002110F8B5064626
:101AF0000024064D01273059401C02D0EF71FFF73A
:101B000017FA241D282CF6D3F8BD00001C04002071
:101B100010B586B004460021059114216846FEF7F1
:101B200094FB0221009101940124029405A96846C6
:101B300000F09EFE002803D00248C471FFF7F8F9B8
:101B400006B010BD1C040020F0B5A3B022901648CA
:101B50002190282658202830209000246D461FE030
:101B6000002021990A19431E81000F19B74202D2A1
:101B700057586F5000E06B50401C2028F4D3229837
:101B80006A460119012000F057FF002807D00648D7
:101B900001217830C171FFF7CBF923B0F0BD80345B
:101BA00020988442DCD3F8E7A403002070B50646F1
:101BB0000024084D3046FFF7C7FF2822294630464B
:101BC000FEF7F8FA002803D0641CE4B2022CF1D32B
:101BD00070BD0000A40300202849274A8A6042689B
:101BE000CA60CA680B46803B5A60C2684A61826814
:101BF0000A6102698A614269CA6182690A62C269CC
:101C00004A62426ACA62006A8862C868FF222D324C
:101C1000642804D3C868FF23C333984200D9CA603C
:101C200008693223D84202DB0869322801DD00202E
:101C30000861486A124B984202D8486A3C2801D28F
:101C40003C204862C869042801D90120C86188691C
:101C5000002809D0C869012807D0022807D0032826
:101C600002D1FF209130C8607047CA607047FF20E2
:101C70005F30C86070470000ACACACAC9C03002087
:101C8000E703000010B50748C16A491CC162064855
:101C900000F010F8054800F00DF8054800F00AF8CB
:101CA00010BD00009C03002000F0000800F80008B0
:101CB00000FF000870B50546EFF3108472B60948BE
:101CC00001F01EF800F03EFF2846FFF721FF2846EE
:101CD000FFF70CFF2846FFF769FF00F09FFE84F333
:101CE000108870BD4805002010B5EFF3108472B65F
:101CF000034801F005F800F005F884F3108810BDE2
:101D00004805002070B51B4C1B4B206B01689942A5
:101D100007D1616B0A689A4203D1A26B15689D4294
:101D200011D0A360FF202D30E0600121616100200F
:101D30002061A061E16120623C216162A062E062F9
:101D4000FFF7A0FF70BD526A496A406A02F010FDB9
:101D5000002807D0012809D00228F3D1A06BFFF793
:101D60003BFF70BD206BFFF737FF70BD606BFFF767
:101D700033FF70BD9C030020ACACACAC10B50B487D
:101D8000016A0124214301620A48094901600321D3
:101D90004160FF210901816000F086FF002803D027
:101DA0000548C471FFF7C4F810BD000040100240A0
:101DB00000300040480500201C04002010B5002021
:101DC000224AFF211154401CC0B20E28FAD3204CE5
:101DD000A06900281FD0E069012804D002280AD099
:101DE00003281CD10FE0FF202D30E060E06880B2B6
:101DF00001F0ACFC13E0FF205F30E060E06880B2EF
:101E000001F0A4FC0BE0FF209130E060E06880B2BC
:101E100001F09CFC03E0E06880B201F097FC012136
:101E2000002001F087FC0A48012180304171002127
:101E3000042001F0DBFBA06A002803D0002106206B
:101E400001F0D4FBFFF7E2FD10BD000038050020D3
:101E50009C03002010B500F0B7F800F0DFF8042173
:101E6000054801F045FA002804D004480121C17159
:101E7000FFF75EF810BD0000DC0400201C04002009
:101E800030B587B00E48416B012529434163406B53
:101E900028400190802002900220039000210491AC
:101EA00005900695052002A9000700F05FFE054C8D
:101EB0002078002802D1FFF7CDFF257007B030BD94
:101EC000001002403C04002030B587B00F48416B41
:101ED000012529434163406B284001902020029056
:101EE000022003900021049105900D20069005200A
:101EF00002A9000700F03AFE054C2078002802D124
:101F0000FFF7A8FF257007B030BD000000100240A9
:101F10003C04002010B586B00D48426B01210A43F5
:101F20004263406B08400090202001900291002005
:101F30000390022004900524240701A9204600F004
:101F400015FE00222021204600F0A1FE06B010BDA3
:101F500000100240014988637047000000040040FF
:101F600070B58CB005461C2105A8FEF76EF900245B
:101F700001940294039404940B200590FF200130F7
:101F8000089009940A9506940C20079001260B9658
:101F900005A800F0E5FF0B4D002802D0EE71FEF71A
:101FA000C7FF07200190029403940494002101A824
:101FB00000F0F4FE002802D0EE71FEF7B9FF0CB07D
:101FC00070BD00001C04002008B50F48C26B022140
:101FD0000A43C263C06B084000900D480B49016082
:101FE0000C49C160052141600021016181604161AE
:101FF000816101F0F1F8002804D007480121C17186
:10200000FEF796FF08BD00000010024000040040EB
:10201000DC040020102700001C04002010B50B4831
:1020200060210160002181600161C16081614161C5
:10203000416001460422403801F0EAF8002804D04B
:1020400003480121C171FEF773FF10BD1C0500207C
:102050001C040020F8B5194E3068194D6968401A03
:10206000642803D217494020C860F8BD164C0120EF
:1020700020708021154800F003FE074640211348D8
:1020800000F0FEFD874201D1012000E0002032680F
:102090006968521A642A00D928702A78904205D0BB
:1020A0003368591A642901D8627001E060702870A1
:1020B0003068686003494020C860F8BDD400002043
:1020C000C4000020001802401C040020000400503E
:1020D000F8B5194C194F6278510078520521501CFF
:1020E000FEF7B5F861700E46002500243019052171
:1020F000FEF7ADF84800385AFEF7B2FD0E49A200CF
:102100003C31895803F01AF9294603F0A7F805462F
:10211000641CE4B2052CE9D3FF20C005C54201D3FD
:102120000020F8BD0648854201DD0648F8BD284676
:10213000FEF752FD80B2F8BD14010020A00500207A
:1021400000F07F45FF0F000005490020486005486A
:1021500041690422114341610348C1060860704788
:10216000540500200020024021433412054A00217A
:10217000516005494A6902231A434A61FF210160FF
:1021800070470000540500200020024070B5002276
:102190000C4C636901252B436361EFF3108372B626
:1021A0000125ED0408E040C940C0521CD2B21F2AEC
:1021B00002D166692E436661202AF4D383F3108826
:1021C00070BD00000020024003494A69CB141A4345
:1021D0004A61FF21016070470020024070B504464B
:1021E00000F05CFD0419084D05E000F057FDA04229
:1021F00001D3032070BD2869C043C003F5D503484F
:102200002861002070BD0000002002401180000005
:1022100010B501F0CDFA02F0A9FD80B2FEF720FD65
:10222000FEF72CFFFEF7D8FC80B2FFF751FFFEF758
:1022300017FD054903F082F80449FEF71DFC044927
:10224000FEF71AFC10BD00003333534000F07F4509
:102250000AD7233CFEB504460020019025462035D0
:10226000287D01281ED00120287520688168C94377
:10227000C90734D0A16BFF220132914302263143BA
:10228000A163C1688907890F0091C1688908890025
:10229000C16020688168D2051143816000F0FEFCB6
:1022A00007460FE00220FEBD00F0F8FCC01B02282C
:1022B00008D9A06B1021B0430843A0630020287503
:1022C0000120FEBD206880680028EDDB2068C16821
:1022D000009A1143C160A06BB043A06305E0A06BFE
:1022E00020210843A0630120019000202875019857
:1022F000FEBD0000F1B58AB00024114D05AE6F4659
:102300000A98FFF7A7FF002802D001200BB0F0BD0C
:10231000A868A100705040027850641C052CEFDBC7
:1023200005216846FEF7E8FD029840122861E8683A
:10233000686168680121C903084368600020E5E717
:1023400040240140F8B500250022009204462034C4
:10235000227D012A39D00123237502689668760709
:102360006AD43A4F4E68BE4250D0966A0F78BB404E
:102370001E4396620123C26A1B079A421FD0012A9C
:102380001DD0022A1BD0032A19D0042A17D0052AEF
:1023900015D0062A13D0072A11D002688B68566917
:1023A0007607760FB3420AD05369DB08DB0053612E
:1023B000006842690B7A5B075B0F1A434261086849
:1023C0000B2804D00C2802D03BE00220F8BD204BA3
:1023D0009A680B2807D00120800502439A6008689C
:1023E0000B2803D02DE00120C005F6E71A48194953
:1023F0000068FDF72CFF0A214843009002E0009896
:10240000401E009000980028F9D11AE0906A0E78DA
:10241000B3409843906208680B2801D00C2810D173
:102420000B498A680B2804D00120800582438A600A
:1024300007E00120C005F9E7816B20221143816389
:102440000125002020752846F8BD0000011000007D
:102450000027014040420F00140300200068006C78
:1024600070470000F8B504460025002C05D0A06B8D
:1024700026462036002802D007E00120F8BD0020C3
:10248000E0633075204600F0A1F8A06B1022C00672
:1024900000287DDB20688168490779D4A16B13018E
:1024A000994302231943A1638168C943C9070CD02A
:1024B000C16818239943A3681943C1602068016962
:1024C000636809010909194301612068C1683D4B2E
:1024D0001940C160207EE16880030143607EA36AE9
:1024E0004703012B02D001231B0300E000231F43FD
:1024F00023693943022B09D00023194333795B0048
:102500001943A67E0123012E02D00AE00423F4E73A
:10251000002826D0A06B20263043A063E06B184330
:10252000E063E0690646FF3EC23E02D0266A3043C1
:1025300001432068C6680E43C6600126E06A36077C
:10254000B04212D0012810D002280ED003280CD09F
:1025500004280AD0052808D0062806D0072804D069
:102560000FE0012000040143DBE720684669F6081C
:10257000F600466120684669A78D7F077F0F3E43BE
:1025800046612068C068104E3040884209D100E0A2
:1025900011E00020E063A06B80088000401CA06375
:1025A0000DE0A06B022188431043A063E06B184349
:1025B000E063012503E0A06B1043A06301252846DA
:1025C000F8BD000019C2FEFFE7FF3FC370B586B03B
:1025D0000546142101A8FDF738FE21490A680120AB
:1025E00002430A600A68024000921D4A403A936B17
:1025F00003439363936B03400093536B0343536311
:10260000526B024000920B68020513430B6009688D
:1026100011400091019003200290002603960520AE
:1026200001A9000700F0A2FA002000F0B5FD0E4C51
:102630000C4820606660A660E6604015206180005E
:1026400060612020A06103200003E061204600F0CB
:1026500099F8204600F0C6F82C63656206B070BD9C
:102660004010024008000240C4050020F8B50446AE
:102670000D4627466069203708280BD02068C068BF
:10268000C00709D0A06B20210843A0630020387543
:102690000120F8BD082600E00C2600F0FFFA0090AB
:1026A00011E0681C0FD0002D05D000F0F7FA00995A
:1026B000401AA84207D9A06B04210843A063002058
:1026C00038750320F8BD206800683042E9D0A06B5F
:1026D000012149020843A0632068C1680C22090552
:1026E000890F00291AD1617E002917D101680907D5
:1026F00014D5816801234907002908DB416891430B
:102700004160A06B190288431843A06306E0A06BE8
:1027100020210843A063E06B1843E063207E00287B
:1027200001D1206802600020F8BD000070B50446A9
:1027300020688068400720D425462035287D012860
:1027400019D0012028752046FEF7A6FB002811D1DC
:10275000A16B0B4A1140FF2201321143A1630021FA
:10276000E163297522681C21116021688A680423AD
:102770001A438A6070BD022070BD022070BD000047
:10278000FEF1FFFF70B50446002C24D020680168DC
:1027900049084900016020680025056020684560FF
:1027A000206885602068C5600C49206840181421A5
:1027B000FDF74DFD800020640949E163012282405C
:1027C0004A60A562E56225636563A5632034657090
:1027D0002570002070BD012070BD0000F8FFFDBF16
:1027E0000000024070B50446002C26D0144825682D
:1027F00014212818FDF72BFD800020641148E063A8
:1028000002212046203041702A680F490A40A368FF
:10281000616826691943E3683343194363691943BF
:10282000A3691943E3691943114329600021A16396
:10283000012242700170002070BD012070BD0000B7
:10284000F8FFFDBF000002400FC0FFFF70B5044657
:1028500000F024FA0546601C02D0044840682418A1
:1028600000F01CFA401BA042FAD370BDCC0000203F
:10287000F8B504460E46012563480178012969D060
:1028800001210170614840680004400F60490B68F5
:102890008200604882581068C7B2BC46BB4229D14A
:1028A0004B68C701FF0DBB4224D10B690004000E29
:1028B00083421FD18B685068C7B2BB421AD1CB6824
:1028C0004001400D834215D148699368DB03DB0B5F
:1028D00098420FD18869D368DB03DB0B984209D19A
:1028E000CB69106987B2BB4204D10B6A8000800CAF
:1028F00083421ED0604608601068C001C00D486069
:1029000010880004000E086110798860506840014A
:10291000400DC8609068C003C00B4861D068C00318
:10292000C00B8861108A80B2C86110698000800C79
:1029300008627D272068FF0004280DD002281CD0E3
:102940000121C90288425AD13846FFF747FC0028C6
:1029500036D054E00220F8BD3846FFF73FFC00288F
:102960004DD1FFF7F1FB3846FFF738FC05462A4901
:10297000486904229043486141E07D20C000FFF790
:102980002DFC00283BD1401E3060676811E03846BE
:10299000FFF7ECFB7D20C000FFF720FC05461E483A
:1029A0004169022291434161280001D0376026E04D
:1029B0008037A0686168C0014018B842E7D81EE0BF
:1029C0000020C0433060E76813E03846FFF7FCFBA7
:1029D0007D20C000FFF702FC05460F484169C21484
:1029E00091434161280001D0376008E001200003D5
:1029F0003F182069E16800034018B842E5D8024852
:102A0000002101702846F8BD540500200010024046
:102A1000002102402C5500080020024001200549F9
:102A20004A69C3071A434A614969002900DA00204C
:102A30007047000000200240F7B50F463C4C20785C
:102A400001285AD0012020703A4840680004400F05
:102A500039490D688200394880580268D3B29D42D6
:102A600029D14D68D601F60DB54224D10D69120465
:102A7000120E95421FD18D684268D6B2B5421AD166
:102A8000CD685201520D954215D14A698568ED0312
:102A9000ED0BAA420FD18A69C568ED03ED0BAA427E
:102AA00009D1CD69026996B2B54204D10D6A92008E
:102AB000920C95421DD00B600268D201D20D4A6083
:102AC00002881204120E0A6102798A604268520179
:102AD000520DCA608268D203D20B4A61C268D20327
:102AE000D20B8A61028A92B2CA6100698000800CAE
:102AF0000862780603D00120FEBD0220FEBD7D25C0
:102B0000ED002846FFF76AFB00280DD138460299F0
:102B1000FFF73CFB2846FFF761FB09494A69520869
:102B200052004A610028E9D100212170FEBD000059
:102B30005405002000100240002102402C550008DE
:102B400000200240002006494A69002A07DA054AA7
:102B50008A60054A8A604969002900DA01207047C5
:102B60000020024023016745AB89EFCDF0B500227C
:102B70007CE001249440A4462340002B75D04C688F
:102B8000022C01D0122C0CD1D408A40027183D6AC5
:102B90005407E40E0F26A640B5430E69A6402E4307
:102BA0003E62066855000324AC40A6430F79BF0778
:102BB000BF0FAF40374307604E68012E05D0022E8D
:102BC00003D0112E01D0122E0ED18668A643CF68F5
:102BD000AF403743876047686646B7430E79F606CD
:102BE000F60F96403E434660C668A6438C68AC40EC
:102BF0003443C4604C68E40037D595081E4CAD00E2
:102C00002F193D6E9407E40E0F26A640B543052606
:102C10003607B04201D1002605E0184EB04201D17E
:102C2000012600E00226A6402E43134D3E66124EBA
:102C3000803634689C434F68FF0300D51C433460E2
:102C400074689C434F68BF0300D51C4374602C68B4
:102C50009C434E68F60200D51C432C606C689C4374
:102C60004E68B60200D51C436C60521C0B681C46B3
:102C7000D44000D07DE7F0BD0018024000040050B1
:102C80000069084201D00120704700207047002AE7
:102C900001D08161704781627047000001488068FF
:102CA00070470000CC00002070B50446002C0FD007
:102CB00021681048086021680F4808602168606832
:102CC00048602168A0688860FFF7E8FF054608E0D3
:102CD000012070BDFFF7E2FF401B302801D903201F
:102CE00070BD2068C0680028F4D1216803480860DE
:102CF000002070BDCCCC000055550000AAAA0000F1
:102D0000006802490160002070470000AAAA000084
:102D1000024881684268891881607047CC000020B1
:102D200010B50024032000F009F8002801D0012488
:102D300001E000F023F8204610BD000070B5054604
:102D400000240C4E7068002811D00B4800F02CFABB
:102D5000002801D001240BE0042D06D200222946D0
:102D6000501E00F017F8356002E0012400E0012455
:102D7000204670BDCC000020C05D00007047000000
:102D8000C106C90E01208840014908607047000053
:102D900000E100E010B500F031FD10BDF8B50446CB
:102DA0000D46002C0FD04D480068C007C00FA84248
:102DB00018D24A4F38684008400028433860FFF76F
:102DC0006DFF064609E00120F8BDFFF767FF811B94
:102DD0004348814201D90320F8BD3868C007C00FBD
:102DE000A842F2D120683F4E81070DD5400704D597
:102DF000B068072109030843B060B0680F210902D9
:102E00008843A1680843B0602078C0072DD060686F
:102E1000012808D000280BD032494031096A8907BF
:102E20000BD40120F8BD3168890306D40120F8BD18
:102E30003168490501D40120F8BDB168C908C9004D
:102E40000143B160FFF72AFF074607E0FFF726FFBF
:102E5000C11B2348814201D90320F8BDB068382145
:102E600008406168C9008842F0D11C480168C90760
:102E7000C90FA94216D901684908490029430160D0
:102E8000FFF70CFF074607E0FFF708FFC11B1448D8
:102E9000814201D90320F8BD10480068C007C00F67
:102EA000A842F1D12078400706D5B0680721090370
:102EB0008843E1680843B06000F01CF8B1683C2228
:102EC00089091140084A515CC906C90EC840074922
:102ED000086007480068FFF731FFF8BD0020024096
:102EE0008813000000100240605500081403002001
:102EF000CC00002000B585B0142216496846FDF7C5
:102F000023F9154881688906490F0CD08168890624
:102F1000490F012918D080688006400F032815D07A
:102F2000002005B000BD016889044A0F01219140CD
:102F300040680004400F042800D9002080006A4641
:102F40001058FDF784F9ECE70448EAE70120C003D4
:102F5000E7E700004C5500080010024000366E0103
:102F6000F8B50446002C1DD020783827C007864DC0
:102F7000002856D0A8683840082815D06068002876
:102F800007D0A068002817D029690C22914301437B
:102F9000296101216068090488420FD1286808432B
:102FA00028601EE00120F8BD2868800339D56068DC
:102FB000002836D10120F8BD0120F8BD05230122EB
:102FC0001B049204984206D12868104328602868A0
:102FD0000843286005E028688843286028689043F3
:102FE0002860606800280ED0FFF758FE064606E00D
:102FF000FFF754FE801BC82801D90320F8BD2868BC
:103000008003F5D50DE0FFF749FE064606E0FFF721
:1030100045FE801BC82801D90320F8BD286880031D
:10302000F5D42078800772D5AE683E40002E12D0CD
:10303000FF20E1680130002958D029680722D20218
:103040009143226911432960296801432960FFF7F0
:1030500025FE064640E02868400502D5E0680028C5
:1030600009D068686169000C000408436860FFF7D4
:1030700015FE074608E00120F8BDFFF70FFEC01B54
:10308000022801D90320F8BD28684005F5D5002E97
:1030900013D128680721C9028843216908432860A1
:1030A000FFF728FFA9683C2289091140374A515C83
:1030B000C906C90EC8403649086036480068FFF79F
:1030C0003DFE002823D00120F8BDFFF7E7FD801B5F
:1030D000022801D90320F8BD28684005F5D56868A5
:1030E0006169000C00040843686010E029688143AE
:1030F0002960FFF7D3FD064606E0FFF7CFFD801BF2
:10310000022801D90320F8BD28684005F5D42078AD
:10311000000736D5A8681C4D8006400F40350328AF
:103120000AD0A06900281AD0286A01210843286221
:10313000FFF7B4FD04460EE0286A800721D5A06998
:1031400000281ED10120F8BDFFF7A8FD001B0228B2
:1031500001D90320F8BD286A8007F5D511E0286A57
:10316000400840002862FFF799FD044606E0FFF79B
:1031700095FD001B022801D90320F8BD286A8007AD
:10318000F5D40020F8BD0000001002406055000892
:1031900014030020CC0000200249CA690243CA611E
:1031A000704700000000014010B50949401E8842E8
:1031B00001D9012010BD074C60610321081F00F0F8
:1031C0001DFB0020A06107202061002010BD000031
:1031D000FFFFFF0000E000E070B50446002C05D0C2
:1031E00025462035687F002802D006E0012070BD0A
:1031F00000202877204600F00AF802206877211D79
:10320000206800F03BFB01206877002070BD70470C
:10321000F8B504460E4625462035287F01280DD0F6
:1032200001202877022068770427002A08D0042A82
:1032300019D0082A2ED00C2A55D13EE00220F8BD24
:103240003146206800F066FB20688169082211433E
:10325000816120688169B94381612068816932692F
:10326000114381613FE03146206800F091FB206806
:1032700082690121C9020A438261206881690122B1
:10328000920291438161206881693269120211437F
:10329000816128E03146206800F0BAFB2068C269ED
:1032A00008210A43C2612068C169B943C16120682D
:1032B000C16932691143C16115E03146206800F0EF
:1032C000E7FB2068C1690122D2021143C161206875
:1032D000C269012189028A43C2612068C1693269D9
:1032E00012021143C1610120687700202877F8BDE0
:1032F00010B504460122206800F0FEFA0D4821684E
:10330000814205D00C48814202D00C48814204D150
:10331000486C0122D2031043486420688168490741
:10332000490F062903D001680122114301600020E2
:1033300010BD0000002C0140004401400048014045
:1033400008B540210268C943116002684910116044
:103350000068016841680091016841680091016856
:103360004168009101684068009008BDFEE70000D8
:10337000074BDA1E1978002805D000201070517014
:103380003720907070471170D87B507090707047E4
:10339000DE000020F0B530490820CE7906404F7A93
:1033A0000740BC46CA7A024096462C480078C207BD
:1033B000140F0222034613405B001C4304230546FE
:1033C0001D406D082C430507ED0F2C430C72C406FD
:1033D000E40F2643202405462540ED082E434025D2
:1033E000284040090643CE711C484078C607360F76
:1033F000074617407F003E4307461F407F083E4375
:103400000707FF0F3E438E72C6066746F60F374327
:1034100006462640F60837432840400907434F72C6
:103420000E488078C607360F024052001643024607
:103430001A40520816430207D20F16430E73C306F2
:103440007246DB0F1A4303462340DB081A43284029
:1034500040090243CA72F0BD38050020DB0000209D
:1034600070B51749174C20780207120F0A71102205
:10347000034613409D088306DB0F1D43402318407D
:10348000400905434D71607805072D0F8D70054685
:103490001540AD088606F60F354318404009054330
:1034A000CD70A0780407240F0C70024092088406A7
:1034B000E40F22431840400902434A7070BD0000E7
:1034C00038050020D800002010B5002804DB80B2A9
:1034D000012100F02FF910BD404200B2632800DD49
:1034E00063200A21FCF7BDFECCB20A21FCF7B9FE2D
:1034F000C9B2044840220270C21C515C4170115D87
:10350000817010BDDB00002070B504461248844273
:1035100000D904460A212046FCF799FE0E460A21EE
:10352000FCF795FE0D4664212046FCF790FE0A212B
:10353000FCF78DFE0948002242700270C21C935DA8
:1035400083700B462B4301D0535D4370002901D09B
:10355000515C017070BD0000E7030000DB0000203B
:10356000054A0028917903D00420014391717047E6
:10357000FB2001409171704738050020054A002862
:10358000917903D00220014391717047FD200140E1
:103590009171704738050020054A0028917903D0C1
:1035A00001200143917170474808400090717047B5
:1035B00038050020054A0028917903D008200143EE
:1035C00091717047F72001409171704738050020D4
:1035D000054A0028517A03D00820014351727047F0
:1035E000F7200140517270473805002010B502469F
:1035F0000846130000F094FA0705080B0E11141783
:103600000700FFF7C9FF10BDFFF7B8FF10BDFFF7B8
:10361000A7FF10BDFFF7CEFF10BD00F007F810BDEB
:10362000FFF7D6FF10BD00F00FF810BD054A0028C7
:10363000D17903D008200143D1717047F7200140B0
:10364000D171704738050020054A0028D17A03D08F
:1036500008200143D1727047F7200140D1727047B2
:1036600038050020024800210170417081707047C8
:10367000DB00002010B5002902D0FFF779FE01E041
:10368000FFF7F0FFFFF786FE10BD000070B50029C0
:1036900030D01B4A0024D31C4025997B03281BD023
:1036A00006DC002809D001280CD0022824D10EE025
:1036B0000F2816D010281FD118E0147051701878F8
:1036C000907019E0147051705878907014E0147074
:1036D0005170987890700FE06D2010705570917057
:1036E0000AE014705170D87B907005E01570557029
:1036F000957001E0FFF7B6FFFFF74CFE70BD0000CC
:10370000DB00002010B500290CD0002802D0FFF704
:10371000DBFE09E0064806490078C91E08704870BB
:10372000887001E0FFF79EFFFFF734FE10BD000038
:10373000DE00002010B5002902D0FFF7E5FE01E011
:10374000FFF790FFFFF726FE10BD000070B506469C
:103750000A213046FCF77BFD0D460A21FCF777FD78
:103760000C4664213046FCF772FD0A21FCF76FFD20
:103770000B460548415D821F9170015D5170C05C30
:103780001070FFF76DFE70BDDE00002010B5092837
:1037900000D9092005490A5C881F827009784170A8
:1037A00073210170FFF75CFE10BD0000DE000020F9
:1037B00070B506461E213046FCF749FD0C4C0D4DF8
:1037C000A1888E4209D9A080FDF742FA294601F06E
:1037D000B5FDFDF701FA80B270BD3046FDF740FA45
:1037E000294601F0ABFDFDF7F7F9A080304670BD2A
:1037F00014010020C3F5283F704700008307FF2213
:10380000DB0E9A408907090E994000280BDA000761
:10381000000F0838830808489B001818C3699343B1
:103820000B43C3617047830804489B001818036862
:1038300093430B430360704700ED00E000E400E0B9
:103840007047704710B5FFF763FA10BD0849486824
:10385000084A000C92880004D204D20C10430122C2
:10386000520310434860C803034988607047000052
:1038700000100240000FFF1F00ED00E070B502686D
:10388000184C194EA04201D0B04204D17025134605
:10389000AB434A681A43154B154DA04208D0B042BD
:1038A00006D0144EB04203D0984201D0A84204D1B1
:1038B00003263602B243CE6832438026B2434E69B5
:1038C000324302608A68C2620A688262A04203D000
:1038D000984201D0A84201D10969016301214161E7
:1038E00070BD0000002C0140000400400044014075
:1038F000004801400020004010B5C906C90E012350
:103900008B40046A9C430462036A8A401343036247
:1039100010BD0000F0B5026A520852000262056A4A
:10392000436882697024A243920892000C68144391
:10393000022295438A682A43124E134FB04204D0A4
:10394000B84202D0114DA84206D10825AA43CD683D
:103950001543042295432A46B04204D0B84202D00F
:103960000A4DA84208D1FF250135AB436D00AB439A
:103970004D691D438B692B434360846149684163F2
:103980000262F0BD002C01400044014000480140AB
:10399000F0B5026A10239A430262046A436882699E
:1039A00007252D03AA4303252D02AA430D682D02E6
:1039B0001543202294438A6812012243114EB042DB
:1039C00007D180271446BC43CA6812012243402411
:1039D000A243B04205D00C4CA04202D00B4CA042F6
:1039E0000AD10124A402A3436400A3434C69A400A8
:1039F0001C438B699B002343436085614968816355
:103A00000262F0BD002C014000440140004801402A
:103A1000F0B5026AFF2301339A430262046A4368E5
:103A2000C2697025AA43920892000D6815430122CD
:103A3000520294438A6812022243124EB04207D1C6
:103A4000C7141446BC43CA68120222430415A24399
:103A5000B04205D00C4CA04202D00C4CA0420AD17E
:103A600001242403A3436400A3434C6924011C43A1
:103A70008B691B0123434360C5614968C1630262CE
:103A8000F0BD0000002C014000440140004801400E
:103A900070B5026A01231B039A430262046A4268FA
:103AA000C36907252D03AB4303252D02AB430D68E6
:103AB0002D021D4301235B039C438B681E03264399
:103AC0000A4B984205D00A4B984202D0094B9842C3
:103AD00006D10124A4031346A3434A6992011A4361
:103AE0004260C56149680164066270BD002C0140F6
:103AF000004401400048014010B5084C20680068AF
:103B0000C043800601D400BF02E00448FFF718FC60
:103B100020202168C043086010BD000090040020F0
:103B200030B47446641E2578641CAB4200D21D4636
:103B3000635D5B00E31830BC1847000010B5FDF76B
:103B4000B7FD0B498A6890420DD0886000280AD0E2
:103B5000002211461020FDF729FE0120FDF7F4FD9B
:103B600004480021C18400F033F800F005F810BDCE
:103B7000AC0100201C04002070B5144C0025E07836
:103B8000002817D0E570207900280AD000F0BAFD8F
:103B9000002211460F20FDF709FEFEF773F825718C
:103BA00008E0002211460120FDF700FE00F0EEFDC6
:103BB000012020712079002806D0A078002803D0A9
:103BC000A570012000F084FB70BD00001C040020E3
:103BD00070B5FDF76DFD002412490123124A00283B
:103BE0000ED090880F2801D2401C908090880F281A
:103BF00005D35078002802D1CB705370947070BDFB
:103C00009088451E0E2D00D28B700F2806D3507859
:103C1000002803D09078002800D1937094805470CD
:103C200070BD00001C040020AC01002010B5174836
:103C3000407F00280ED00300FFF772FF110C0A0D21
:103C400010131F22250C0C0C0C0C0C1C16190C004C
:103C500001F0FAF910BD01F05DFA10BD01F026FA8D
:103C600010BD01F089FA10BD01F0E4F810BD01F0BB
:103C7000FBF810BD01F022F910BD01F04FF910BDA5
:103C800001F0B0F910BD01F07BF910BD1C0400205B
:103C9000F0B587B00C460290214637480190029853
:103CA00001F0DCFB47007F0806903448334D8078F4
:103CB000A03D0590324E296E0491002825D004982D
:103CC000FCF78AFFE96E884207D22E49069888429F
:103CD00003DA74613461F460B4602B4881780029A0
:103CE00007D174613461F460B460746034600121A0
:103CF00081702648874202DD2548019008E025486A
:103D0000874205DA2448019002E01F4800218170B3
:103D10000199029801F012FB04467F20C005019929
:103D200001F09CFB0390316801F008FB214601F093
:103D300095FA30600124601E80003058019901F02E
:103D4000FDFA0090A700F159039801F0F7FA0099E5
:103D500001F084FAF051641C062CECDB0598002875
:103D600008D00498FCF738FF296F884202D27069A6
:103D700007B0F0BDF068FBE7CDCC4C3D3C04002023
:103D8000AC0500200000A040140100200000C84144
:103D9000CDCCCC3D000020410AD7233CFEB500909D
:103DA000009801F05BFB44003B4F6408BC603B4E55
:103DB0003F252D06B4420ADA31462046FCF75CFE68
:103DC000374901F0BBFA294601F048FA0DE03146C7
:103DD000204601F043FB3146FCF74EFE0221FCF782
:103DE00043FF8121C90501F039FAA84200DA2846CB
:103DF00041252D06A84200DD2846F8600290314694
:103E00008C420ADA2046FCF737FE264901F096FA82
:103E10007F21C90501F022FA0DE00E46204601F08F
:103E20001DFB3146FCF728FE0221FCF71DFF812116
:103E3000C90501F013FA7F24E405A04200DA204608
:103E4000A84200DD2846054638617868029901F0ED
:103E500005FA06462946304601F000FA014630468A
:103E6000FCF70AFE786101903D680098294601F050
:103E7000F5FA019901F062FA294601F0EFF90546D9
:103E800038602046019901F0E9FA314601F056FA0E
:103E900078602846FEBD000094010020000020410B
:103EA000000060400000404070B5354905254D5781
:103EB0000022012480392B00FFF732FE0710051184
:103EC0001D333F5510004869002801D04A6100E0C9
:103ED0004C6148690121C0B2FFF7CCFB70BD886915
:103EE000002801D08A6100E08C6188690121C0B29C
:103EF000FFF7C0FB70BD002806D0086932280ADA37
:103F00000869401C086106E008693222D04202DDDF
:103F10000869401E08610869012100B2FFF7F2FB41
:103F200070BD086A002801D00A6200E00C62086ACD
:103F30000121C0B2FFF79EFB70BD002807D0486A80
:103F4000104A904209D2486A401C486205E0486A1B
:103F50003C2802D9486A401E4862486A012100B2E2
:103F6000FFF7D0FB70BD886A002801D08A6200E0AC
:103F70008C62886A0121C0B2FFF77CFB70BD000033
:103F80001C040020E703000070B51B4802681B4BAF
:103F90007D26D8681946151A0878F6000124497854
:103FA000B5420ED3DA60032802D80020587006E02C
:103FB000491CC8B25870032801D9032058701C70DE
:103FC00007E0401CC0B21870032802D9002900D1B4
:103FD0005C705878002807D0012807D0022807D045
:103FE000032807D0052070BD052070BD0A2070BDD4
:103FF0000F2070BD142070BDD4000020B801002037
:1040000010B5084C207800280AD00120FDF79CFB51
:104010000020E084207004490870607800F006F801
:1040200010BD00001C040020AC01002010B50C499C
:104030000979002907D0FFF737FF00221146102029
:10404000FDF7B4FB10BD00F0F1F8002201211020B3
:10405000FDF7ACFB024800212030817010BD00004C
:104060001C04002010B50020FDF79AFA044CA06053
:10407000FDF764F8A062FCF7CBFFA06410BD000060
:104080001C03002010B50420FDF78AFA014988615D
:1040900010BD00001C03002010B50120FDF780FAC0
:1040A000024CE060FDF758FAE06210BD1C030020EE
:1040B00010B5FCF7B9FF0149C86410BD1C0300200E
:1040C00070B5FDF727FF0020274900BF401C80B2D4
:1040D0008842FAD30220FDF763FA244D286124496F
:1040E000C978732904D0D22906D0F5290BD107E06D
:1040F00000F0A6FC286306E000F0E4FC286302E080
:1041000000F022FD2863194C8034E068FCF7A8FD1C
:104110000146286BFDF700F92865286020468030AD
:10412000C07907280FD0E068FCF79AFD0646E068E2
:10413000FCF796FD01462868FFF730FE3146FFF791
:10414000A7FD286770BDE068FCF78AFD0646E068B9
:10415000FCF786FD01460020FFF720FE3146FFF701
:1041600097FD286770BD0000FF0800001C030020B9
:104170003C04002010B5FFF785FF0B480121806942
:10418000C902884201D9F52010BD0721C901884222
:1041900001D2D22010BD054940180549884201D2FC
:1041A000732010BD002010BD1C0300207FFCFFFF0A
:1041B0007F02000010B50E498879002812D0002037
:1041C00088710C490A79002A0BD1C979042908D0D1
:1041D000052906D0074980398969002904D000F0F3
:1041E0000BF810BD0120EBE7012000F005F810BD31
:1041F000B80100201C04002010B50B49CA69012A2F
:1042000008D0022A0BD0032A03D101460020FFF771
:10421000EDF910BD01460220FFF7E8F910BD014697
:104220000120FFF7E3F910BD9C03002070B5274C77
:10423000A169002926D0002806D0E069032809D208
:10424000E069401CE06105E0E069012802D9E0690D
:10425000401EE06101210020FFF7C8F90121084656
:10426000FFF7C4F901210220FFF7C0F9E06932210C
:10427000401E4843FF302D30E060E06880B2FFF719
:1042800065FA70BD00280ED0E068FF25C335A8424E
:1042900004D2FFF779FEE1684018E060E068A842C8
:1042A0000ED9E5600CE0E068692804D3FFF76CFEE6
:1042B000E168081AE060E068642801D26420E060E8
:1042C000E06880B2FFF742FA70BD00009C03002056
:1042D00010B5314C002809D06079401C6071052070
:1042E000205606280BDD0120607108E06079401E31
:1042F000607105202056012801DA06206071052032
:10430000205680B2FFF742FA05202056224C0300C7
:10431000803CFFF705FC070E050F19232D370E0013
:1043200000210620FFF762F960690121C0B2FFF7A2
:10433000A1F910BD00210620FFF758F9A06901215D
:10434000C0B2FFF797F910BD01210620FFF74EF923
:104350002069012100B2FFF7D5F910BD0021062028
:10436000FFF744F9206A0121C0B2FFF783F910BDBD
:1043700000210620FFF73AF9606A012100B2FFF739
:10438000C1F910BD00210620FFF730F9A06A012114
:10439000C0B2FFF76FF910BD1C040020F8B5334C14
:1043A000334DE179E8780126042917D0052915D085
:1043B0000027002841D0EF706F710120FDF7C4F98C
:1043C000E771002211461020FDF7F0F900210420CA
:1043D000FFF70CF92079002821D02EE0002812D117
:1043E00001210420FFF702F900F0B2FA0022114681
:1043F0001020FDF7DBF92079002803D101210620E8
:10440000FFF7F4F8EE701B4801681B48814205DA9B
:104410006879002802D16E710520E071F8BD13485B
:104420008038806A002804D000210620FFF7DEF8DB
:1044300003E001210620FFF7D9F80E4800680F4974
:1044400088420BDB0720E0712879002804D1002284
:1044500011460F20FDF7AAF92E71F8BD2879002822
:10446000FBD0FCF799FF2F71F8BD00001C04002061
:10447000B80100201C0300200000C84200001644C0
:10448000F8B534490025086E4200120E002A41D0CA
:104490008A6E002A3ED0896DFCF7EEFA01467F2233
:1044A000D205914200DD1146FF20C005C14200D374
:1044B0000021294E294F2A4800F040FF394600F0DC
:1044C000C1FF04463146204600F00EFF00D23446BC
:1044D0003946204600F08AFF00D23C46214E204655
:1044E000314600F0BBFF3146FCF7C6FAFCF774FB1F
:1044F00082B21D498878002814D00889401C80B2F7
:104500000881012821D30D818D7000210520FFF73E
:104510006DF8F8BD14480581857000210520FFF76E
:1045200065F8F8BD0889401C80B20881904207D325
:104530000D810120887001210520FFF757F8F8BD93
:1045400000210520FFF752F8F8BD01210520FFF7F3
:104550004DF8F8BD9C0300200000484300007A4558
:1045600000806D450000C842B801002010B5FFF77B
:1045700079FD05480549806C884204DD0448062120
:10458000C171FCF7D5FC10BD1C0300200000964251
:104590001C04002070B5052020210007FEF770FBE9
:1045A000134D144C002814D00120FCF7F9FFE860EB
:1045B00080B2FDF72DFEFCF735FA00222346FCF70A
:1045C0000DF9E2020C4BFCF709F9FBF7F1FEE86686
:1045D00070BD0020E860FDF71BFEFCF723FA002207
:1045E0002346FCF7FBF8FBF7E3FEE86670BD00002E
:1045F0001C03002000003840CCCCEC3FFEB53F4D02
:10460000E868FCF72DFB29468039096F019100F01D
:1046100019FF400040080090394EF7697F1CF76190
:104620002C46A034A078002808D0286EFCF7D4FAD5
:10463000296F884202D20A20B06101E00120B061F6
:104640007169B0697A1A824215D3081870612B48D3
:104650008030017900290ED1C17900270B00FFF7C6
:104660005FFA08280A050A11230A0B0A0121002013
:10467000FFF70CF8A770FEBD01210320FFF706F835
:10468000A770FEBD1D4D0198803DFCF7A5FA31696C
:10469000884207D280B20121FFF74CF8286FFCF75F
:1046A0009BFA3061A770FEBD01211020FEF7EEFFDE
:1046B000FEBDA96A002907D00069FCF78DFA80B217
:1046C0000121FFF737F806E00198FCF785FA80B280
:1046D0000121FFF72FF87F210098C905884209DAE8
:1046E000A078002804D1002211461020FDF75EF8C2
:1046F0000120A070FF20C3303061FEBD9C0300206C
:10470000B801002010B501210020FEF76FFF012144
:104710000846FEF76BFF01210220FEF767FF134CEE
:10472000A069002812D0E069012804D0022806D030
:1047300003280BD107E0FF202D30E06006E0FF20CA
:104740005F30E06002E0FF209130E0600748012127
:1047500080304171E06880B2FEF7F8FFA06A00285F
:1047600003D101210620FEF741FF10BD9C0300206C
:10477000884203D3904201D300207047814203D383
:10478000914201D3012070470220704710B50021EB
:104790000846FEF72BFF00210120FEF727FF00212E
:1047A0000220FEF723FF264C0520205680B2FEF79C
:1047B000EDFF05202056803C0300FFF7B1F9070EFE
:1047C000050F19232D370E0000210620FEF70EFFDE
:1047D00060690121C0B2FEF74DFF10BD0021062027
:1047E000FEF704FFA0690121C0B2FEF743FF10BD30
:1047F00001210620FEF7FAFE2069012100B2FEF732
:1048000081FF10BD00210620FEF7F0FE206A012185
:10481000C0B2FEF72FFF10BD00210620FEF7E6FE16
:10482000606A012100B2FEF76DFF10BD0021062075
:10483000FEF7DCFEA06A0121C0B2FEF71BFF10BD2F
:104840001C040020F3B581B00299019800F0C8F86B
:104850000299019800F090F80746394C0126A06EA5
:10486000F60700286BD00198FCF7FAF9029900F0DE
:10487000F5FD05463946E06B00F0F0FC294600F0F6
:104880005DFDA0642946206C00F058FD216D00F00C
:1048900055FDE16C00F0E2FC0746E0642846E16D5E
:1048A00000F0DCFD616C00F049FD6065E5653846AF
:1048B000A16D00F09BFD01D2A06DE064A06DE16CE4
:1048C000704000F093FD02D2A06D7040E064E16C96
:1048D000A06C00F0C3FC616D00F0C0FC20661849BC
:1048E000A031C978732904D0D22905D0F52908D17F
:1048F00005E01449616604E01349616601E013496B
:104900006166FF21C905C84201D300202066616E9F
:10491000206E00F06BFD01D2606E2066616F019821
:10492000401AFCF79DF9029900F060FD01D2606E1B
:104930002066206EFCF750F980B2FDF70BFBFEBD40
:104940009C0300200000AF4400A00C4500401C4622
:104950000748C1798038002906D000218166C164EA
:10496000016504488163704701218166704700003A
:104970001C0400200004004010B50C46FCF770F940
:10498000214600F06BFD00210122D20590420BDB95
:10499000064C214600F062FD0549C96B00F0CEFCD3
:1049A0002146FCF769F80146084610BD0000704139
:1049B0009C03002010B50848C07905280BD0FFF7EC
:1049C0007FFB05488038C16800690818034980B238
:1049D0000968FFF737FF10BD1C0400201C030020EE
:1049E00070B50C46FCF73CF9214600F02BFD460063
:1049F00076081248114CC0787F25ED05A03C73283D
:104A000004D0D22805D0F52808D105E0FDF738FA02
:104A100004E0FDF735FA01E0FDF756FAE06FFCF728
:104A20001FF9314600F060FC03D20020E0642565E8
:104A300000E02565FFF78CFF70BD00003C040020FE
:104A4000F8B504462046FBF7C6FE164A164BFBF7A0
:104A5000C5FE06460F462046FCF702F9009000F01E
:104A6000D9F9FBF7DFFF114A114BFBF7B7FE0446FC
:104A70000D46009800F0D3F9FBF7D4FF0D4A0E4B1A
:104A8000FBF7ACFE22462B46FBF74CFE32463B467C
:104A9000FBF748FE094A0A4BFBF744FEFBF788FC8C
:104AA000F8BD0000304CA60A4625EF3F2A4E5A5D5D
:104AB000F34F35BFE7A52A8DE517693E9A99999975
:104AC00099D582C0F8B504462046FBF784FE164A05
:104AD000164BFBF783FE06460F462046FCF7C0F850
:104AE000009000F097F9FBF79DFF114A114BFBF77F
:104AF00075FE04460D46009800F091F9FBF792FF11
:104B00000D4A0E4BFBF76AFE22462B46FBF70AFEC8
:104B100032463B46FBF706FE094A0A4BFBF702FE0C
:104B2000FBF746FCF8BD0000CB10C7BAB88DE83FD4
:104B300044B97E0BFCF233BF7DAA55D59035733E48
:104B4000CDCCCCCCCCCC70C010B5FCF789F8FBF741
:104B500069FF054A054BFBF741FE054A054BFBF78C
:104B6000E1FDFBF725FC10BD917EFB3A70CEC83FFE
:104B7000EE7C3F355E1A3A4070B5264D2968264CCA
:104B80002068091A0A2907D30A302060FFF712FFAC
:104B9000FFF78EFAFFF74AF82968A068091A322948
:104BA00003D33230A060FFF72BFA29686068FF2238
:104BB000091AF532914208D380186060FFF7EEFBC6
:104BC000FCF732FB1548FEF79BF82968E0680A1AE3
:104BD0007D21C9008A4209D34018E060FFF7EAFA54
:104BE000FFF7C4FCFCF77EFBFCF7FEFA296820699E
:104BF000091A64290BD364302061FEF79FFFFCF78C
:104C0000C5FAFFF7FBFCFFF73BFCFCF7FFFEFFF7E5
:104C1000C1FC70BDD4000020F00000204805002039
:104C2000FFB585B00598446805988068049005989C
:104C3000008802900298401E800020180390019383
:104C400023E006980168039801600698001D06900D
:104C50000398001D0390002000902546049E029FAB
:104C600002CE01CD00F06AFB009900F0F7FA009047
:104C70007F1E002FF4D10799009808600798001D47
:104C80000790241D0198401E019001980028D8D15A
:104C9000059841680298401E02E004CC04C1401E01
:104CA0000028FAD109B0F0BD30B5002903D004685E
:104CB0000025012209E0002030BD9300C358A34223
:104CC00001D91C461546521CD2B28A42F5D36D1C3E
:104CD000E8B230BD10B5094C884201DC208810BD17
:104CE000904201DBA08910BD521A401A06214843A8
:104CF0001146FBF7B6FA4000205A10BDFA02002018
:104D0000FEF70EF8FF209130FDF7A0FDFCF7D2FD75
:104D1000FCF70AFEFCF7F6FCFCF728FD124801211F
:104D2000008AC903C004C00C4018FDF719F9192006
:104D3000FDF78CFDFCF7D8FFFCF7C8FCFDF7EAF89F
:104D4000FCF7A6FCFCF75CFCFDF738F8FCF7A0FECE
:104D5000FCF722FBFDF712F8002211461020FCF7A9
:104D600025FDFFF709FFFCE7000FFF1FF0B585B039
:104D7000144D154C2A78910060500521501CFBF70A
:104D800066FA297000206E46810062587250401CFD
:104D90000528F9DB002100200422571A09E0421CF3
:104DA000850092007459B3589C4201D97351B45094
:104DB000401C8742F3DC491C0429ECDB029805B057
:104DC000F0BD0000140100208C05002010B5002863
:104DD00002D000F009F810BD052000224021000794
:104DE000FDF755FF10BD000010B500280BD001469F
:104DF0000548FBF72CFA401E0449C8624008486386
:104E0000496B0348816110BD00093D000044014029
:104E10001C04002010B5014600F090FA10BD10B53A
:104E200004462146204600F089FA214600F086FA21
:104E300010BD000070B50A4CE08B401C80B2E083CE
:104E4000012801D100F032F8E08B322806D3054862
:104E5000002545770020FFF7B9FFE58370BD00000E
:104E6000D80100201C04002070B50A4C208C401C86
:104E700080B22084012801D100F010F8208C052890
:104E800006D30548002545770020FFF79FFF2584BE
:104E900070BD0000D80100201C04002010B50520C2
:104EA000012240210007FDF7F2FE10BD10B50520DC
:104EB000012240210007FDF7EAFE10BDF8B5154CB0
:104EC000FF262178204600259136808C0127002975
:104ED00008D0401D80B2A0847D21C900884207D33C
:104EE000257005E0401F80B2A084B04200D8277032
:104EF000A08CFFF76BFF608C401C80B26084C828D8
:104F000007D30020FFF762FF6584A684277002485C
:104F10004577F8BDD80100201C04002070B5164D5F
:104F200000262889154C002813D1E888022805D3CB
:104F3000EE8066770020FFF749FF70BD0E49400004
:104F40002A31085AFFF742FFE888022801D2401CA4
:104F5000E8802889401C81B229811722A06900F0CD
:104F60003FF92889172802D10020FFF72FFF288951
:104F70001928E2D32E8170BDD80100201C04002026
:104F800070B5164D0026A889154C002813D16889E4
:104F9000062805D36E8166770020FFF717FF70BDE6
:104FA0000E494000F631085AFFF710FF68890628BD
:104FB00001D2401C6881A889401C81B2A9811722B6
:104FC000A06900F00DF9A889172802D10020FFF789
:104FD000FDFEA8891928E2D3AE8170BDD80100205A
:104FE0001C04002070B5164D0026A888154C00281A
:104FF00013D16888032805D36E8066770020FFF7F9
:10500000E5FE70BD0E4940002E31085AFFF7DEFE66
:105010006888032801D2401C6880A888401C81B29F
:10502000A9801722A06900F0DBF8A888172802D110
:105030000020FFF7CBFEA8881928E2D3AE8070BD10
:10504000D80100201C04002070B5164D0026288AC7
:10505000154C002813D1E889032805D3EE81667723
:105060000020FFF7B3FE70BD0E4940003431085AEE
:10507000FFF7ACFEE889032801D2401CE881288AAA
:10508000401C81B229821722A06900F0A9F8288A61
:10509000172802D10020FFF799FE288A1928E2D3A9
:1050A0002E8270BDD80100201C04002070B5164D62
:1050B0000026288B154C002812D1E88A092805D330
:1050C000EE8266770020FFF781FE70BD1049400038
:1050D000085AFFF77BFEE88A092801D2401CE882C3
:1050E000288B401C81B229831722A06900F078F830
:1050F000288B172802D10020FFF768FE288B19287B
:10510000E3D32E8370BD0000D80100201C040020D2
:10511000DA02002070B5164D0026A88A154C00282A
:1051200013D1688A032805D36E8266770020FFF7C3
:105130004DFE70BD0E4940003A31085AFFF746FE59
:10514000688A032801D2401C6882A88A401C81B268
:10515000A9821722A06900F043F8A88A172802D173
:105160000020FFF733FEA88A1928E2D3AE8270BD73
:10517000D80100201C04002070B5164D0026A88B15
:10518000154C002812D1688B072805D36E836677EB
:105190000020FFF71BFE70BD10494000085AFFF7C2
:1051A00015FE688B072801D2401C6883A88B401C21
:1051B00081B2A9831722A06900F012F8A88B1728E2
:1051C00002D10020FFF702FEA88B1928E3D3AE839B
:1051D00070BD0000D80100201C040020EC0200205B
:1051E00010B50B461146002805D0CA1A5043FBF7EC
:1051F0002EF80149486310BD0044014000B516492E
:105200000300FEF78DFC110C0A0D10131F22250C54
:105210000C0C0C0C0C1C16190C000120487700BD5E
:105220000220487700BD0320487700BD042048775E
:1052300000BD0F20487700BD1020487700BD0E202C
:10524000487700BD0520487700BD0620487700BD9F
:105250000720487700BD00001C04002070B5012520
:105260000400ED074C4020D4441A01D2001B091958
:10527000C60D4B00F2B2FF2A29D01B0E2CD0000223
:105280000C02D31A2C43DC402843051910D2280AFB
:1052900002D3401C6D0611D0761EF6058019FF2A38
:1052A00000DA70BDC00DC00570BD694000F0DCF8CB
:1052B00001200543C541521C761CE8E764089C4068
:1052C000C90161408900E7D10124A043E4E71B0E36
:1052D000440200D0034870BD002AFCD1C00FC007B3
:1052E00070BD00BF0000C07F01230200DB050A4340
:1052F0000DD4DA4203D49A4207D488427047D84288
:1053000014D4D94212D48842704780427047DA429E
:1053100003D59A42F9D5814270475B004200DA42D8
:1053200004D24A00DA4201D28142704710B5024AE3
:10533000FBF7BCFC10BD00BF0900160470B54200AD
:1053400064414B005C41120E39D01B0E38D0FF2A4D
:105350003CD0FF2B3AD040024902400A490A0600DD
:1053600045184E43000A090AD2184843ED017F3A16
:105370000104731A4019190C4318990F04D0012124
:105380005B0849075B1A521CD80904D3401CF5037B
:1053900001D19D0607D0FF2A08D2D50506D0E40723
:1053A0002043401970BD0125A843F4E7002A01DC21
:1053B000E00770BD2402FF202043C00570BD1B0E16
:1053C000FF2A03D0FF2B01D0E00770BDFF26450068
:1053D0003606B54206D84D00B54203D8D218FF2A8A
:1053E00000D0E7E7004870BD0000C07F01230A003D
:1053F000DB0502430DD4DA4203D49A4207D481423A
:105400007047D94214D4D84212D48142704789429D
:105410007047DA4203D59A42F9D5884270475B005B
:105420004A00DA4204D24200DA4201D2884270478E
:105430004840414010B5024A4840FBF737FC10BDD8
:105440000900160470B50125ED07684004004C40C2
:1054500002D5694000F008F8FFF706FF70B5012596
:105460000400ED074C4022D4441A02D26C40001BC9
:105470000919C60D4B00F2B2FF2A4BD01B0E50D0BB
:1054800000020C02D31A2C43DC40A843051B05D5AF
:10549000AD0019D36D08761E521E37D0F605280AC6
:1054A00001D2801970BD70416D0603D070BD694096
:1054B000FFF7DAFE9C4009026140490001D0401E1E
:1054C00070BD0124A04370BD6D081DD001202B0CC0
:1054D00001D12D0410302B0E01D12D0208302B0FDD
:1054E00001D12D01001DAB0F01D1AD00801CEB0FD0
:1054F00001D16D00401C6D00361A121A680AF505BC
:105500004019012A02DB70BD002070BDC036300A90
:10551000C00770BD1B0E440201D1FF2B00D1024811
:1055200070BD002AF0D070BD0000C07F1C0FFF1FAF
:10553000300FFF1F440FFF1F580FFF1F6C0FFF1F7F
:105540001C0FFF1F1C0FFF1F1C0FFF1F00093D003A
:1055500000127A000024F4004086510100366E01EA
:10556000000000000000000000000000000000003B
:10557000000000000000000000000000000000002B
:105580000100000002000000030000000400000011
:1055900006000000070000000800000009000000ED
:1055A00000093D0000127A000024F40040865101F9
:1055B00000366E0100093D0000093D0000093D0074
:1055C0008182838485868788898B8C8D8E8F91924A
:1055D00093959697999A9C9D9FA0A2A3A5A7A8AAE8
:1055E000ACAEB0B2B3B5B7B9BCBEC0C2C5C7C9CC0A
:1055F000CED1D4D7D9DCDFE2E6E9ECF0F3F7FAFE5E
:10560000205600080000002044040000120E00088C
:105610001457000844040020240600000401000878
:1056200001CC3204D2010011183F065B4F666D7D3C
:10563000077F6F777C395E7971CB803E04812BC008
:105640004154136C051C20040104315A7C0C593858
:1056500002103F580C9A99193ECDCC4C3E9A99991C
:10566000085A1950492C1914223D9B48437C69441F
:105670002A40B10910181A80182904012E022301AA
:105680003A902518092C09270527052C090A400CF2
:10569000082C094C0A4C0A2C092C082FBF0D6E0F40
:1056A0005910046599146E0F2920880BBF0D3F0C0B
:1056B000BF0D59103F0C143AE9048559104C0A2BC0
:1056C0005910021C6E0FE9186B6E0F400914560931
:1056D0001458299C4956292E88095A125A1299148D
:1056E0005910602D6E0FBF0D4E2936A119C019C873
:1056F000494449D22BE90A222984296229AA29E2AC
:10570000C91CD104B5366E0112F012081AF8041A39
:04571000FF04016B26
:04000005080000C12E
:00000001FF
