:020000040800F2
:10000000B00A002081010008693B0008DD360008C5
:1000100000000000000000000000000000000000E0
:10002000000000000000000000000000B33B0008DA
:100030000000000000000000B13B0008B53B0008D4
:100040009301000893010008930100089301000840
:10005000930100089301000893010008C5230008DC
:100060000000000093010008930100080000000058
:1000700093010008930100089301000800000000AC
:10008000930100089301000800000000930100089C
:10009000000000009301000893010008930100088C
:1000A0000000000093010008000000006D3E000801
:1000B00093010008000000000000000000000000A4
:1000C00000F002F800F030F80CA030C8083824180E
:1000D0002D18A246671EAB4654465D46AC4201D180
:1000E00000F022F87E460F3E0FCCB6460126334282
:1000F00000D0FB1AA246AB46334318479C58000079
:10010000BC5800000023002400250026103A01D32B
:1001100078C1FBD8520700D330C100D50B607047BF
:100120001FB51FBD10B510BD00F012FE1146FFF740
:10013000F7FF00F099FE00F02AFE03B4FFF7F2FF8C
:1001400003BC00F05FFE000070B505460C46164685
:1001500002E00FCC0FC5103E102EFAD2082E02D3AB
:1001600003CC03C5083E042E07D301CC01C5361FBE
:1001700003E021782970641C6D1C761EF9D270BDD5
:100180000748804707480047FEE7FEE7FEE7FEE72F
:10019000FEE7FEE704480549034A054B70470000A7
:1001A000C13B0008C1000008B0060020B00A0020D2
:1001B000B0060020034610B50B439B070FD1042A5D
:1001C0000DD308C810C9121FA342F8D018BA21BA1B
:1001D000884201D9012010BD0020C04310BD002A73
:1001E00003D0D30703D0521C07E0002010BD0378D2
:1001F0000C78401C491C1B1B07D103780C78401C51
:10020000491C1B1B01D1921EF1D1184610BD01E003
:1002100004C0091F0429FBD28B0701D50280801C72
:10022000C90700D00270704700290BD0C30702D065
:100230000270401C491E022904D3830702D50280A4
:10024000801C891EE3E70022EEE70022DFE70022A0
:1002500003098B422CD3030A8B4211D300239C4603
:100260004EE003460B433CD4002243088B4231D37B
:1002700003098B421CD3030A8B4201D394463FE00F
:10028000C3098B4201D3CB01C01A524183098B426F
:1002900001D38B01C01A524143098B4201D34B0158
:1002A000C01A524103098B4201D30B01C01A5241BB
:1002B000C3088B4201D3CB00C01A524183088B4242
:1002C00001D38B00C01A524143088B4201D34B002B
:1002D000C01A5241411A00D201465241104670479D
:1002E0005DE0CA0F00D04942031000D340425340A2
:1002F00000229C4603098B422DD3030A8B4212D362
:10030000FC22890112BA030A8B420CD38901921193
:100310008B4208D3890192118B4204D389013AD0D0
:10032000921100E08909C3098B4201D3CB01C01AA5
:10033000524183098B4201D38B01C01A52414309B8
:100340008B4201D34B01C01A524103098B4201D3A6
:100350000B01C01A5241C3088B4201D3CB00C01A13
:10036000524183088B4201D38B00C01A5241D9D22B
:1003700043088B4201D34B00C01A5241411A00D2AC
:100380000146634652415B10104601D34042002BA8
:1003900000D54942704763465B1000D3404201B527
:1003A0000020C046C04602BD70477047704700003D
:1003B0000246C80FC00781434B0030B54B405B007D
:1003C0009B0D20D01923DB06C91801231B05994278
:1003D00020DB0324A40704251346AB400BD3002BDA
:1003E00004D1EB0613409B00E34204D401246407CC
:1003F000002312195941FF231B0599420BD2C90052
:100400000143500F09E0CB0204D501430803024326
:1004100005D0054830BDFF21C905084330BD084659
:1004200007210905884330BD0000C07FF0B50C46A8
:10043000871A9C410D46861A9D4103D2C01BA141DB
:10044000D21963410D0D1F0DC94EEC1BAE435CD09C
:100450007F057F0D0026002F51D02D05AC46A94306
:10046000DD020123ED0A1B051D4320231B1B24D4A1
:100470001746E740381871412F46E740CC199D4098
:100480002818314661410C0D27D161449A4013D59B
:100490000023401C594152000ED140084000012267
:1004A0004B005205D34207D305204007C14201D576
:1004B000B04900E0B0493046F0BD6B00002A00D0E2
:1004C00001229A181F23203C1B1B01D5002302E0A8
:1004D000E540281871410C0DD7D0012424050919D5
:1004E000C407CD0740084908E40F28436144002CA5
:1004F000D5D00024401C61419A40D0D1CDE76A0597
:10050000520DD9D1C90FC907D5E79C4D4E0000281F
:1005100001D0012400E0002434195F00002A01D03A
:10052000012600E00026BE19954FAC420CD8AE4221
:100530000AD8B44206D001256D05EC42BCD0104665
:100540001946F0BD9942FCD000203946F0BDF0B507
:100550001FB40C460F46811A9F412546861A9D41BD
:1005600006D20125ED076F40401ABC4152187B416D
:10057000210D1E0D8D1BAC467D4D8D437ED0750526
:100580006D0D7CD00D05AE46AC431B031B0B794DA6
:1005900052429D41202366469B1B14D31746F740C9
:1005A000381800260090744160462F460741E41930
:1005B00000989D402818664116D4714671189A40DB
:1005C00025D5012320E093182A466A415200002BCA
:1005D00000D0521C1E23203E9B1B002B61DD3541A9
:1005E000EE1728186641E8D5001876415B1C9A4042
:1005F00000D3401C4B05F3181524E34010D3002B07
:1006000052D071467118D30FC01802D3491C05B0DF
:10061000F0BD0123DB079A42F9D140084000F6E71C
:1006200001225205B21801D1002853D00123CC0A6F
:10063000DB029943891E002A08D1020C03D0020C68
:100640000004103902E00246002020390023550B37
:1006500005D112020823550B01D152010D23550C6F
:1006600001D112011B1DD50C01D192009B1C150D4F
:1006700001D152005B1C2025EE1A01E02CE022E0A3
:100680000546F54015439840CA1AE1076918130555
:10069000C918002ABBDA032040070818C10FC90790
:1006A0000FE071466118B2E7F10740080843711086
:1006B00071444A000CD001235B059A42A7D2C90FAE
:1006C000C9070020A3E74905490D26D1002001E014
:1006D0000028F4D100219AE7284D6600002801D0B7
:1006E000012100E0002171185F00002A01D00126DD
:1006F00000E00026BE19224FA94210D8AE420ED803
:10070000B14208D001256D05E94206D01946A8027C
:10071000414010467BE79C4201D0214677E700200C
:10072000394674E710B50C465C4005D50124E40752
:100730006340FFF70CFF10BDFFF778FE10BD30B42B
:100740000C465C4004D50124E407634030BC6DE6F0
:1007500030BCFCE670B50124E40761400D465D4005
:1007600002D4FFF763FE70BD6340FFF7F0FE70BD7B
:10077000FF0700000000F0FF0000F07F0000E0FF36
:100780000000F87F1F22030C02D10F22000402D0C8
:10079000030E03D004E00020014670470002083A2F
:1007A000030F01D10001121F830F01D18000921E9F
:1007B000002801DB4000521E120551184205C012EC
:1007C000411810467047C10FC90700D040420122AE
:1007D00092071143D6E701218907D3E7F0B58B4C87
:1007E0000F09254689B0BD437BD01D092646AE437F
:1007F000FAD00E465E402740F60F3E43254071D0AA
:1008000024012142FBD0FF24AD19A4042D1B039524
:1008100001252D05DB02DB0AC9022B43C90A294346
:100820001E010901040F130F050121431701880B55
:10083000820391432D098C46A90B1E438A039543DD
:10084000B30B9A0396433F09BA0B9403A74302964E
:100850002E467E430497B6464E19D7190C4601968C
:10086000544305977E43371B7646BF1B3601B64679
:10087000BE0B361900967646BC043719009C01D38E
:10088000641C00946400002F01D001263443029EB2
:10089000049F754366467E430496760034196E00C5
:1008A00034190094029C019E1C196643751BAE46C8
:1008B000069465464519059C05956C435943754654
:1008C0000891691A0191049E01465143A41B0491A9
:1008D000611A009C0791E10605D0610901221143CC
:1008E00002E072E06EE06109089D00272C0A2D06E7
:1008F0006918049D7C412A0A2D066918019D6241F0
:10090000AC0DAD026D185441079A910D9202551924
:100910006141029A644658435443069B059A5A43E0
:10092000121A131B9A0E9B015B187A41010B0005EA
:10093000C3185141220A200644195A419A4200D252
:10094000491C01204002814203D315230226F643AD
:1009500002E014230326F6432020C51AA9401746B7
:10096000AF40DA400A4320460399D840091473186F
:1009700019055118039A3843D2075140AC4009D0A9
:100980000122944006D30022401C5141002C01D189
:10099000400840001E4A934212D301220398920657
:1009A000904207DB0520400709181A480143C0128E
:1009B000414004E0032040070818C10FC907002088
:1009C00009B0F0BD0020F107FAE705180C464C41CC
:1009D00011486D42A04115D394181A465A410E4849
:1009E000644290410ED301204A004005824209D35F
:1009F0005A00824206D35940C90F084AC90700204D
:100A00001143DDE700200649DAE700000000FF0798
:100A1000FE070000FFFFFF7F0000E0FF0000F07F07
:100A20000000F87F0121C9050123411842001B067F
:100A3000D3185B0E0AD0C1100722D20689184007CE
:100A40005242D14201D5520089187047090208D597
:100A50000146002A03D0C10FC90700207047104685
:100A60007047420202D00020024970470721090561
:100A70000143F4E70000F87FF0B5FF252D04C60917
:100A8000C209FF2704462E400137CB093E434840A8
:100A90002A402B400746002A6BD0002B69D0AA427F
:100AA00067D0AB4265D0002800DA32460125ED055B
:100AB00029432C4309022002090AD21A4B0C7F2435
:100AC000E31A434C000A7C44E35C7D24240412199D
:100AD00014145B00A218884201D3521C00E04000AD
:100AE00049420C465C4324115C43DB016415E31866
:100AF000040A5C43C502200D0C4644436419250AD0
:100B00005D432303EC0C0D46654300030019EB180D
:100B10004C42A34201D35B18401CD4052018002B83
:100B200007D05B00C91804D3401C002901D140083C
:100B300040003F2189048A4209D3002A08DC1106BB
:100B4000090F04D0032149074018C00FC007F0BDAA
:100B500001224100120689187F2252069142F6D2E4
:100B600005214907C84201D59010F0BDFF20C005FE
:100B7000F0BD002F00DA32461648AA4207D2AB4237
:100B800005D21902090E17D0F80FC007F0BDFF25D6
:100B900063002D06AB42F9D84900A942F6D8AB4212
:100BA00001D1A942F2D0A94201D1002101E06100A6
:100BB0004908D0050843F0BD1102090EFBD0FF2003
:100BC0000243D005F0BD0A460146104654E7000036
:100BD0008E4E00000000C07F0102C21504D0012328
:100BE000DB071943002A0ADB9E239A1A02D408461F
:100BF000D0407047FF2241001206914201D90020E7
:100C00007047C017C04370471F22030C02D10F2248
:100C100000041CD0030E01D10002083A030F01D1D9
:100C20000001121F830F01D18000921E002801DBFA
:100C30004000521ED205511802125118192290403C
:100C400004D3491C002801D14908490008467047CF
:100C5000C10FC90700D04042012292071143D3E7D8
:100C600001218907D0E7000010B5FF22C30D134012
:100C700009D05A4007D0914205DA5C42A14202DD18
:100C8000C905081810BDC40FE407002B06D0002AC0
:100C900006D0002902DBFF20C0050443204610BD1A
:100CA0004102FCD0004810BD0000C07F10B5FF23FA
:100CB0001B0644009C421DD84C009C421AD8034697
:100CC000124A0B4307D4401A02D3EFF3008010BD41
:100CD000EFF3008010BD081A06D2EFF30080012167
:100CE0009043C907084302E0EFF30080904380F38C
:100CF000008810BD0D231B041A4204D011460020A9
:100D000000F006F810BD00F01BF810BD00000090C8
:100D1000C80212D54803400F002804D0C803C043BE
:100D2000012188407047EFF3008000010009032192
:100D30000907084380F300887047002070470000CF
:100D400010B5024800F02BF810BD00000000C07F75
:100D5000754600F053F8AE46050069465346C00894
:100D6000C000854618B020B5FFF714FA60BC002714
:100D70004908B6460026C0C5C0C5C0C5C0C5C0C567
:100D8000C0C5C0C5C0C5403D49008D46704710B5BF
:100D90000446C046C0462046FFF7CFF910BD10B547
:100DA0000C461107090F092904D00A290AD008297D
:100DB0000CD104E011460820FFF7AAFF06E0510617
:100DC00006D501E0510601D50120C007214610BD1E
:100DD000D10607D501010909CC084907000E000614
:100DE000044309E0410F20024907000A0143200E95
:100DF00000061D22D14101430846E7E7004870473D
:100E00004C06002001491820ABBEFEE72600020078
:100E1000704770B58C180578401C6B075B0F01D1CB
:100E20000378401C2A1106D10278401C03E00678A2
:100E3000401C0E70491C5B1EF9D12B0705D4002302
:100E4000521E0DD40B70491CFAE70378401CCB1AD4
:100E5000921C03E01D780D70491C5B1C521EF9D5D5
:100E6000A142D8D3002070BD10B50122D2060020C7
:100E7000074B810054585C50401CC0B23028F8D356
:100E8000012004494007886004F0F8F8002010BDF4
:100E90000000002000ED00E008B50021009101688D
:100EA0008A68D243D2071ED08A68104B1A400123A9
:100EB000002A08D0816B102211438163C16B194352
:100EC000C163012008BD8868184388600948084943
:100ED0000068FFF7BCF9009002E00098401E009007
:100EE00000980028F9D1002008BD000015000080FE
:100EF00040420F0048030020F0B5002314E09A00A0
:100F00008458944627461E465A1C06E095004559CB
:100F1000A54201DA2C461646521C8A42F6DBB20084
:100F20008750624684505B1C8B42E8DBF0BD0000BA
:100F300070B501F0A7F90121002002F00FFD012199
:100F4000084602F00BFD0121022002F007FD0121FD
:100F5000032002F003FD0021062002F0FFFC002127
:100F6000052002F0FBFC002002F0A8FD264CE51F46
:100F7000FD3D264802F07CF8E079030002F08AFF8C
:100F80000822050A0F22221E142201210F2002F03E
:100F900035FD17E00121022002F030FD12E00121B1
:100FA000002002F02BFD0DE00121032002F026FDC0
:100FB00000F094FBE079002824D003E001210846EA
:100FC00002F01CFD00F0D4FE2878002806D1002293
:100FD0001146102000F09AFD01202870FF26F536FA
:100FE000304601F0EBFD0021084602F007FD00F05D
:100FF000BFFE304601F0E2FD00221146102000F055
:1010000085FDB6E770BD000050040020800500207B
:1010100001B582B0012301AA02A9024803F0BEFF74
:1010200001980EBD2C01002070B5104CA56820461B
:101030008038006E0E49FFF71FFD06460D48294611
:1010400000690546FFF718FD314604F043FB2946C9
:1010500004F040FB084904F03DFBE179002901D090
:10106000002070BD002100F06DF870BD500400201C
:1010700000401C461801002048E17A3FF0B585B0D9
:10108000294C2168039104F0B5FB0746780040081D
:101090002546583DE9680E4604F0ACFB234904F0B0
:1010A00019FB314604F0A6FAE8602149FFF7E4FC99
:1010B00005467F26F605B54200DD35461D49284622
:1010C00004F008FB1C4904F095FAE06002901B490B
:1010D000284604F0FFFA1A4904F08CFA054620610C
:1010E0006068029904F086FA01902946019804F09C
:1010F00081FA01460198FFF7BFFC60610090394614
:10110000009804F0E7FA039904F074FA05462060A9
:101110003046009904F06EFB019904F0DBFA606040
:10112000A760284605B0F0BD70010020CDCC4C3D35
:1011300000F07F453E0A973F0AD7A33C0000434397
:101140000000A040F3B581B0164C1549E160164E81
:101150002661606804F04EFA05463146284604F0E0
:1011600049FA01462846FFF787FC06466061276872
:101170000198394604F03EFB314604F0ABFA39469B
:1011800004F038FA074620607F203146C00504F09D
:1011900031FB294604F09EFA60603846FEBD00002F
:1011A000CDCC4C3E880100200000404070B5FFF7D8
:1011B00057FD06460D4904F08DFA0446304603F00B
:1011C000E7FF0B4904F086FA0546304603F0E5FFD9
:1011D000084904F07FFA294604F00CFA214604F08D
:1011E00009FA054904F006FA70BD0000D26F1FBE6F
:1011F000B67A7338E46A0FB2CD4C544370B51048D8
:10120000C56CC06E0F49884203DD3F242406214689
:1012100001E00D4C0D4904F05DFA064621462846D2
:1012200004F058FA314604F0E5F90446084D2C6103
:1012300008492046FFF720FCE860204670BD00000A
:101240005003002000004843CDCC4C3FCDCC4C3E59
:10125000500400200000C04110B50C480C4CC1796E
:10126000207905290BD109498039096A002906D05E
:10127000012803D000F006FC0120207110BD0228D7
:10128000FCD000F0DDFB0220207110BD50040020D6
:1012900014030020F8B500F097F80546464C474F78
:1012A000E079072804D0022802D0002803D00CE0FF
:1012B00000203863F8BD00F0EDF8A06100F0B0F850
:1012C000A169884201D2002038633B4EE079803E1C
:1012D000002810D1F068FFF7C3FC31468039096F50
:1012E00004F088FA009000F01BF9009904F0C8F9A6
:1012F00001D200203863B878002802D1FD620120B5
:10130000B870F86A854201D3281A00E0401B012119
:10131000890288422FD8716A7D20C0004143386B12
:10132000814201D9FA303863706A7D21C90048438F
:10133000396B8842BED87878002814D10420E07137
:10134000012102F00BFB03F061FC0022114610208A
:1013500000F0DCFB2079002803D10121062002F0F7
:10136000FDFA012078701648006816498842A1DA13
:101370000520E071F8BD002038637978002919D084
:101380007870E07100221146102000F0BFFB0021B0
:10139000042002F0E3FA207900280BD1B06A00287B
:1013A00004D00021062002F0D9FA03E00121062032
:1013B00002F0D4FAFD62F8BD5004002014030020AE
:1013C000500300200000C84270B5072000F086FAE4
:1013D00010494862104C2178002914D0FFF740FCD6
:1013E000A1680D4604F006FA0C4904F073F9294689
:1013F00004F000F9A0603F210906A06804F0FAF8A3
:10140000FFF7EAFB70BDFFF72BFCA0600120207006
:10141000F1E700005003002014030020AF3AE13E42
:10142000F8B51A4C1A48C068FFF71AFC0090E1683A
:10143000009804F025F903D86069FFF7CDFBF8BDEB
:101440002169009804F09EF903D8A069FFF7C4FB56
:10145000F8BDE16820690E4604F0CCF961690546E3
:101460000F46A06904F0C6F904463146009804F01E
:10147000C1F9214604F02EF92946FFF7FDFA394655
:1014800004F0B8F8FFF7A8FBF8BD00001403002033
:10149000D0030020F8B51E4802691E4800901E487F
:1014A0001E4EC178002906D18B00F250491C032939
:1014B000FADB0121C17034681046214604F09AF924
:1014C000009904F007F9214604F094F830600124F3
:1014D000A5007759601E80003058394604F08AF91B
:1014E000009904F0F7F8394604F084F87051641C50
:1014F000032CEDDBB068FF21C905C84201D30020F1
:10150000F8BD3F21090604F075F8FFF765FBF8BD4B
:1015100050040020ABAAAA3E14030020FC050020C2
:10152000F8B5174C1748C068FFF79AFB0090E169BF
:10153000009804F0A5F801D8606AF8BD216A009807
:1015400004F020F901D8A06AF8BDE169206A0E46CE
:1015500004F050F9616A05460F46A06A04F04AF9A2
:1015600004463146009804F045F9214604F0B2F8EB
:101570002946FFF781FA394604F03CF8F8BD00002F
:1015800014030020D003002010B50C49C8790028AE
:1015900006D0022804D0072801D100F09FF810BD22
:1015A00007480068074A9042F9DB0720C87100220B
:1015B00011460F2000F0AAFA10BD000050040020D0
:1015C000500300200000164470B50A4D68682C4690
:1015D0008034E16888420CD0074E3078401CC0B29D
:1015E0003070032805D900F005FDE0686860002030
:1015F000307070BD50030020B8010020F0B585B0F8
:101600002F497F262F4DF605884203DD28606E6046
:1016100005B0F0BD2968049104F0ECF807467800A5
:101620004008284C2C3CA168039104F0E3F82649BB
:1016300004F050F8039903F0DDFFA0602349FFF7A1
:101640001BFA0446B44200DD3446FF20C005C44204
:1016500000D300241E49204604F03CF81D4903F045
:10166000C9FFE86002901C49204604F033F83F218E
:10167000090603F0BFFF044628616868029903F079
:10168000B9FF01902146019803F0B4FF014601988B
:10169000FFF7F2F9044668613946204604F01AF86B
:1016A000049903F0A7FF286000902146304604F01B
:1016B000A1F8019904F00EF86860AF600098A7E700
:1016C0000000164444010020CDCC4C3D0000704287
:1016D00014AE9F400AD7233C00001841FEB50025F8
:1016E000009501950295002402F0E4FE002855D0F3
:1016F000732804D0D22806D0F5280BD107E0009833
:10170000401C009006E00198401C019002E0029805
:10171000401C0290641C0A2CE6DB0321684603F09F
:1017200081FC4C4E012804D0022805D0032808D1A2
:1017300005E07320F07104E0D220F07101E0F520A3
:10174000F07100F09FFDF17905242407732926D05C
:10175000D22924D001222021204601F050FC02F0A1
:1017600065FE00228021204601F049FC0022202154
:10177000204601F044FC374C203CE571E01FF9386D
:10178000C06AFFF729FAFF21373188420DD90220BC
:10179000E071002211460F2000F0B8F9FEBD0122D1
:1017A0008021204601F02BFCD9E7782802D20720BF
:1017B000E071FEBD2748F1790F221423A038732968
:1017C0001CD0D22930D0F529F3D12349C163056457
:1017D00045642249816505652149C1667D2109016C
:1017E00001672D214167192181670A21C1671D48C1
:1017F000A0601D48606100F01FFDFEBD1B49C16374
:101800001B49016445641B49816505656421C16606
:101810009621016743678267C3671748A06017482E
:10182000606100F0E5FCFEBD1549C1631549016426
:101830004564154981650565C821C166016743672F
:101840008267C2671148A0601148606100F0D0FC57
:10185000FEBD0000700400200000C84200803B452F
:101860006C0700003333F340000010410000F040EB
:10187000CDCCCC3D00803B4433334340000090400E
:10188000000070419A99193E00A00C45666606401A
:101890000000C04010B5FFF7E3F9024903F01AFF5A
:1018A00010BD0000510AA53D10B5052001220821F8
:1018B000000701F0A4FB00F02BFA074C01220221E3
:1018C000204601F09CFB01221146204601F097FBC7
:1018D00000F01EFA10BD00000014005010B51349AE
:1018E0000A68824212D00860114A002191621149AF
:1018F00092144A60086008460C3000F0DBFE0028B5
:1019000004D00D480121C171FFF712FB09480C30CA
:1019100001F0C4F807480A210C3001F05FF80548CF
:101920000C3000F053FF80B210BD0000C00000205A
:10193000002401407C04002050040020F8B51F4919
:101940000A6B0120000502430A630A6B82430A63A3
:101950001A4940310A6802430A600968014000914F
:10196000184C174F2760204600F07CFE164D0126CC
:10197000002802D0EE71FFF7DBFA27600320000792
:1019800060600020A060E06026610421616126762D
:101990006076A076FF21C231E161206209492031E1
:1019A0000871A0620620E062064800F013FF0028DC
:1019B00002D0EE71FFF7BCFAF8BD00000010024043
:1019C00000240140880400205004002000B585B0A8
:1019D0009720009000200290032001900520694686
:1019E000000701F07BFA05B000BD000010B504212E
:1019F000044801F0FDFA002801D0002010BD0120AC
:101A000010BD00000014005000B587B00A48426BBA
:101A100020210A434263406B084001900420029059
:101A200001200490032005900020039002A90348A0
:101A300001F054FA07B000BD00100240001400503D
:101A400010B586B00D48426B02210A434263406BD9
:101A50000840009020200190012002900020039077
:101A60000491074C01A9204601F038FA01222021F7
:101A7000204601F0C4FA06B010BD0000001002407C
:101A80000004005000B587B00D494A6B02200243A4
:101A90004A63496B0140019120210291039000218A
:101AA000049105900120069002A9064801F016FA5B
:101AB00000F088FB7D200449C000886307B000BDAA
:101AC00000100240000400500004004010B586B031
:101AD0000D48426B01210A434263406B084000906D
:101AE00040200190029100200390022004900524E0
:101AF000240701A9204601F0F1F9002240212046E7
:101B000001F07DFA06B010BD00100240F8B50F4696
:101B10003B4D6969002920D02946A0314978002928
:101B20001BD12C46374E8034002A0CD0030002F023
:101B3000B1F9111415191D215A5E621414141414EC
:101B40001456252914000F2803D0102003F022FD7D
:101B500002E00F2003F01EFD6684F8BD012003F0B3
:101B600019FDF8BD022003F015FDF8BD032003F0B8
:101B700011FDF8BD042003F00DFDF8BD0F2003F0AA
:101B800009FDF8BD102003F005FD002F08D0E8681E
:101B9000FF2200B2C332642103F05AFA6084F8BD18
:101BA0002079002809D005202056030002F072F9A0
:101BB0000604070A0D101404F1E76684F8BD124804
:101BC0006084F8BD11486084F8BD11486084F8BD98
:101BD0000F489D306084F8BD0E486084F8BD0E202B
:101BE00003F0D8FCF8BD052003F0D4FCF8BD0620B6
:101BF00003F0D0FCF8BD072003F0CCFCF8BD0000DA
:101C0000D00300206E0F00002C0800002C090000FB
:101C10004C0A00003F0C000030B587B01948416BFA
:101C2000012319434163416B19400191426B20210B
:101C30000A434263406B08400190082002900393DE
:101C400000200490022005900524240702A92046C4
:101C500001F044F9032102910B4D02A9284601F03D
:101C60003DF901221146284601F0C9F9012202215D
:101C7000284601F0C4F901220821204601F0BFF9ED
:101C800007B030BD001002400014005010B50648E7
:101C900000F00CF80448503000F008F80248401DED
:101CA00000F004F810BD00000208000070B5044602
:101CB000052000220821000701F0A1F900F028F812
:101CC0000025124E00220221304601F098F920052D
:101CD00005D501221146304601F091F904E00022B9
:101CE0000121304601F08BF900F012F801220221A7
:101CF000304601F084F900F00BF864006D1CEDB281
:101D00000C2DDFD3FFF7D0FD70BD00000014005094
:101D1000002000BF401CC0B20A28FAD37047000060
:101D200070B504460025114E00220221304601F014
:101D300066F9E00505D501221146304601F05FF94C
:101D400004E000220121304601F059F9FFF7E0FFDD
:101D500001220221304601F052F9FFF7D9FF640059
:101D60006D1CEDB2092DDFD370BD000000140050D2
:101D700010B5052000220821000701F040F9FFF707
:101D8000C7FFEFF3108472B6FF204A30FFF7C8FF99
:101D900000F006F8FFF788FD84F3108810BD0000FE
:101DA000F8B50026144F1548855D00240022022155
:101DB000384601F024F9E80705D0012211463846DB
:101DC00001F01DF904E000220121384601F017F965
:101DD000FFF79EFF01220221384601F010F9FFF7BC
:101DE00097FF6D08641CE4B2042CDFD3761CF6B2B6
:101DF0000E2ED8D3F8BD000000140050700500204E
:101E000010B586B01248426B01210A434263406B11
:101E100008400090802001900391002004900290DF
:101E20000C4C01A9204601F059F80B4902914021C0
:101E3000019101A9204601F051F8072001F058F95D
:101E400000221146072001F05DF906B010BD000028
:101E5000001002400004005000002110F8B50646B2
:101E60000024064D01273059401C02D0EF71FFF7C6
:101E70005FF8241D282CF6D3F8BD00005004002084
:101E800010B586B004460021059114216846FEF77E
:101E9000DCF90221009101940124029405A968460D
:101EA00000F09EFE002803D00248C471FFF740F8FE
:101EB00006B010BD50040020F0B5A3B02290164823
:101EC0002190282658202830209000246D461FE0BD
:101ED000002021990A19431E81000F19B74202D22E
:101EE00057586F5000E06B50401C2028F4D32298C4
:101EF0006A460119012000F057FF002807D0064864
:101F000001217830C171FFF713F823B0F0BD8034A0
:101F100020988442DCD3F8E7D803002070B5064649
:101F20000024084D3046FFF7C7FF282229463046D7
:101F3000FEF740F9002803D0641CE4B2022CF1D370
:101F400070BD0000D80300202849274A8A604268F3
:101F5000CA60CA680B46803B5A60C2684A618268A0
:101F60000A6102698A614269CA6182690A62C26958
:101F70004A62426ACA62006A8862C868FF222D32D9
:101F8000642804D3C868FF23C333984200D9CA60C9
:101F900008693223D84202DB0869322801DD0020BB
:101FA0000861486A124B984202D8486A3C2801D21C
:101FB0003C204862C869042801D90120C8618869A9
:101FC000002809D0C869012807D0022807D00328B3
:101FD00002D1FF209130C8607047CA607047FF206F
:101FE0005F30C86070470000ACACACACD0030020E0
:101FF000E703000010B50748C16A491CC1620648E2
:1020000000F010F8054800F00DF8054800F00AF857
:1020100010BD0000D003002000F0000800F8000808
:1020200000FF000870B50546EFF3108472B609484A
:1020300001F01EF800F03EFF2846FFF721FF28467A
:10204000FFF70CFF2846FFF769FF00F09FFE84F3BF
:10205000108870BD8005002010B5EFF3108472B6B3
:10206000034801F005F800F005F884F3108810BD6E
:102070008005002070B51B4C1B4B206B01689942FA
:1020800007D1616B0A689A4203D1A26B15689D4221
:1020900011D0A360FF202D30E0600121616100209C
:1020A0002061A061E16120623C216162A062E06286
:1020B000FFF7A0FF70BD526A496A406A02F088FCCF
:1020C000002807D0012809D00228F3D1A06BFFF720
:1020D0003BFF70BD206BFFF737FF70BD606BFFF7F4
:1020E00033FF70BDD0030020ACACACAC10B50B48D6
:1020F000016A0124214301620A4809490160032160
:102100004160FF210901816000F086FF002803D0B3
:102110000548C471FEF70CFF10BD000040100240DE
:1021200000300040800500205004002010B5002041
:10213000224AFF211154401CC0B20E28FAD3204C71
:10214000A06900281FD0E069012804D002280AD025
:1021500003281CD10FE0FF202D30E060E06880B242
:1021600001F0ACFC13E0FF205F30E060E06880B27B
:1021700001F0A4FC0BE0FF209130E060E06880B249
:1021800001F09CFC03E0E06880B201F097FC0121C3
:10219000002001F087FC0A480121803041710021B4
:1021A000042001F0DBFBA06A002803D000210620F8
:1021B00001F0D4FBFFF7DCFD10BD0000700500202E
:1021C000D003002010B500F0B7F800F0DFF80421CC
:1021D000054801F045FA002804D004480121C171E6
:1021E000FEF7A6FE10BD00001405002050040020DC
:1021F00030B587B00E48416B012529434163406BE0
:102200002840019080200290022003900021049138
:1022100005900695052002A9000700F05FFE054C19
:102220002079002802D1FFF7CDFF257107B030BD1E
:10223000001002407004002030B587B00F48416B99
:10224000012529434163406B2840019020200290E2
:10225000022003900021049105900D200690052096
:1022600002A9000700F03AFE054C2079002802D1AF
:10227000FFF7A8FF257107B030BD00000010024035
:102280007004002010B586B00D48426B01210A434E
:102290004263406B08400090202001900291002092
:1022A0000390022004900524240701A9204600F091
:1022B00015FE00222021204600F0A1FE06B010BD30
:1022C000001002400149886370470000000400408C
:1022D00070B58CB005461C2105A8FDF7B6FF00249B
:1022E00001940294039404940B200590FF20013084
:1022F000089009940A9506940C20079001260B96E5
:1023000005A800F0E5FF0B4D002802D0EE71FEF7A6
:102310000FFE07200190029403940494002101A869
:1023200000F0F4FE002802D0EE71FEF701FE0CB0C2
:1023300070BD00005004002008B50F48C26B022198
:102340000A43C263C06B084000900D480B4901600E
:102350000C49C1600521416000210161816041613A
:10236000816101F0F1F8002804D007480121C17112
:10237000FEF7DEFD08BD0000001002400004004032
:1023800014050020102700005004002010B50B4851
:1023900060210160002181600161C1608161416152
:1023A000416001460422403801F0EAF8002804D0D8
:1023B00003480121C171FEF7BBFD10BD540500208B
:1023C00050040020F8B5194E3068194D6968401A5C
:1023D000322803D217494020C860F8BD164C0120AE
:1023E00020708021154800F003FE07464021134865
:1023F00000F0FEFD874201D1012000E0002032689C
:102400006968521A322A00D928702A78904205D079
:102410003368591A322901D8627001E0607028705F
:102420003068686003494020C860F8BDD4000020CF
:10243000C400002000180240500400200004005096
:10244000F8B5194C194F6278510078520521501C8B
:10245000FDF7FDFE61700E460025002430190521B0
:10246000FDF7F5FE4800385AFEF7FAFB0E49A200C8
:102470004431895803F02EF9294603F0BBF805468C
:10248000641CE4B2052CE9D3FF20C005C54201D38A
:102490000020F8BD0648854201DD0648F8BD284603
:1024A000FEF79AFB80B2F8BD18010020D805002085
:1024B00000F07F45FF0F00000549002048600548F7
:1024C00041690422114341610348C1060860704715
:1024D0008C0500200020024021433412054A0021CF
:1024E000516005494A6902231A434A61FF2101608C
:1024F000704700008C0500200020024070B50022CB
:102500000C4C636901252B436361EFF3108372B6B2
:102510000125ED0408E040C940C0521CD2B21F2A78
:1025200002D166692E436661202AF4D383F31088B2
:1025300070BD00000020024003494A69CB141A43D1
:102540004A61FF21016070470020024070B50446D7
:1025500000F05CFD0419084D05E000F057FDA042B5
:1025600001D3032070BD2869C043C003F5D50348DB
:102570002861002070BD0000002002401180000092
:1025800010B501F0CDFA02F0AFFD80B2FEF768FBA6
:10259000FEF774FDFEF720FB80B2FFF751FFFEF758
:1025A0005FFB054903F096F80449FEF765FA044914
:1025B000FEF762FA10BD00003333534000F07F4550
:1025C0000AD7233CFEB5044600200190254620355D
:1025D000287D01281ED00120287520688168C94304
:1025E000C90734D0A16BFF22013291430226314347
:1025F000A163C1688907890F0091C16889088900B2
:10260000C16020688168D2051143816000F0FEFC42
:1026100007460FE00220FEBD00F0F8FCC01B0228B8
:1026200008D9A06B1021B0430843A063002028758F
:102630000120FEBD206880680028EDDB2068C168AD
:10264000009A1143C160A06BB043A06305E0A06B8A
:1026500020210843A06301200190002028750198E3
:10266000FEBD0000F1B58AB00024114D05AE6F46E5
:102670000A98FFF7A7FF002802D001200BB0F0BD99
:10268000A868A100705040027850641C052CEFDB54
:1026900005216846FEF730FC029840122861E86880
:1026A000686168680121C903084368600020E5E7A4
:1026B00040240140F8B50025002200920446203451
:1026C000227D012A39D00123237502689668760796
:1026D0006AD43A4F4E68BE4250D0966A0F78BB40DB
:1026E0001E4396620123C26A1B079A421FD0012A29
:1026F0001DD0022A1BD0032A19D0042A17D0052A7C
:1027000015D0062A13D0072A11D002688B685669A3
:102710007607760FB3420AD05369DB08DB005361BA
:10272000006842690B7A5B075B0F1A4342610868D5
:102730000B2804D00C2802D03BE00220F8BD204B2F
:102740009A680B2807D00120800502439A60086828
:102750000B2803D02DE00120C005F6E71A481949DF
:102760000068FDF774FD0A214843009002E00098DC
:10277000401E009000980028F9D11AE0906A0E7867
:10278000B3409843906208680B2801D00C2810D100
:102790000B498A680B2804D00120800582438A6097
:1027A00007E00120C005F9E7816B20221143816316
:1027B0000125002020752846F8BD0000011000000A
:1027C0000027014040420F00480300200068006CD1
:1027D00070470000F8B504460025002C05D0A06B1A
:1027E00026462036002802D007E00120F8BD002050
:1027F000E0633075204600F0A1F8A06B1022C006FF
:1028000000287DDB20688168490779D4A16B13011A
:10281000994302231943A1638168C943C9070CD0B6
:10282000C16818239943A3681943C16020680169EE
:10283000636809010909194301612068C1683D4BBA
:102840001940C160207EE16880030143607EA36A75
:102850004703012B02D001231B0300E000231F4389
:1028600023693943022B09D00023194333795B00D4
:102870001943A67E0123012E02D00AE00423F4E7C7
:10288000002826D0A06B20263043A063E06B1843BD
:10289000E063E0690646FF3EC23E02D0266A30434E
:1028A00001432068C6680E43C6600126E06A360709
:1028B000B04212D0012810D002280ED003280CD02C
:1028C00004280AD0052808D0062806D0072804D0F6
:1028D0000FE0012000040143DBE720684669F608A9
:1028E000F600466120684669A78D7F077F0F3E434B
:1028F00046612068C068104E3040884209D100E02F
:1029000011E00020E063A06B80088000401CA06301
:102910000DE0A06B022188431043A063E06B1843D5
:10292000E063012503E0A06B1043A0630125284666
:10293000F8BD000019C2FEFFE7FF3FC370B586B0C7
:102940000546142101A8FDF780FC21490A680120F1
:1029500002430A600A68024000921D4A403A936BA3
:1029600003439363936B03400093536B034353639D
:10297000526B024000920B68020513430B6009681A
:10298000114000910190032002900026039605203B
:1029900001A9000700F0A2FA002000F0B5FD0E4CDE
:1029A0000C4820606660A660E660401520618000EB
:1029B00060612020A06103200003E061204600F058
:1029C00099F8204600F0C6F82C63656206B070BD29
:1029D000401002400800024008060020F8B50446F6
:1029E0000D4627466069203708280BD02068C0684C
:1029F000C00709D0A06B20210843A06300203875D0
:102A00000120F8BD082600E00C2600F0FFFA009037
:102A100011E0681C0FD0002D05D000F0F7FA0099E6
:102A2000401AA84207D9A06B04210843A0630020E4
:102A300038750320F8BD206800683042E9D0A06BEB
:102A4000012149020843A0632068C1680C220905DE
:102A5000890F00291AD1617E002917D10168090761
:102A600014D5816801234907002908DB4168914397
:102A70004160A06B190288431843A06306E0A06B75
:102A800020210843A063E06B1843E063207E002808
:102A900001D1206802600020F8BD000070B5044636
:102AA00020688068400720D425462035287D0128ED
:102AB00019D0012028752046FEF7EEF9002811D123
:102AC000A16B0B4A1140FF2201321143A163002187
:102AD000E163297522681C21116021688A6804233A
:102AE0001A438A6070BD022070BD022070BD0000D4
:102AF000FEF1FFFF70B50446002C24D02068016869
:102B0000490849000160206800250560206845608B
:102B1000206885602068C5600C4920684018142131
:102B2000FDF795FB800020640949E16301228240A2
:102B30004A60A562E56225636563A563203465701C
:102B40002570002070BD012070BD0000F8FFFDBFA2
:102B50000000024070B50446002C26D014482568B9
:102B600014212818FDF773FB800020641148E063EE
:102B700002212046203041702A680F490A40A3688C
:102B8000616826691943E36833431943636919434C
:102B9000A3691943E3691943114329600021A16323
:102BA000012242700170002070BD012070BD000044
:102BB000F8FFFDBF000002400FC0FFFF70B50446E4
:102BC00000F024FA0546601C02D00448406824182E
:102BD00000F01CFA401BA042FAD370BDCC000020CC
:102BE000F8B504460E46012563480178012969D0ED
:102BF00001210170614840680004400F60490B6882
:102C00008200604882581068C7B2BC46BB4229D1D6
:102C10004B68C701FF0DBB4224D10B690004000EB5
:102C200083421FD18B685068C7B2BB421AD1CB68B0
:102C30004001400D834215D148699368DB03DB0BEB
:102C400098420FD18869D368DB03DB0B984209D126
:102C5000CB69106987B2BB4204D10B6A8000800C3B
:102C600083421ED0604608601068C001C00D4860F5
:102C700010880004000E08611079886050684001D7
:102C8000400DC8609068C003C00B4861D068C003A5
:102C9000C00B8861108A80B2C86110698000800C06
:102CA00008627D272068FF0004280DD002281CD070
:102CB0000121C90288425AD13846FFF747FC002853
:102CC00036D054E00220F8BD3846FFF73FFC00281C
:102CD0004DD1FFF7F1FB3846FFF738FC05462A498E
:102CE000486904229043486141E07D20C000FFF71D
:102CF0002DFC00283BD1401E3060676811E038464B
:102D0000FFF7ECFB7D20C000FFF720FC05461E48C6
:102D10004169022291434161280001D0376026E0D9
:102D20008037A0686168C0014018B842E7D81EE04B
:102D30000020C0433060E76813E03846FFF7FCFB33
:102D40007D20C000FFF702FC05460F484169C21410
:102D500091434161280001D0376008E00120000361
:102D60003F182069E16800034018B842E5D80248DE
:102D7000002101702846F8BD8C050020001002409B
:102D800000210240C45800080020024001200549EB
:102D90004A69C3071A434A614969002900DA0020D9
:102DA0007047000000200240F7B50F463C4C2078E9
:102DB00001285AD0012020703A4840680004400F92
:102DC00039490D688200394880580268D3B29D4263
:102DD00029D14D68D601F60DB54224D10D691204F2
:102DE000120E95421FD18D684268D6B2B5421AD1F3
:102DF000CD685201520D954215D14A698568ED039F
:102E0000ED0BAA420FD18A69C568ED03ED0BAA420A
:102E100009D1CD69026996B2B54204D10D6A92001A
:102E2000920C95421DD00B600268D201D20D4A600F
:102E300002881204120E0A6102798A604268520105
:102E4000520DCA608268D203D20B4A61C268D203B3
:102E5000D20B8A61028A92B2CA6100698000800C3A
:102E60000862780603D00120FEBD0220FEBD7D254C
:102E7000ED002846FFF76AFB00280DD1384602997D
:102E8000FFF73CFB2846FFF761FB09494A695208F6
:102E900052004A610028E9D100212170FEBD0000E6
:102EA0008C0500200010024000210240C458000898
:102EB00000200240002006494A69002A07DA054A34
:102EC0008A60054A8A604969002900DA0120704752
:102ED0000020024023016745AB89EFCDF0B5002209
:102EE0007CE001249440A4462340002B75D04C681C
:102EF000022C01D0122C0CD1D408A40027183D6A52
:102F00005407E40E0F26A640B5430E69A6402E4393
:102F10003E62066855000324AC40A6430F79BF0704
:102F2000BF0FAF40374307604E68012E05D0022E19
:102F300003D0112E01D0122E0ED18668A643CF6881
:102F4000AF403743876047686646B7430E79F60659
:102F5000F60F96403E434660C668A6438C68AC4078
:102F60003443C4604C68E40037D595081E4CAD006E
:102F70002F193D6E9407E40E0F26A640B543052693
:102F80003607B04201D1002605E0184EB04201D10B
:102F9000012600E00226A6402E43134D3E66124E47
:102FA000803634689C434F68FF0300D51C4334606F
:102FB00074689C434F68BF0300D51C4374602C6841
:102FC0009C434E68F60200D51C432C606C689C4301
:102FD0004E68B60200D51C436C60521C0B681C4640
:102FE000D44000D07DE7F0BD00180240000400503E
:102FF0000069084201D00120704700207047002A74
:1030000001D081617047816270470000014880688B
:1030100070470000CC00002070B50446002C0FD093
:1030200021681048086021680F48086021686068BE
:1030300048602168A0688860FFF7E8FF054608E05F
:10304000012070BDFFF7E2FF401B302801D90320AB
:1030500070BD2068C0680028F4D12168034808606A
:10306000002070BDCCCC000055550000AAAA00007D
:10307000006802490160002070470000AAAA000011
:10308000024881684268891881607047CC0000203E
:1030900010B50024032000F009F8002801D0012415
:1030A00001E000F023F8204610BD000070B5054691
:1030B00000240C4E7068002811D00B4800F02CFA48
:1030C000002801D001240BE0042D06D2002229465D
:1030D000501E00F017F8356002E0012400E00124E2
:1030E000204670BDCC000020C05D0000704700008D
:1030F000C106C90E012088400149086070470000E0
:1031000000E100E010B500F031FD10BDF8B5044657
:103110000D46002C0FD04D480068C007C00FA842D4
:1031200018D24A4F38684008400028433860FFF7FB
:103130006DFF064609E00120F8BDFFF767FF811B20
:103140004348814201D90320F8BD3868C007C00F49
:10315000A842F2D120683F4E81070DD5400704D523
:10316000B068072109030843B060B0680F21090265
:103170008843A1680843B0602078C0072DD06068FC
:10318000012808D000280BD032494031096A89074C
:103190000BD40120F8BD3168890306D40120F8BDA5
:1031A0003168490501D40120F8BDB168C908C900DA
:1031B0000143B160FFF72AFF074607E0FFF726FF4C
:1031C000C11B2348814201D90320F8BDB0683821D2
:1031D00008406168C9008842F0D11C480168C907ED
:1031E000C90FA94216D9016849084900294301605D
:1031F000FFF70CFF074607E0FFF708FFC11B144865
:10320000814201D90320F8BD10480068C007C00FF3
:10321000A842F1D12078400706D5B06807210903FC
:103220008843E1680843B06000F01CF8B1683C22B4
:1032300089091140084A515CC906C90EC8400749AE
:10324000086007480068FFF731FFF8BD0020024022
:103250008813000000100240F858000848030020BE
:10326000CC00002000B585B0142216496846FCF752
:103270006BFF154881688906490F0CD08168890663
:10328000490F012918D080688006400F032815D007
:10329000002005B000BD016889044A0F012191405A
:1032A00040680004400F042800D9002080006A46CE
:1032B0001058FCF7CCFFECE70448EAE70120C00314
:1032C000E7E70000E45800080010024000366E01F5
:1032D000F8B50446002C1DD020783827C007864D4D
:1032E000002856D0A8683840082815D06068002803
:1032F00007D0A068002817D029690C229143014308
:10330000296101216068090488420FD128680843B7
:1033100028601EE00120F8BD2868800339D5606868
:10332000002836D10120F8BD0120F8BD0523012277
:103330001B049204984206D128681043286028682C
:103340000843286005E0286888432860286890437F
:103350002860606800280ED0FFF758FE064606E099
:10336000FFF754FE801BC82801D90320F8BD286848
:103370008003F5D50DE0FFF749FE064606E0FFF7AE
:1033800045FE801BC82801D90320F8BD28688003AA
:10339000F5D42078800772D5AE683E40002E12D05A
:1033A000FF20E1680130002958D029680722D202A5
:1033B0009143226911432960296801432960FFF77D
:1033C00025FE064640E02868400502D5E068002852
:1033D00009D068686169000C000408436860FFF761
:1033E00015FE074608E00120F8BDFFF70FFEC01BE1
:1033F000022801D90320F8BD28684005F5D5002E24
:1034000013D128680721C90288432169084328602D
:10341000FFF728FFA9683C2289091140374A515C0F
:10342000C906C90EC8403649086036480068FFF72B
:103430003DFE002823D00120F8BDFFF7E7FD801BEB
:10344000022801D90320F8BD28684005F5D5686831
:103450006169000C00040843686010E0296881433A
:103460002960FFF7D3FD064606E0FFF7CFFD801B7E
:10347000022801D90320F8BD28684005F5D420783A
:10348000000736D5A8681C4D8006400F403503283C
:103490000AD0A06900281AD0286A012108432862AE
:1034A000FFF7B4FD04460EE0286A800721D5A06925
:1034B00000281ED10120F8BDFFF7A8FD001B02283F
:1034C00001D90320F8BD286A8007F5D511E0286AE4
:1034D000400840002862FFF799FD044606E0FFF728
:1034E00095FD001B022801D90320F8BD286A80073A
:1034F000F5D40020F8BD000000100240F858000884
:1035000048030020CC0000200249CA690243CA6176
:10351000704700000000014010B50949401E884274
:1035200001D9012010BD074C60610321081F00F084
:103530001DFB0020A06107202061002010BD0000BD
:10354000FFFFFF0000E000E070B50446002C05D04E
:1035500025462035687F002802D006E0012070BD96
:1035600000202877204600F00AF802206877211D05
:10357000206800F03DFB01206877002070BD704797
:10358000F8B504460E4625462035287F01280DD083
:1035900001202877022068770427002A08D0042A0F
:1035A00019D0082A2ED00C2A55D13EE00220F8BDB1
:1035B0003146206800F068FB2068816908221143C9
:1035C000816120688169B9438161206881693269BC
:1035D000114381613FE03146206800F093FB206891
:1035E00082690121C9020A4382612068816901223E
:1035F000920291438161206881693269120211430C
:10360000816128E03146206800F0BCFB2068C26977
:1036100008210A43C2612068C169B943C1612068B9
:10362000C16932691143C16115E03146206800F07B
:10363000E9FB2068C1690122D2021143C1612068FF
:10364000C269012189028A43C2612068C169326965
:1036500012021143C1610120687700202877F8BD6C
:1036600010B504460122206800F000FB0D482168D7
:10367000814205D00C48814202D00C48814204D1DD
:10368000486C0122D20310434864206881684907CE
:10369000490F062903D0016801221143016000206F
:1036A00010BD0000002C01400044014000480140D2
:1036B00008B540210268C9431160026849101160D1
:1036C00000680168416800910168416800910168E3
:1036D0004168009101684068009008BDFEE7000065
:1036E000074BDA1E1978002805D0002010705170A1
:1036F0003720907070471170D87B50709070704771
:10370000DE000020F0B530490820CE7906404F7A1F
:103710000740BC46CA7A024096462C480078C20749
:10372000140F0222034613405B001C43042305468A
:103730001D406D082C430507ED0F2C430C72C40689
:10374000E40F2643202405462540ED082E4340255E
:10375000284040090643CE711C484078C607360F02
:10376000074617407F003E4307461F407F083E4301
:103770000707FF0F3E438E72C6066746F60F3743B4
:1037800006462640F60837432840400907434F7253
:103790000E488078C607360F024052001643024694
:1037A0001A40520816430207D20F16430E73C3067F
:1037B0007246DB0F1A4303462340DB081A432840B6
:1037C00040090243CA72F0BD70050020DB000020F2
:1037D00070B51749174C20780207120F0A71102292
:1037E000034613409D088306DB0F1D43402318400A
:1037F000400905434D71607805072D0F8D70054612
:103800001540AD088606F60F3543184040090543BC
:10381000CD70A0780407240F0C7002409208840633
:10382000E40F22431840400902434A7070BD000073
:1038300070050020D800002010B5002804DB80B2FD
:10384000012100F02FF910BD404200B2632800DDD5
:1038500063200A21FCF705FDCCB20A21FCF701FD2B
:10386000C9B2044840220270C21C515C4170115D13
:10387000817010BDDB00002070B504461248844200
:1038800000D904460A212046FCF7E1FC0E460A2135
:10389000FCF7DDFC0D4664212046FCF7D8FC0A212C
:1038A000FCF7D5FC0948002242700270C21C935DEF
:1038B00083700B462B4301D0535D4370002901D028
:1038C000515C017070BD0000E7030000DB000020C8
:1038D000054A0028917903D0042001439171704773
:1038E000FB2001409171704770050020054A0028B7
:1038F000917903D00220014391717047FD2001406E
:103900009171704770050020054A0028917903D015
:103910000120014391717047480840009071704741
:1039200070050020054A0028917903D00820014342
:1039300091717047F7200140917170477005002028
:10394000054A0028517A03D008200143517270477C
:10395000F7200140517270477005002010B50246F3
:103960000846130000F096FA0705080B0E1114170D
:103970000700FFF7C9FF10BDFFF7B8FF10BDFFF745
:10398000A7FF10BDFFF7CEFF10BD00F007F810BD78
:10399000FFF7D6FF10BD00F00FF810BD054A002854
:1039A000D17903D008200143D1717047F72001403D
:1039B000D171704770050020054A0028D17A03D0E4
:1039C00008200143D1727047F7200140D17270473F
:1039D000700500200248002101704170817070471D
:1039E000DB00002010B5002902D0FFF779FE01E0CE
:1039F000FFF7F0FFFFF786FE10BD000070B500294D
:103A000030D01B4A0024D31C4025997B03281BD0AF
:103A100006DC002809D001280CD0022824D10EE0B1
:103A20000F2816D010281FD118E014705170187884
:103A3000907019E0147051705878907014E0147000
:103A40005170987890700FE06D20107055709170E3
:103A50000AE014705170D87B907005E015705570B5
:103A6000957001E0FFF7B6FFFFF74CFE70BD000058
:103A7000DB00002010B500290CD0002802D0FFF791
:103A8000DBFE09E0064806490078C91E0870487048
:103A9000887001E0FFF79EFFFFF734FE10BD0000C5
:103AA000DE00002010B5002902D0FFF7E5FE01E09E
:103AB000FFF790FFFFF726FE10BD000070B5064629
:103AC0000A213046FCF7C3FB0D460A21FCF7BFFB79
:103AD0000C4664213046FCF7BAFB0A21FCF7B7FB21
:103AE0000B460548415D821F9170015D5170C05CBD
:103AF0001070FFF76DFE70BDDE00002010B50928C4
:103B000000D9092005490A5C881F82700978417034
:103B100073210170FFF75CFE10BD0000DE00002085
:103B200070B506461E213046FCF791FB0C4C0D4D3E
:103B3000A1888E4209D9A080FDF78AF8294601F0B4
:103B4000C9FDFDF749F880B270BD3046FDF788F831
:103B5000294601F0BFFDFDF73FF8A080304670BD5B
:103B6000180100203333333F704700008307FF22E2
:103B7000DB0E9A408907090E994000280BDA0007EE
:103B8000000F0838830808489B001818C36993433E
:103B90000B43C3617047830804489B0018180368EF
:103BA00093430B430360704700ED00E000E400E046
:103BB0007047704710B5FFF763FAFDF74DFB10BD76
:103BC00008494868084A000C92880004D204D20CC4
:103BD00010430122520310434860C8030349886020
:103BE0007047000000100240000FFF1F00ED00E0D2
:103BF00070B50268184C194EA04201D0B04204D1F1
:103C000070251346AB434A681A43154B154DA04225
:103C100008D0B04206D0144EB04203D0984201D032
:103C2000A84204D103263602B243CE68324380262E
:103C3000B2434E69324302608A68C2620A68826295
:103C4000A04203D0984201D0A84201D10969016382
:103C50000121416170BD0000002C014000040040C2
:103C600000440140004801400020004010B5C90652
:103C7000C90E01238B40046A9C430462036A8A4094
:103C80001343036210BD0000F0B5026A52085200EF
:103C90000262056A436882697024A2439208920016
:103CA0000C681443022295438A682A43124E134F2C
:103CB000B04204D0B84202D0114DA84206D1082526
:103CC000AA43CD681543042295432A46B04204D046
:103CD000B84202D00A4DA84208D1FF250135AB43B6
:103CE0006D00AB434D691D438B692B434360846179
:103CF000496841630262F0BD002C0140004401406C
:103D000000480140F0B5026A10239A430262046A37
:103D10004368826907252D03AA4303252D02AA4380
:103D20000D682D021543202294438A681201224314
:103D3000114EB04207D180271446BC43CA68120115
:103D400022434024A243B04205D00C4CA04202D0F2
:103D50000B4CA0420AD10124A402A3436400A34354
:103D60004C69A4001C438B699B002343436085611D
:103D7000496881630262F0BD002C014000440140AB
:103D800000480140F0B5026AFF2301339A43026202
:103D9000046A4368C2697025AA43920892000D68BC
:103DA00015430122520294438A6812022243124EA2
:103DB000B04207D1C7141446BC43CA68120222435A
:103DC0000415A243B04205D00C4CA04202D00C4CCA
:103DD000A0420AD101242403A3436400A3434C69F5
:103DE00024011C438B691B0123434360C56149685F
:103DF000C1630262F0BD0000002C0140004401409C
:103E00000048014070B5026A01231B039A43026215
:103E1000046A4268C36907252D03AB4303252D02BD
:103E2000AB430D682D021D4301235B039C438B684C
:103E30001E0326430A4B984205D00A4B984202D0F3
:103E4000094B984206D10124A4031346A3434A69AF
:103E500092011A434260C56149680164066270BDFF
:103E6000002C0140004401400048014010B5084CBE
:103E700020680068C043800601D400BF02E0044807
:103E8000FFF716FC20202168C043086010BD000029
:103E9000C804002030B47446641E2578641CAB420C
:103EA00000D21D46635D5B00E31830BC184700007C
:103EB00010B5FDF79BFD0A498A6890420AD08860D8
:103EC000002807D0002211461020FDF71FFE0548EC
:103ED0000021418500F034F800F006F810BD000024
:103EE000B80100205004002070B5144C0025E07883
:103EF000002817D0E570207900280AD000F032FDA4
:103F0000002211460F20FDF701FEFEF773F8257120
:103F100008E0002211460120FDF7F8FD00F066FDE3
:103F2000012020712079002806D0A078002803D035
:103F3000A570012000F06CFB70BD00005004002053
:103F400070B5FDF753FD002412490123124A0028E1
:103F50000ED090880F2801D2401C908090880F28A6
:103F600005D35078002802D1CB705370947070BD87
:103F70009088451E0E2D00D28B700F2806D35078E6
:103F8000002803D09078002800D19370948054705A
:103F900070BD000050040020B801002010B5174883
:103FA000407800280ED00300FFF774FF110C0A0DB3
:103FB00010131F22250C0C0C0C0C0C1C16190C00D9
:103FC00001F006FA10BD01F06DFA10BD01F034FAEF
:103FD00010BD01F09BFA10BD01F0EAF810BD01F030
:103FE00001F910BD01F028F910BD01F055F910BD1F
:103FF00001F0BAF910BD01F083F910BD7004002082
:10400000F0B587B00C46029021463B4F029801F074
:10401000F1FB460076083948384D8079A03D06907E
:10402000296E0591002828D00598FCF7D5FDEA6E89
:104030000621904207D20120314A0B1A9B00D4502E
:10404000401C0528F9DD2F4B9878002809D1012064
:104050002B4F0A1A9200BC50401C0628F9DD0120A3
:1040600098702948864201DD284F09E02848864299
:1040700001DA284F04E0204F02E02248002181703D
:104080003946029801F026FB04467F203946C005D8
:1040900001F0B0FB1A4E0490316801F01BFB214681
:1040A00001F0A8FA30600124601E800030583946C3
:1040B00001F010FB0190A10003910498715801F0E8
:1040C00009FB019901F096FA03997050641C062CC3
:1040D000EADB069800280CD00598FCF77DFD296FD7
:1040E000884206D23F210906706901F083FA07B0C1
:1040F000F0BD3069FBE70000CDCC4C3D70040020E2
:10410000E4050020180100200000C841CDCCCC3DC2
:10411000000020410AD7233CFEB50090009801F032
:1041200069FB44003B4F6408BC603B4E3F252D06B5
:10413000B4420ADA31462046FCF79EFC374901F0CA
:10414000C9FA294601F056FA0DE03146204601F041
:1041500051FB3146FCF790FC0221FCF785FD8121E3
:10416000C90501F047FAA84200DA284641252D0684
:10417000A84200DD2846F860029031468C420ADAF7
:104180002046FCF779FC264901F0A4FA7F21C905F5
:1041900001F030FA0DE00E46204601F02BFB3146CF
:1041A000FCF76AFC0221FCF75FFD8121C90501F0E3
:1041B00021FA7F24E405A04200DA2046A84200DD6F
:1041C0002846054638617868029901F013FA0646D8
:1041D0002946304601F00EFA01463046FCF74CFC09
:1041E000786101903D680098294601F003FB019930
:1041F00001F070FA294601F0FDF9054638602046C5
:10420000019901F0F7FA314601F064FA7860284626
:10421000FEBD0000A0010020000020410000604021
:104220000000404070B53C4905254D573A4C0021EF
:104230000122803C2B00FFF72DFE071005111D33D6
:104240003F6210006069002801D0616100E0626196
:1042500060690121C0B2FFF7C5FB70BDA0690028ED
:1042600001D0A16100E0A261A0690121C0B2FFF705
:10427000B9FB70BD002806D0206932280ADA20690F
:10428000401C206106E020693221C84202DD20691D
:10429000401E20612069012100B2FFF7EBFB70BDD9
:1042A000206A002801D0216200E02262206A0121F8
:1042B000C0B2FFF797FB70BD00280DD0606A174DA4
:1042C000A84204D200F02CF8616A40186062606A6B
:1042D000A8420ED965620CE0606A412804D900F05A
:1042E0001FF8616A081A6062606A3C2801D23C20AB
:1042F0006062606A012100B2FFF7BCFB70BDA06A7A
:10430000002801D0A16200E0A262A06A0121C0B22F
:10431000FFF768FB70BD000050040020E7030000B9
:1043200010B51C4800681C4A00239168002903D17D
:104330009060D0609380137091681924411A6401D1
:10434000A14202D9D06093801370D1687D24411AB4
:10435000E400A1420BD39188032905D91178FF29E4
:1043600003D2491C117000E013709380D0609188D3
:10437000491C9180906005201178002905D00429FE
:1043800000D904210A204143C8B2282800D9282096
:1043900010BD0000D4000020C401002010B5064864
:1043A0000178002907D0002141850170034A11706E
:1043B000407800F005F810BD50040020B80100203E
:1043C00010B50C490979002907D0FFF72BFF00220F
:1043D00011461020FDF79AFB10BD00F0C7F800222F
:1043E00001211020FDF792FB02480021203081714D
:1043F00010BD00005004002010B50020FDF76EFA3B
:10440000044CA060FCF7D2FEA062FCF701FEA064A1
:1044100010BD00005003002010B50420FDF75EFA27
:104420000149886110BD00005003002010B5012033
:10443000FDF754FA024CE060FDF72CFAE06210BD83
:104440005003002010B5FCF7EFFD0149C86410BD12
:104450005003002010B5FDF715FF0120FEF7AEFB5D
:104460000220FDF73BFA114C20611149C9797329EB
:1044700004D0D22906D0F5290BD107E000F0A2FC28
:10448000206306E000F0E0FC206302E000F01EFD87
:10449000206306488030C068FCF7E2FB0146206BD1
:1044A000FDF7ACF82065206010BD0000500300202F
:1044B0007004002010B5FFF7AFFF0B4801218069A1
:1044C000C902884201D9F52010BD0721C9018842DF
:1044D00001D2D22010BD054940180549884201D2B9
:1044E000732010BD002010BD500300207FFCFFFF93
:1044F0007F02000010B50E498878002812D00020F5
:1045000088700C490A79002A0BD1C979042908D08E
:10451000052906D0074980398969002904D000F0AF
:104520000BF810BD0120EBE7012000F005F810BDED
:10453000C40100205004002010B50B49CA69012AAB
:1045400008D0022A0BD0032A03D101460020FFF72E
:1045500005FA10BD01460220FFF700FA10BD014622
:104560000120FFF7FBF910BDD003002070B5274CE8
:10457000A169002926D0002806D0E069032809D2C5
:10458000E069401CE06105E0E069012802D9E069CA
:10459000401EE06101210020FFF7E0F901210846FB
:1045A000FFF7DCF901210220FFF7D8F9E069322199
:1045B000401E4843FF302D30E060E06880B2FFF7D6
:1045C0007DFA70BD00280ED0E068FF25C335A842F3
:1045D00004D2FFF7A5FEE1684018E060E068A84259
:1045E0000ED9E5600CE0E068692804D3FFF798FE77
:1045F000E168081AE060E068642801D26420E060A5
:10460000E06880B2FFF75AFA70BD0000D0030020C6
:1046100010B5314C002809D06079401C607105202C
:10462000205606280BDD0120607108E06079401EED
:10463000607105202056012801DA062060710520EE
:10464000205680B2FFF75AFA05202056224C03006C
:10465000803CFFF71FFC070E050F19232D370E00B6
:1046600000210620FFF77AF960690121C0B2FFF747
:10467000B9F910BD00210620FFF770F9A0690121EA
:10468000C0B2FFF7AFF910BD01210620FFF766F9B0
:104690002069012100B2FFF7EDF910BD00210620CD
:1046A000FFF75CF9206A0121C0B2FFF79BF910BD4A
:1046B00000210620FFF752F9606A012100B2FFF7DE
:1046C000D9F910BD00210620FFF748F9A06A0121A1
:1046D000C0B2FFF787F910BD50040020F8B5344987
:1046E0000025086E4200120E002A41D08A6E002A70
:1046F0003ED0896DFCF7C0F901467F22D205914278
:1047000000DD1146FF20C005C14200D30021294E23
:10471000294F2A4800F0DEFF394601F05FF80446D1
:104720003146204600F0ACFF00D2344639462046E0
:1047300001F028F800D23C46214E2046314601F0D7
:1047400059F83146FCF798F9FCF746FA82B21D4950
:104750004878002814D0C888401C80B2C88001283E
:1047600021D3CD804D7000210520FFF7F7F8F8BD6B
:104770001448C580457000210520FFF7EFF8F8BD0B
:10478000C888401C80B2C880904207D3CD800120E9
:10479000487001210520FFF7E1F8F8BD0021052050
:1047A000FFF7DCF8F8BD01210520FFF7D7F8F8BDC9
:1047B000D00300200000484300007A4500806D458A
:1047C0000000C842C401002010B5FFF715FE0548DF
:1047D0000549806C884204DD04480621C171FCF75C
:1047E000A7FB10BD5003002000009642500400209B
:1047F00070B5052020210007FEF7FAFB134D144C7D
:10480000002814D00120FDF769F8E86080B2FDF7B8
:10481000B7FEFCF707F900222346FBF7DFFFE202B1
:104820000C4BFBF7DBFFFBF7C3FDE86670BD002018
:10483000E860FDF7A5FEFCF7F5F800222346FBF73C
:10484000CDFFFBF7B5FDE86670BD0000500300200A
:1048500000003840CCCCEC3FFEB5404DE868FCF79A
:10486000FFF929468039096F019100F0B7FF400038
:10487000400800903A4FFE69761CFE612C46A03439
:10488000A079002808D0286EFCF7A6F9296F884285
:1048900002D20A20B86101E00120B8617969B869E3
:1048A000721A824215D3081878612C488030017939
:1048B00000290ED1C17900260B00FFF7EBFA082979
:1048C0000A050A11230A0B0A01210020FFF796F8B6
:1048D000A671FEBD01210320FFF790F8A671FEBD71
:1048E0001E4D0198803DFCF777F93969884207D25F
:1048F00080B20121FFF7D6F8286FFCF76DF9386117
:10490000A671FEBD01211020FFF778F8A671FEBD4B
:10491000A96A002907D00069FCF75EF980B201217D
:10492000FFF7C0F806E00198FCF756F980B20121C4
:10493000FFF7B8F87F210098C905884209DAA07905
:10494000002804D1002211461020FDF7DFF80120D5
:10495000A071FF20C3303861FEBD0000D0030020ED
:10496000C401002010B501210020FEF7F7FF01214E
:104970000846FEF7F3FF01210220FEF7EFFF134C7C
:10498000A069002812D0E069012804D0022806D0CE
:1049900003280BD107E0FF202D30E06006E0FF2068
:1049A0005F30E06002E0FF209130E06007480121C5
:1049B00080304171E06880B2FFF780F8A06A00287B
:1049C00003D101210620FEF7C9FF10BDD00300204E
:1049D000884203D3904201D300207047814203D321
:1049E000914201D3012070470220704710B5002189
:1049F0000846FEF7B3FF00210120FEF7AFFF0021BC
:104A00000220FEF7ABFF264C0520205680B2FFF7B0
:104A100075F805202056803C0300FFF73BFA070E8F
:104A2000050F19232D370E0000210620FEF796FFF3
:104A300060690121C0B2FEF7D5FF10BD002106203C
:104A4000FEF78CFFA0690121C0B2FEF7CBFF10BDBD
:104A500001210620FEF782FF2069012100B2FFF745
:104A600009F810BD00210620FEF778FF206A012119
:104A7000C0B2FEF7B7FF10BD00210620FEF76EFFA3
:104A8000606A012100B2FEF7F5FF10BD002106208B
:104A9000FEF764FFA06A0121C0B2FEF7A3FF10BDBC
:104AA0005004002070B50D46174C962809D9616F47
:104AB000401AFCF7D5F8294600F064FE01D2012027
:104AC00000E00020114B0025197888420DD0002805
:104AD00001D0322100E002215A88521C92B25A8041
:104AE0008A4203D318705D8000E05D80187800284A
:104AF00004D0606EFCF770F880B270BD206EFCF7D9
:104B00006BF880B270BD0000D003002004010020CB
:104B1000F3B581B007463846029900F0E9F8384607
:104B2000029900F087F80646334CA06E002861D049
:104B30003846FCF795F8029900F05CFE05463146D0
:104B4000E06B00F057FD294600F0C4FDA064294643
:104B5000206C00F0BFFD216D00F0BCFDE16C00F0A9
:104B600049FD0646E0642846E16D00F043FE616CB5
:104B700000F0B0FD6065E5653046A16D00F002FE15
:104B800001D2A06DE0641D4DE06C0026A84200D368
:104B9000E664E16CA06C00F02DFD616D00F02AFD73
:104BA000014620661448A030C079732804D0D2286A
:104BB00005D0F52808D105E01148606604E01148E9
:104BC000606601E010486066A94200D32666616E07
:104BD000206E00F0D7FD01D2606E20663846029943
:104BE000FFF760FFFCF73CF82066FBF7F5FF80B2AB
:104BF000FDF768FBFEBD0000D003002000008080B0
:104C00000000AF4400A00C4500401C460748C17995
:104C10008038002907D0002181660166C1640165E2
:104C2000034881637047012181667047500400206A
:104C30000004004010B50C46FCF712F8214600F0C5
:104C4000D9FD00210122D20590420BDB064C214602
:104C500000F0D0FD0549C96B00F03CFD2146FBF793
:104C60000BFF0146084610BD00007041D003002034
:104C7000F8B51E4CE068216947182669FFF7EAFB82
:104C80002546803D2968B8B2FFF742FF20468030B4
:104C9000C079022819D0032817D0052815D0E0685C
:104CA000FBF7DEFF0746E068FBF7DAFF0446304615
:104CB000FBF7CEFF296800F091FD2146FFF72CFAA3
:104CC0003946FFF79DF92867F8BDE068FBF7C8FF94
:104CD0000646E068FBF7C4FF01460020FFF71CFA18
:104CE0003146FFF78DF900202867F8BDD00300207A
:104CF000F3B581B005462846FBF7B2FF07461F48CB
:104D00001E4CC0790026803C002801D0A666FEBD5E
:104D10001A482030C079732804D0D22805D0F5284D
:104D200008D105E0FDF764FA04E0FDF761FA01E05F
:104D3000FDF782FAE06F4019FBF792FF029900F04D
:104D40009FFC03D2E6642664266513E0A06F281A50
:104D5000FBF786FF029900F093FC0BD238460299CC
:104D600000F010FD06D2284600F00AF820647F20EB
:104D7000C0052065FFF74AFFFEBD0000500400207B
:104D800010B50C4C642801D8204610BDFF21C3315A
:104D9000884201D3084810BD6438FBF759FF074922
:104DA00000F098FC0649FBF767FE214600F022FC64
:104DB00010BD0000CDCC4C3D00004040CDCC3C406F
:104DC0000000AF43F8B504462046FBF704FD164A41
:104DD000164BFBF703FD06460F462046FBF740FF48
:104DE000009000F0D5F9FBF71DFE114A114BFBF7BF
:104DF000F5FC04460D46009800F0CFF9FBF712FED3
:104E00000D4A0E4BFBF7EAFC22462B46FBF78AFCC9
:104E100032463B46FBF786FC094A0A4BFBF782FC0D
:104E2000FBF7C6FAF8BD0000304CA60A4625EF3F56
:104E30002A4E5A5DF34F35BFE7A52A8DE517693E27
:104E40009A99999999D582C0F8B504462046FBF7FE
:104E5000C2FC164A164BFBF7C1FC06460F4620461D
:104E6000FBF7FEFE009000F093F9FBF7DBFD114A23
:104E7000114BFBF7B3FC04460D46009800F08DF98A
:104E8000FBF7D0FD0D4A0E4BFBF7A8FC22462B4644
:104E9000FBF748FC32463B46FBF744FC094A0A4B09
:104EA000FBF740FCFBF784FAF8BD0000CB10C7BA53
:104EB000B88DE83F44B97E0BFCF233BF7DAA55D5CF
:104EC0009035733ECDCCCCCCCCCC70C010B5FBF7BC
:104ED000C7FEFBF7A7FD054A054BFBF77FFC054A1C
:104EE000054BFBF71FFCFBF763FA10BD917EFB3A05
:104EF00070CEC83FEE7C3F355E1A3A4070B5244D07
:104F00002968244C2068091A0A2907D30A3020602E
:104F1000FFF7AEFEFFF796FAFFF740F82968A068A2
:104F2000091A322903D33230A060FFF737FA296813
:104F30006068091AFA2908D3FA306060FCF724FB8C
:104F4000FCF7A8F91448FEF793F82968E0680A1AF4
:104F50007D21C9008A4207D34018E060FFF7CAFAF2
:104F6000FFF732FCFCF730FB29682069091A642935
:104F70000BD364302061FEF79BFFFCF73FF9FFF78E
:104F80006BFCFFF7ABFBFCF7F3FEFFF731FC70BDEA
:104F9000D4000020F000002080050020FFB585B07F
:104FA00005984468059880680490059800880290E8
:104FB0000298401E800020180390019323E0069879
:104FC0000168039801600698001D06900398001D73
:104FD0000390002000902546049E029F02CE01CD42
:104FE00000F078FB009900F005FB00907F1E002F79
:104FF000F4D10799009808600798001D0790241DB8
:105000000198401E019001980028D8D10598416868
:105010000298401E02E004CC04C1401E0028FAD1D0
:1050200009B0F0BD30B5002903D004680025012285
:1050300009E0002030BD9300C358A34201D91C46AB
:105040001546521CD2B28A42F5D36D1CE8B230BD6F
:1050500010B5094C884201DC208810BD904201DB6C
:10506000A08910BD521A401A062148431146FBF789
:10507000F8F84000205A10BD06030020FEF708F89B
:10508000FF209130FDF79AFDFCF7C6FDFCF7FEFD11
:10509000FCF7D6FCFCF71AFD12480121008AC9036F
:1050A000C004C00C4018FDF713F91920FDF786FD68
:1050B000FCF7D2FFFCF7A8FCFDF7E4F8FCF786FC50
:1050C000FCF73CFCFDF732F8FCF79AFEFCF706FB18
:1050D000FDF70CF8002211461020FCF717FDFFF732
:1050E0000DFFFCE7000FFF1FF0B585B0144D154C08
:1050F0002A78910060500521501CFBF7A8F8297010
:1051000000206E46810062587250401C0528F9DB71
:10511000002100200422571A09E0421C8500920059
:105120007459B3589C4201D97351B450401C874202
:10513000F3DC491C0429ECDB029805B0F0BD00004B
:1051400018010020C405002010B5002802D000F08E
:1051500009F810BD0520002240210007FDF74FFF90
:1051600010BD000010B500280BD001460548FBF724
:105170006EF8401E0449C86240084863496B034802
:10518000C16110BD00093D000044014050040020F1
:1051900010B5014600F09EFA10BD10B50446214638
:1051A000204600F097FA214600F094FA10BD000066
:1051B00070B50A4CE08B401C80B2E083012801D11D
:1051C00000F032F8E08B322806D305480025457000
:1051D0000020FFF7B9FFE58370BD0000E401002067
:1051E0007004002070B50A4C208C401C80B22084D2
:1051F000012801D100F010F8208C052806D30548BD
:10520000002545700020FFF79FFF258470BD00003A
:10521000E40100207004002010B505200122402187
:105220000007FDF7ECFE10BD10B50520012240215E
:105230000007FDF7E4FE10BDF8B5154CFF262178F8
:10524000204600259136808C0127002908D0401D7A
:1052500080B2A0847D21C900884207D3257005E073
:10526000401F80B2A084B04200D82770A08CFFF706
:105270006BFF608C401C80B26084C82807D300207C
:10528000FFF762FF6584A684277002484570F8BD69
:10529000E40100207004002070B5174C002520891F
:1052A000002814D1E088022806D3E5801348457011
:1052B0000020FFF749FF70BD0F4940002A31085A0E
:1052C000FFF742FFE088022801D2401CE0802089DD
:1052D000401C81B22181094817222038C06900F0A2
:1052E0004BF92089172802D10020FFF72DFF2089D4
:1052F0001928E0D3258170BDE4010020700400204E
:1053000070B5174C0025A089002814D160890628A3
:1053100006D36581134845700020FFF715FF70BD67
:105320000F494000F631085AFFF70EFF6089062842
:1053300001D2401C6081A089401C81B2A181094832
:1053400017222038C06900F017F9A089172802D168
:105350000020FFF7F9FEA0891928E0D3A58170BDD0
:10536000E40100207004002070B5174C0025A088CF
:10537000002814D16088032806D36580134845703F
:105380000020FFF7E1FE70BD0F4940002E31085AA2
:10539000FFF7DAFE6088032801D2401C6080A088F5
:1053A000401C81B2A180094817222038C06900F052
:1053B000E3F8A088172802D10020FFF7C5FEA088D7
:1053C0001928E0D3A58070BDE401002070040020FE
:1053D00070B5174C0025208A002814D1E0890328D5
:1053E00006D3E581134845700020FFF7ADFE70BD80
:1053F0000F4940003431085AFFF7A6FEE089032820
:1054000001D2401CE081208A401C81B221820948DF
:1054100017222038C06900F0AFF8208A172802D17F
:105420000020FFF791FE208A1928E0D3258270BD65
:10543000E40100207004002070B5174C0025208B7B
:10544000002813D1E08A092806D3E5821348457065
:105450000020FFF779FE70BD11494000085AFFF7A0
:1054600073FEE08A092801D2401CE082208B401C98
:1054700081B22183094817222038C06900F07CF8E6
:10548000208B172802D10020FFF75EFE208B192801
:10549000E1D3258370BD0000E401002070040020EA
:1054A000E602002070B5174C0025A08A002814D110
:1054B000608A032806D36582134845700020FFF7F1
:1054C00043FE70BD0F4940003A31085AFFF73CFED9
:1054D000608A032801D2401C6082A08A401C81B2ED
:1054E000A182094817222038C06900F045F8A08A37
:1054F000172802D10020FFF727FEA08A1928E0D341
:10550000A58270BDE40100207004002070B5174C26
:105510000025A08B002813D1608B072806D3658354
:10552000134845700020FFF70FFE70BD1149400081
:10553000085AFFF709FE608B072801D2401C6083E0
:10554000A08B401C81B2A183094817222038C06972
:1055500000F012F8A08B172802D10020FFF7F4FD0D
:10556000A08B1928E1D3A58370BD0000E4010020C1
:1055700070040020F802002010B50B4611460028E8
:1055800005D0CA1A5043FAF762FE0149486310BDBC
:105590000044014000B516490300FEF77BFC110CE6
:1055A0000A0D10131F22250C0C0C0C0C0C1C1619C8
:1055B0000C000120487000BD0220487000BD03208F
:1055C000487000BD0420487000BD0F20487000BD29
:1055D0001020487000BD0E20487000BD05204870A6
:1055E00000BD0620487000BD0720487000BD0000C7
:1055F0007004002070B501250400ED074C4020D454
:10560000441A01D2001B0919C60D4B00F2B2FF2A41
:1056100029D01B0E2CD000020C02D31A2C43DC40E4
:105620002843051910D2280A02D3401C6D0611D058
:10563000761EF6058019FF2A00DA70BDC00DC00580
:1056400070BD694000F0DCF801200543C541521CE3
:10565000761CE8E764089C40C90161408900E7D1F5
:105660000124A043E4E71B0E440200D0034870BDB0
:10567000002AFCD1C00FC00770BD00BF0000C07F72
:1056800001230200DB050A430DD4DA4203D49A4217
:1056900007D488427047D84214D4D94212D48842E1
:1056A000704780427047DA4203D59A42F9D5814269
:1056B00070475B004200DA4204D24A00DA4201D26B
:1056C0008142704710B5024AFBF7F0FA10BD00BFE7
:1056D0000900160470B5420064414B005C41120E93
:1056E00039D01B0E38D0FF2A3CD0FF2B3AD04002D5
:1056F0004902400A490A060045184E43000A090AB1
:10570000D2184843ED017F3A0104731A4019190C6D
:105710004318990F04D001215B0849075B1A521CFA
:10572000D80904D3401CF50301D19D0607D0FF2AF8
:1057300008D2D50506D0E4072043401970BD0125E5
:10574000A843F4E7002A01DCE00770BD2402FF2033
:105750002043C00570BD1B0EFF2A03D0FF2B01D0D4
:10576000E00770BDFF2645003606B54206D84D005D
:10577000B54203D8D218FF2A00D0E7E7004870BD31
:105780000000C07F01230A00DB0502430DD4DA428A
:1057900003D49A4207D481427047D94214D4D842E4
:1057A00012D48142704789427047DA4203D59A4247
:1057B000F9D5884270475B004A00DA4204D24200C1
:1057C000DA4201D2884270474840414010B5024A4F
:1057D0004840FBF76BFA10BD0900160470B50125AF
:1057E000ED07684004004C4002D5694000F008F81D
:1057F000FFF706FF70B501250400ED074C4022D4E9
:10580000441A02D26C40001B0919C60D4B00F2B2BB
:10581000FF2A4BD01B0E50D000020C02D31A2C438F
:10582000DC40A843051B05D5AD0019D36D08761ED5
:10583000521E37D0F605280A01D2801970BD70417A
:105840006D0603D070BD6940FFF7DAFE9C40090287
:105850006140490001D0401E70BD0124A04370BDCD
:105860006D081DD001202B0C01D12D0410302B0E02
:1058700001D12D0208302B0F01D12D01001DAB0FDE
:1058800001D1AD00801CEB0F01D16D00401C6D00FB
:10589000361A121A680AF5054019012A02DB70BD92
:1058A000002070BDC036300AC00770BD1B0E440218
:1058B00001D1FF2B00D1024870BD002AF0D070BD8D
:1058C0000000C07F1C0FFF1F300FFF1F440FFF1F82
:1058D000580FFF1F6C0FFF1F1C0FFF1F1C0FFF1F18
:1058E0001C0FFF1F00093D0000127A000024F40085
:1058F0004086510100366E010000000000000000EB
:105900000000000000000000000000000000000097
:105910000000000000000000010000000200000084
:105920000300000004000000060000000700000063
:10593000080000000900000000093D0000127A0084
:105940000024F4004086510100366E0100093D003C
:1059500000093D0000093D00818283848586878897
:10596000898B8C8D8E8F919293959697999A9C9D09
:105970009FA0A2A3A5A7A8AAACAEB0B2B3B5B7B971
:10598000BCBEC0C2C5C7C9CCCED1D4D7D9DCDFE23A
:10599000E6E9ECF0F3F7FAFEB85900080000002041
:1059A0007C040000120E0008C85A00087C04002085
:1059B000340600000401000801CC3204D2010011B9
:1059C0001C3F065B4F666D7D077F6F777C395E7984
:1059D00071CB803E0401102BC0416013A40514203C
:1059E00008012A200C5AB40C5940423F250AD723FB
:1059F0003C432041580C9A99193ECDCC4C3E9A9983
:105A000099085A1958692C1AA32C9B4843843918B1
:105A1000312A40BD0910181A80182904012E0223CA
:105A2000013A902518092C09270527052C090A4059
:105A30000C082C094C0A4C0A2C092C082FBF0D6E9F
:105A40000F5910046599146E0F2920880BBF0D3F64
:105A50000CBF0D59103F0C143AE9048559104C0A3B
:105A60002B5910021C6E0FE9186B6E0F400914566B
:105A7000091458299C4956292E88095A125A1299F4
:105A8000145910602D6E0FBF0D4E2936A119C01983
:105A9000C8494449D22BE90A222984296229AA2922
:105AA000E2C91CE123C84233E14322411AA0047930
:105AB0001022401A80047104B5366E0112F01208EB
:085AC0001AF8041AFF04016F3B
:04000005080000C12E
:00000001FF
