:020000040800F2
:10000000B00A002081010008593B0008DD360008D5
:1000100000000000000000000000000000000000E0
:10002000000000000000000000000000A33B0008EA
:100030000000000000000000A13B0008A53B0008F4
:100040009301000893010008930100089301000840
:10005000930100089301000893010008C5230008DC
:100060000000000093010008930100080000000058
:1000700093010008930100089301000800000000AC
:10008000930100089301000800000000930100089C
:10009000000000009301000893010008930100088C
:1000A000000000009301000800000000593E000815
:1000B00093010008000000000000000000000000A4
:1000C00000F002F800F030F80CA030C8083824180E
:1000D0002D18A246671EAB4654465D46AC4201D180
:1000E00000F022F87E460F3E0FCCB6460126334282
:1000F00000D0FB1AA246AB4633431847A85800006D
:10010000C85800000023002400250026103A01D31F
:1001100078C1FBD8520700D330C100D50B607047BF
:100120001FB51FBD10B510BD00F012FE1146FFF740
:10013000F7FF00F099FE00F02AFE03B4FFF7F2FF8C
:1001400003BC00F05FFE000070B505460C46164685
:1001500002E00FCC0FC5103E102EFAD2082E02D3AB
:1001600003CC03C5083E042E07D301CC01C5361FBE
:1001700003E021782970641C6D1C761EF9D270BDD5
:100180000748804707480047FEE7FEE7FEE7FEE72F
:10019000FEE7FEE704480549034A054B70470000A7
:1001A000AD3B0008C1000008B0060020B00A0020E6
:1001B000B0060020034610B50B439B070FD1042A5D
:1001C0000DD308C810C9121FA342F8D018BA21BA1B
:1001D000884201D9012010BD0020C04310BD002A73
:1001E00003D0D30703D0521C07E0002010BD0378D2
:1001F0000C78401C491C1B1B07D103780C78401C51
:10020000491C1B1B01D1921EF1D1184610BD01E003
:1002100004C0091F0429FBD28B0701D50280801C72
:10022000C90700D00270704700290BD0C30702D065
:100230000270401C491E022904D3830702D50280A4
:10024000801C891EE3E70022EEE70022DFE70022A0
:1002500003098B422CD3030A8B4211D300239C4603
:100260004EE003460B433CD4002243088B4231D37B
:1002700003098B421CD3030A8B4201D394463FE00F
:10028000C3098B4201D3CB01C01A524183098B426F
:1002900001D38B01C01A524143098B4201D34B0158
:1002A000C01A524103098B4201D30B01C01A5241BB
:1002B000C3088B4201D3CB00C01A524183088B4242
:1002C00001D38B00C01A524143088B4201D34B002B
:1002D000C01A5241411A00D201465241104670479D
:1002E0005DE0CA0F00D04942031000D340425340A2
:1002F00000229C4603098B422DD3030A8B4212D362
:10030000FC22890112BA030A8B420CD38901921193
:100310008B4208D3890192118B4204D389013AD0D0
:10032000921100E08909C3098B4201D3CB01C01AA5
:10033000524183098B4201D38B01C01A52414309B8
:100340008B4201D34B01C01A524103098B4201D3A6
:100350000B01C01A5241C3088B4201D3CB00C01A13
:10036000524183088B4201D38B00C01A5241D9D22B
:1003700043088B4201D34B00C01A5241411A00D2AC
:100380000146634652415B10104601D34042002BA8
:1003900000D54942704763465B1000D3404201B527
:1003A0000020C046C04602BD70477047704700003D
:1003B0000246C80FC00781434B0030B54B405B007D
:1003C0009B0D20D01923DB06C91801231B05994278
:1003D00020DB0324A40704251346AB400BD3002BDA
:1003E00004D1EB0613409B00E34204D401246407CC
:1003F000002312195941FF231B0599420BD2C90052
:100400000143500F09E0CB0204D501430803024326
:1004100005D0054830BDFF21C905084330BD084659
:1004200007210905884330BD0000C07FF0B50C46A8
:10043000871A9C410D46861A9D4103D2C01BA141DB
:10044000D21963410D0D1F0DC94EEC1BAE435CD09C
:100450007F057F0D0026002F51D02D05AC46A94306
:10046000DD020123ED0A1B051D4320231B1B24D4A1
:100470001746E740381871412F46E740CC199D4098
:100480002818314661410C0D27D161449A4013D59B
:100490000023401C594152000ED140084000012267
:1004A0004B005205D34207D305204007C14201D576
:1004B000B04900E0B0493046F0BD6B00002A00D0E2
:1004C00001229A181F23203C1B1B01D5002302E0A8
:1004D000E540281871410C0DD7D0012424050919D5
:1004E000C407CD0740084908E40F28436144002CA5
:1004F000D5D00024401C61419A40D0D1CDE76A0597
:10050000520DD9D1C90FC907D5E79C4D4E0000281F
:1005100001D0012400E0002434195F00002A01D03A
:10052000012600E00026BE19954FAC420CD8AE4221
:100530000AD8B44206D001256D05EC42BCD0104665
:100540001946F0BD9942FCD000203946F0BDF0B507
:100550001FB40C460F46811A9F412546861A9D41BD
:1005600006D20125ED076F40401ABC4152187B416D
:10057000210D1E0D8D1BAC467D4D8D437ED0750526
:100580006D0D7CD00D05AE46AC431B031B0B794DA6
:1005900052429D41202366469B1B14D31746F740C9
:1005A000381800260090744160462F460741E41930
:1005B00000989D402818664116D4714671189A40DB
:1005C00025D5012320E093182A466A415200002BCA
:1005D00000D0521C1E23203E9B1B002B61DD3541A9
:1005E000EE1728186641E8D5001876415B1C9A4042
:1005F00000D3401C4B05F3181524E34010D3002B07
:1006000052D071467118D30FC01802D3491C05B0DF
:10061000F0BD0123DB079A42F9D140084000F6E71C
:1006200001225205B21801D1002853D00123CC0A6F
:10063000DB029943891E002A08D1020C03D0020C68
:100640000004103902E00246002020390023550B37
:1006500005D112020823550B01D152010D23550C6F
:1006600001D112011B1DD50C01D192009B1C150D4F
:1006700001D152005B1C2025EE1A01E02CE022E0A3
:100680000546F54015439840CA1AE1076918130555
:10069000C918002ABBDA032040070818C10FC90790
:1006A0000FE071466118B2E7F10740080843711086
:1006B00071444A000CD001235B059A42A7D2C90FAE
:1006C000C9070020A3E74905490D26D1002001E014
:1006D0000028F4D100219AE7284D6600002801D0B7
:1006E000012100E0002171185F00002A01D00126DD
:1006F00000E00026BE19224FA94210D8AE420ED803
:10070000B14208D001256D05E94206D01946A8027C
:10071000414010467BE79C4201D0214677E700200C
:10072000394674E710B50C465C4005D50124E40752
:100730006340FFF70CFF10BDFFF778FE10BD30B42B
:100740000C465C4004D50124E407634030BC6DE6F0
:1007500030BCFCE670B50124E40761400D465D4005
:1007600002D4FFF763FE70BD6340FFF7F0FE70BD7B
:10077000FF0700000000F0FF0000F07F0000E0FF36
:100780000000F87F1F22030C02D10F22000402D0C8
:10079000030E03D004E00020014670470002083A2F
:1007A000030F01D10001121F830F01D18000921E9F
:1007B000002801DB4000521E120551184205C012EC
:1007C000411810467047C10FC90700D040420122AE
:1007D00092071143D6E701218907D3E7F0B58B4C87
:1007E0000F09254689B0BD437BD01D092646AE437F
:1007F000FAD00E465E402740F60F3E43254071D0AA
:1008000024012142FBD0FF24AD19A4042D1B039524
:1008100001252D05DB02DB0AC9022B43C90A294346
:100820001E010901040F130F050121431701880B55
:10083000820391432D098C46A90B1E438A039543DD
:10084000B30B9A0396433F09BA0B9403A74302964E
:100850002E467E430497B6464E19D7190C4601968C
:10086000544305977E43371B7646BF1B3601B64679
:10087000BE0B361900967646BC043719009C01D38E
:10088000641C00946400002F01D001263443029EB2
:10089000049F754366467E430496760034196E00C5
:1008A00034190094029C019E1C196643751BAE46C8
:1008B000069465464519059C05956C435943754654
:1008C0000891691A0191049E01465143A41B0491A9
:1008D000611A009C0791E10605D0610901221143CC
:1008E00002E072E06EE06109089D00272C0A2D06E7
:1008F0006918049D7C412A0A2D066918019D6241F0
:10090000AC0DAD026D185441079A910D9202551924
:100910006141029A644658435443069B059A5A43E0
:10092000121A131B9A0E9B015B187A41010B0005EA
:10093000C3185141220A200644195A419A4200D252
:10094000491C01204002814203D315230226F643AD
:1009500002E014230326F6432020C51AA9401746B7
:10096000AF40DA400A4320460399D840091473186F
:1009700019055118039A3843D2075140AC4009D0A9
:100980000122944006D30022401C5141002C01D189
:10099000400840001E4A934212D301220398920657
:1009A000904207DB0520400709181A480143C0128E
:1009B000414004E0032040070818C10FC907002088
:1009C00009B0F0BD0020F107FAE705180C464C41CC
:1009D00011486D42A04115D394181A465A410E4849
:1009E000644290410ED301204A004005824209D35F
:1009F0005A00824206D35940C90F084AC90700204D
:100A00001143DDE700200649DAE700000000FF0798
:100A1000FE070000FFFFFF7F0000E0FF0000F07F07
:100A20000000F87F0121C9050123411842001B067F
:100A3000D3185B0E0AD0C1100722D20689184007CE
:100A40005242D14201D5520089187047090208D597
:100A50000146002A03D0C10FC90700207047104685
:100A60007047420202D00020024970470721090561
:100A70000143F4E70000F87FF0B5FF252D04C60917
:100A8000C209FF2704462E400137CB093E434840A8
:100A90002A402B400746002A6BD0002B69D0AA427F
:100AA00067D0AB4265D0002800DA32460125ED055B
:100AB00029432C4309022002090AD21A4B0C7F2435
:100AC000E31A434C000A7C44E35C7D24240412199D
:100AD00014145B00A218884201D3521C00E04000AD
:100AE00049420C465C4324115C43DB016415E31866
:100AF000040A5C43C502200D0C4644436419250AD0
:100B00005D432303EC0C0D46654300030019EB180D
:100B10004C42A34201D35B18401CD4052018002B83
:100B200007D05B00C91804D3401C002901D140083C
:100B300040003F2189048A4209D3002A08DC1106BB
:100B4000090F04D0032149074018C00FC007F0BDAA
:100B500001224100120689187F2252069142F6D2E4
:100B600005214907C84201D59010F0BDFF20C005FE
:100B7000F0BD002F00DA32461648AA4207D2AB4237
:100B800005D21902090E17D0F80FC007F0BDFF25D6
:100B900063002D06AB42F9D84900A942F6D8AB4212
:100BA00001D1A942F2D0A94201D1002101E06100A6
:100BB0004908D0050843F0BD1102090EFBD0FF2003
:100BC0000243D005F0BD0A460146104654E7000036
:100BD0009A4E00000000C07F0102C21504D001231C
:100BE000DB071943002A0ADB9E239A1A02D408461F
:100BF000D0407047FF2241001206914201D90020E7
:100C00007047C017C04370471F22030C02D10F2248
:100C100000041CD0030E01D10002083A030F01D1D9
:100C20000001121F830F01D18000921E002801DBFA
:100C30004000521ED205511802125118192290403C
:100C400004D3491C002801D14908490008467047CF
:100C5000C10FC90700D04042012292071143D3E7D8
:100C600001218907D0E7000010B5FF22C30D134012
:100C700009D05A4007D0914205DA5C42A14202DD18
:100C8000C905081810BDC40FE407002B06D0002AC0
:100C900006D0002902DBFF20C0050443204610BD1A
:100CA0004102FCD0004810BD0000C07F10B5FF23FA
:100CB0001B0644009C421DD84C009C421AD8034697
:100CC000124A0B4307D4401A02D3EFF3008010BD41
:100CD000EFF3008010BD081A06D2EFF30080012167
:100CE0009043C907084302E0EFF30080904380F38C
:100CF000008810BD0D231B041A4204D011460020A9
:100D000000F006F810BD00F01BF810BD00000090C8
:100D1000C80212D54803400F002804D0C803C043BE
:100D2000012188407047EFF3008000010009032192
:100D30000907084380F300887047002070470000CF
:100D400010B5024800F02BF810BD00000000C07F75
:100D5000754600F053F8AE46050069465346C00894
:100D6000C000854618B020B5FFF714FA60BC002714
:100D70004908B6460026C0C5C0C5C0C5C0C5C0C567
:100D8000C0C5C0C5C0C5403D49008D46704710B5BF
:100D90000446C046C0462046FFF7CFF910BD10B547
:100DA0000C461107090F092904D00A290AD008297D
:100DB0000CD104E011460820FFF7AAFF06E0510617
:100DC00006D501E0510601D50120C007214610BD1E
:100DD000D10607D501010909CC084907000E000614
:100DE000044309E0410F20024907000A0143200E95
:100DF00000061D22D14101430846E7E7004870473D
:100E00005006002001491820ABBEFEE72600020074
:100E1000704770B58C180578401C6B075B0F01D1CB
:100E20000378401C2A1106D10278401C03E00678A2
:100E3000401C0E70491C5B1EF9D12B0705D4002302
:100E4000521E0DD40B70491CFAE70378401CCB1AD4
:100E5000921C03E01D780D70491C5B1C521EF9D5D5
:100E6000A142D8D3002070BD10B50122D2060020C7
:100E7000074B810054585C50401CC0B23028F8D356
:100E8000012004494007886004F0FEF8002010BDEE
:100E90000000002000ED00E008B50021009101688D
:100EA0008A68D243D2071ED08A68104B1A400123A9
:100EB000002A08D0816B102211438163C16B194352
:100EC000C163012008BD8868184388600948084943
:100ED0000068FFF7BCF9009002E00098401E009007
:100EE00000980028F9D1002008BD000015000080FE
:100EF00040420F004C030020F0B5002314E09A009C
:100F00008458944627461E465A1C06E095004559CB
:100F1000A54201DA2C461646521C8A42F6DBB20084
:100F20008750624684505B1C8B42E8DBF0BD0000BA
:100F300070B501F0A7F90121002002F007FD0121A1
:100F4000084602F003FD0121022002F0FFFC01210E
:100F5000032002F0FBFC0021062002F0F7FC002138
:100F6000052002F0F3FC002002F0A0FD264CE51F56
:100F7000FD3D264802F07CF8E079030002F080FF96
:100F80000822050A0F22221E142201210F2002F03E
:100F90002DFD17E00121022002F028FD12E00121C1
:100FA000002002F023FD0DE00121032002F01EFDD0
:100FB00000F096FBE079002824D003E001210846E8
:100FC00002F014FD00F0D4FE2878002806D100229B
:100FD0001146102000F09AFD01202870FF26F536FA
:100FE000304601F0EBFD0021084602F0FFFC00F066
:100FF000BFFE304601F0E2FD00221146102000F055
:1010000085FDB6E770BD0000540400208405002073
:1010100001B582B0012301AA02A9024803F0C4FF6E
:1010200001980EBD3001002070B5104CA568204617
:101030008038006E0E49FFF71FFD06460D48294611
:1010400000690546FFF718FD314604F049FB2946C3
:1010500004F046FB084904F043FBE179002901D084
:10106000002070BD002100F06DF870BD5404002018
:1010700000401C461C01002048E17A3FF0B585B0D5
:10108000294C2168039104F0BBFB07467800400817
:101090002546583DE9680E4604F0B2FB234904F0AA
:1010A0001FFB314604F0ACFAE8602149FFF7E4FC8D
:1010B00005467F26F605B54200DD35461D49284622
:1010C00004F00EFB1C4904F09BFAE06002901B49FF
:1010D000284604F005FB1A4904F092FA05462061FF
:1010E0006068029904F08CFA01902946019804F096
:1010F00087FA01460198FFF7BFFC6061009039460E
:10110000009804F0EDFA039904F07AFA054620609D
:101110003046009904F074FB019904F0E1FA606034
:10112000A760284605B0F0BD74010020CDCC4C3D31
:1011300000F07F453E0A973F0AD7A33C0000434397
:101140000000A040F3B581B0164C1549E160164E81
:101150002661606804F054FA05463146284604F0DA
:101160004FFA01462846FFF787FC0646606127686C
:101170000198394604F044FB314604F0B1FA39468F
:1011800004F03EFA074620607F203146C00504F097
:1011900037FB294604F0A4FA60603846FEBD000023
:1011A000CDCC4C3E8C0100200000404070B5FFF7D4
:1011B00057FD06460D4904F093FA0446304603F005
:1011C000EDFF0B4904F08CFA0546304603F0EBFFC7
:1011D000084904F085FA294604F012FA214604F081
:1011E0000FFA054904F00CFA70BD0000D26F1FBE63
:1011F000B67A7338E46A0FB2CD4C544370B51048D8
:10120000C56CC06E0F49884203DD3F242406214689
:1012100001E00D4C0D4904F063FA064621462846CC
:1012200004F05EFA314604F0EBF90446084D2C61F7
:1012300008492046FFF720FCE860204670BD00000A
:101240005403002000004843CDCC4C3FCDCC4C3E55
:10125000540400200000C04110B50C480C4CC1796A
:10126000207905290BD109498039096A002906D05E
:10127000012803D000F006FC0120207110BD0228D7
:10128000FCD000F0DDFB0220207110BD54040020D2
:1012900018030020F8B500F097F80546464C474F74
:1012A000E079072804D0022802D0002803D00CE0FF
:1012B00000203863F8BD00F0EDF8A06100F0B0F850
:1012C000A169884201D2002038633B4EE079803E1C
:1012D000002810D1F068FFF7C3FC31468039096F50
:1012E00004F08EFA009000F01BF9009904F0CEF99A
:1012F00001D200203863B878002802D1FD620120B5
:10130000B870F86A854201D3281A00E0401B012119
:10131000890288422FD8716A7D20C0004143386B12
:10132000814201D9FA303863706A7D21C90048438F
:10133000396B8842BED87878002814D10420E07137
:10134000012102F003FB03F061FC00221146102092
:1013500000F0DCFB2079002803D10121062002F0F7
:10136000F5FA012078701648006816498842A1DA1B
:101370000520E071F8BD002038637978002919D084
:101380007870E07100221146102000F0BFFB0021B0
:10139000042002F0DBFA207900280BD1B06A002883
:1013A00004D00021062002F0D1FA03E0012106203A
:1013B00002F0CCFAFD62F8BD5404002018030020AE
:1013C000540300200000C84270B5072000F086FAE0
:1013D00010494862104C2178002914D0FFF740FCD6
:1013E000A1680D4604F00CFA0C4904F079F929467D
:1013F00004F006F9A0603F210906A06804F000F996
:10140000FFF7EAFB70BDFFF72BFCA0600120207006
:10141000F1E700005403002018030020AF3AE13E3A
:10142000F8B51A4C1A48C068FFF71AFC0090E1683A
:10143000009804F02BF903D86069FFF7CDFBF8BDE5
:101440002169009804F0A4F903D8A069FFF7C4FB50
:10145000F8BDE16820690E4604F0D2F961690546DD
:101460000F46A06904F0CCF904463146009804F018
:10147000C7F9214604F034F92946FFF7FDFA394649
:1014800004F0BEF8FFF7A8FBF8BD00001803002029
:10149000D4030020F8B51E4802691E4800901E487B
:1014A0001E4EC178002906D18B00F250491C032939
:1014B000FADB0121C17034681046214604F0A0F91E
:1014C000009904F00DF9214604F09AF830600124E7
:1014D000A5007759601E80003058394604F090F915
:1014E000009904F0FDF8394604F08AF87051641C44
:1014F000032CEDDBB068FF21C905C84201D30020F1
:10150000F8BD3F21090604F07BF8FFF765FBF8BD45
:1015100054040020ABAAAA3E1803002000060020B5
:10152000F8B5174C1748C068FFF79AFB0090E169BF
:10153000009804F0ABF801D8606AF8BD216A009801
:1015400004F026F901D8A06AF8BDE169206A0E46C8
:1015500004F056F9616A05460F46A06A04F050F996
:1015600004463146009804F04BF9214604F0B8F8DF
:101570002946FFF781FA394604F042F8F8BD000029
:1015800018030020D403002010B50C49C8790028A6
:1015900006D0022804D0072801D100F0A1F810BD20
:1015A00007480068074A9042F9DB0720C87100220B
:1015B00011460F2000F0AAFA10BD000054040020CC
:1015C000540300200000164470B50A4D68682C468C
:1015D0008034E16888420CD0074E3078401CC0B29D
:1015E0003070032805D900F005FDE0686860002030
:1015F000307070BD54030020BC010020F0B585B0F0
:101600002F497F262F4DF605884203DD28606E6046
:1016100005B0F0BD2968049104F0F2F8074678009F
:101620004008284C2C3CA168039104F0E9F82649B5
:1016300004F056F8039903F0E3FFA0602349FFF795
:101640001BFA0446B44200DD3446FF20C005C44204
:1016500000D300241E49204604F042F81D4903F03F
:10166000CFFFE86002901C49204604F039F81B497E
:1016700003F0C6FF044628616868029903F0C0FFC2
:1016800001902146019803F0BBFF01460198FFF746
:10169000F3F9044668613946204604F021F80499BC
:1016A00003F0AEFF286000902146304604F0A8F811
:1016B000019904F015F86860AF600098A8E7000091
:1016C0000000164448010020CDCC4C3D0000C8422B
:1016D000A4707D3F0AD7233C33339F41CDCCCC3D12
:1016E000FEB50025009501950295002402F0E2FE6A
:1016F000002855D0732804D0D22806D0F5280BD165
:1017000007E00098401C009006E00198401C019002
:1017100002E00298401C0290641C0A2CE6DB0321C4
:10172000684603F085FC4B4E012804D0022805D002
:10173000032808D105E07320F07104E0D220F07195
:1017400001E0F520F07100F09DFDF17905242407FA
:10175000732926D0D22924D001222021204601F04D
:101760004EFC02F065FE00228021204601F047FC7D
:1017700000222021204601F042FC364C203CE5713D
:10178000E01FF938C06AFFF727FAFF213731884296
:101790000DD90220E071002211460F2000F0B6F9A9
:1017A000FEBD01228021204601F029FCD9E77828DE
:1017B00002D20720E071FEBD2648F1790F221423E2
:1017C000A03873291BD0D2292FD0F529F3D1224973
:1017D000C163056445642149816505652049C16689
:1017E0007D21090101673C21416719218167C1679A
:1017F0001C48A0601C48606100F01EFDFEBD1B4936
:10180000C1631B49016445641A498165056564210A
:10181000C1669621016743678267C3671648A06067
:101820001648606100F0E4FCFEBD1549C16315492E
:1018300001644564144981650565C821C166016775
:1018400043678267C2671148A0601148606100F079
:10185000CFFCFEBD740400200000484200803B45E0
:101860006C0700003333F340000010410000F040EB
:10187000CDCCCC3D00803B4433334340000090400E
:10188000000070419A99193E00A00C45666606401A
:101890000000C04010B5FFF7E3F9024903F020FF54
:1018A00010BD0000510AA53D10B5052001220821F8
:1018B000000701F0A4FB00F02BFA074C01220221E3
:1018C000204601F09CFB01221146204601F097FBC7
:1018D00000F01EFA10BD00000014005010B51349AE
:1018E0000A68824212D00860114A002191621149AF
:1018F00092144A60086008460C3000F0DBFE0028B5
:1019000004D00D480121C171FFF712FB09480C30CA
:1019100001F0C4F807480A210C3001F05FF80548CF
:101920000C3000F053FF80B210BD0000C00000205A
:10193000002401408004002054040020F8B51F4911
:101940000A6B0120000502430A630A6B82430A63A3
:101950001A4940310A6802430A600968014000914F
:10196000184C174F2760204600F07CFE164D0126CC
:10197000002802D0EE71FFF7DBFA27600320000792
:1019800060600020A060E06026610421616126762D
:101990006076A076FF21C231E161206209492031E1
:1019A0000871A0620620E062064800F013FF0028DC
:1019B00002D0EE71FFF7BCFAF8BD00000010024043
:1019C000002401408C0400205404002000B585B0A0
:1019D0009720009000200290032001900520694686
:1019E000000701F07BFA05B000BD000010B504212E
:1019F000044801F0FDFA002801D0002010BD0120AC
:101A000010BD00000014005000B587B00A48426BBA
:101A100020210A434263406B084001900420029059
:101A200001200490032005900020039002A90348A0
:101A300001F054FA07B000BD00100240001400503D
:101A400010B586B00D48426B02210A434263406BD9
:101A50000840009020200190012002900020039077
:101A60000491074C01A9204601F038FA01222021F7
:101A7000204601F0C4FA06B010BD0000001002407C
:101A80000004005000B587B00D494A6B02200243A4
:101A90004A63496B0140019120210291039000218A
:101AA000049105900120069002A9064801F016FA5B
:101AB00000F088FB7D200449C000886307B000BDAA
:101AC00000100240000400500004004010B586B031
:101AD0000D48426B01210A434263406B084000906D
:101AE00040200190029100200390022004900524E0
:101AF000240701A9204601F0F1F9002240212046E7
:101B000001F07DFA06B010BD00100240F8B50F4696
:101B10003B4D6969002920D02946A0314978002928
:101B20001BD12C46374E8034002A0CD0030002F023
:101B3000A7F9111415191D215A5E621414141414F6
:101B40001456252914000F2803D0102003F028FD77
:101B500002E00F2003F024FD6684F8BD012003F0AD
:101B60001FFDF8BD022003F01BFDF8BD032003F0AC
:101B700017FDF8BD042003F013FDF8BD0F2003F09E
:101B80000FFDF8BD102003F00BFD002F08D0E86812
:101B9000FF2200B2C332642103F060FA6084F8BD12
:101BA0002079002809D005202056030002F068F9AA
:101BB0000604070A0D101404F1E76684F8BD124804
:101BC0006084F8BD11486084F8BD11486084F8BD98
:101BD0000F489D306084F8BD0E486084F8BD0E202B
:101BE00003F0DEFCF8BD052003F0DAFCF8BD0620AA
:101BF00003F0D6FCF8BD072003F0D2FCF8BD0000CE
:101C0000D40300206E0F00002C0800002C090000F7
:101C10004C0A00003F0C000030B587B01948416BFA
:101C2000012319434163416B19400191426B20210B
:101C30000A434263406B08400190082002900393DE
:101C400000200490022005900524240702A92046C4
:101C500001F044F9032102910B4D02A9284601F03D
:101C60003DF901221146284601F0C9F9012202215D
:101C7000284601F0C4F901220821204601F0BFF9ED
:101C800007B030BD001002400014005010B50648E7
:101C900000F00CF80448503000F008F80248401DED
:101CA00000F004F810BD00000208000070B5044602
:101CB000052000220821000701F0A1F900F028F812
:101CC0000025124E00220221304601F098F920052D
:101CD00005D501221146304601F091F904E00022B9
:101CE0000121304601F08BF900F012F801220221A7
:101CF000304601F084F900F00BF864006D1CEDB281
:101D00000C2DDFD3FFF7D0FD70BD00000014005094
:101D1000002000BF401CC0B20A28FAD37047000060
:101D200070B504460025114E00220221304601F014
:101D300066F9E00505D501221146304601F05FF94C
:101D400004E000220121304601F059F9FFF7E0FFDD
:101D500001220221304601F052F9FFF7D9FF640059
:101D60006D1CEDB2092DDFD370BD000000140050D2
:101D700010B5052000220821000701F040F9FFF707
:101D8000C7FFEFF3108472B6FF204A30FFF7C8FF99
:101D900000F006F8FFF788FD84F3108810BD0000FE
:101DA000F8B50026144F1548855D00240022022155
:101DB000384601F024F9E80705D0012211463846DB
:101DC00001F01DF904E000220121384601F017F965
:101DD000FFF79EFF01220221384601F010F9FFF7BC
:101DE00097FF6D08641CE4B2042CDFD3761CF6B2B6
:101DF0000E2ED8D3F8BD000000140050740500204A
:101E000010B586B01248426B01210A434263406B11
:101E100008400090802001900391002004900290DF
:101E20000C4C01A9204601F059F80B4902914021C0
:101E3000019101A9204601F051F8072001F058F95D
:101E400000221146072001F05DF906B010BD000028
:101E5000001002400004005000002110F8B50646B2
:101E60000024064D01273059401C02D0EF71FFF7C6
:101E70005FF8241D282CF6D3F8BD00005404002080
:101E800010B586B004460021059114216846FEF77E
:101E9000DCF90221009101940124029405A968460D
:101EA00000F09EFE002803D00248C471FFF740F8FE
:101EB00006B010BD54040020F0B5A3B0229016481F
:101EC0002190282658202830209000246D461FE0BD
:101ED000002021990A19431E81000F19B74202D22E
:101EE00057586F5000E06B50401C2028F4D32298C4
:101EF0006A460119012000F057FF002807D0064864
:101F000001217830C171FFF713F823B0F0BD8034A0
:101F100020988442DCD3F8E7DC03002070B5064645
:101F20000024084D3046FFF7C7FF282229463046D7
:101F3000FEF740F9002803D0641CE4B2022CF1D370
:101F400070BD0000DC0300202849274A8A604268EF
:101F5000CA60CA680B46803B5A60C2684A618268A0
:101F60000A6102698A614269CA6182690A62C26958
:101F70004A62426ACA62006A8862C868FF222D32D9
:101F8000642804D3C868FF23C333984200D9CA60C9
:101F900008693223D84202DB0869322801DD0020BB
:101FA0000861486A124B984202D8486A3C2801D21C
:101FB0003C204862C869042801D90120C8618869A9
:101FC000002809D0C869012807D0022807D00328B3
:101FD00002D1FF209130C8607047CA607047FF206F
:101FE0005F30C86070470000ACACACACD4030020DC
:101FF000E703000010B50748C16A491CC1620648E2
:1020000000F010F8054800F00DF8054800F00AF857
:1020100010BD0000D403002000F0000800F8000804
:1020200000FF000870B50546EFF3108472B609484A
:1020300001F01EF800F03EFF2846FFF721FF28467A
:10204000FFF70CFF2846FFF769FF00F09FFE84F3BF
:10205000108870BD8405002010B5EFF3108472B6AF
:10206000034801F005F800F005F884F3108810BD6E
:102070008405002070B51B4C1B4B206B01689942F6
:1020800007D1616B0A689A4203D1A26B15689D4221
:1020900011D0A360FF202D30E0600121616100209C
:1020A0002061A061E16121623C216162A062E06285
:1020B000FFF7A0FF70BD526A496A406A02F088FCCF
:1020C000002807D0012809D00228F3D1A06BFFF720
:1020D0003BFF70BD206BFFF737FF70BD606BFFF7F4
:1020E00033FF70BDD4030020ACACACAC10B50B48D2
:1020F000016A0124214301620A4809490160032160
:102100004160FF210901816000F086FF002803D0B3
:102110000548C471FEF70CFF10BD000040100240DE
:1021200000300040840500205404002010B5002039
:10213000224AFF211154401CC0B20E28FAD3204C71
:10214000A06900281FD0E069012804D002280AD025
:1021500003281CD10FE0FF202D30E060E06880B242
:1021600001F0A4FC13E0FF205F30E060E06880B283
:1021700001F09CFC0BE0FF209130E060E06880B251
:1021800001F094FC03E0E06880B201F08FFC0121D3
:10219000002001F07FFC0A480121803041710021BC
:1021A000042001F0D3FBA06A002803D00021062000
:1021B00001F0CCFBFFF7DCFD10BD00007405002032
:1021C000D403002010B500F0B7F800F0DFF80421C8
:1021D000054801F045FA002804D004480121C171E6
:1021E000FEF7A6FE10BD00001805002054040020D4
:1021F00030B587B00E48416B012529434163406BE0
:102200002840019080200290022003900021049138
:1022100005900695052002A9000700F05FFE054C19
:102220002079002802D1FFF7CDFF257107B030BD1E
:10223000001002407404002030B587B00F48416B95
:10224000012529434163406B2840019020200290E2
:10225000022003900021049105900D200690052096
:1022600002A9000700F03AFE054C2079002802D1AF
:10227000FFF7A8FF257107B030BD00000010024035
:102280007404002010B586B00D48426B01210A434A
:102290004263406B08400090202001900291002092
:1022A0000390022004900524240701A9204600F091
:1022B00015FE00222021204600F0A1FE06B010BD30
:1022C000001002400149886370470000000400408C
:1022D00070B58CB005461C2105A8FDF7B6FF00249B
:1022E00001940294039404940B200590FF20013084
:1022F000089009940A9506940C20079001260B96E5
:1023000005A800F0E5FF0B4D002802D0EE71FEF7A6
:102310000FFE07200190029403940494002101A869
:1023200000F0F4FE002802D0EE71FEF701FE0CB0C2
:1023300070BD00005404002008B50F48C26B022194
:102340000A43C263C06B084000900D480B4901600E
:102350000C49C1602F214160002101618160416110
:10236000816101F0F1F8002804D007480121C17112
:10237000FEF7DEFD08BD0000001002400004004032
:1023800018050020102700005404002010B50B4849
:1023900060210160002181600161C1608161416152
:1023A000416001460422403801F0EAF8002804D0D8
:1023B00003480121C171FEF7BBFD10BD5805002087
:1023C00054040020F8B5194E3068194D6968401A58
:1023D000322803D217494020C860F8BD164C0120AE
:1023E00020708021154800F003FE07464021134865
:1023F00000F0FEFD874201D1012000E0002032689C
:102400006968521A322A00D928702A78904205D079
:102410003368591A322901D8627001E0607028705F
:102420003068686003494020C860F8BDD4000020CF
:10243000C400002000180240540400200004005092
:10244000F8B5194C194F6278510078520521501C8B
:10245000FDF7FDFE61700E460025002430190521B0
:10246000FDF7F5FE4800385AFEF7FAFB0E49A200C8
:102470004431895803F034F9294603F0C1F8054680
:10248000641CE4B2052CE9D3FF20C005C54201D38A
:102490000020F8BD0648854201DD0648F8BD284603
:1024A000FEF79AFB80B2F8BD1C010020DC0500207D
:1024B00000F07F45FF0F00000549002048600548F7
:1024C00041690422114341610348C1060860704715
:1024D000900500200020024021433412054A0021CB
:1024E000516005494A6902231A434A61FF2101608C
:1024F00070470000900500200020024070B50022C7
:102500000C4C636901252B436361EFF3108372B6B2
:102510000125ED0408E040C940C0521CD2B21F2A78
:1025200002D166692E436661202AF4D383F31088B2
:1025300070BD00000020024003494A69CB141A43D1
:102540004A61FF21016070470020024070B50446D7
:1025500000F05CFD0419084D05E000F057FDA042B5
:1025600001D3032070BD2869C043C003F5D50348DB
:102570002861002070BD0000002002401180000092
:1025800010B501F0C5FA02F0B5FD80B2FEF768FBA8
:10259000FEF774FDFEF720FB80B2FFF751FFFEF758
:1025A0005FFB054903F09CF80449FEF765FA04490E
:1025B000FEF762FA10BD00003333534000F07F4550
:1025C0000AD7233CFEB5044600200190254620355D
:1025D000287D01281ED00120287520688168C94304
:1025E000C90734D0A16BFF22013291430226314347
:1025F000A163C1688907890F0091C16889088900B2
:10260000C16020688168D2051143816000F0FEFC42
:1026100007460FE00220FEBD00F0F8FCC01B0228B8
:1026200008D9A06B1021B0430843A063002028758F
:102630000120FEBD206880680028EDDB2068C168AD
:10264000009A1143C160A06BB043A06305E0A06B8A
:1026500020210843A06301200190002028750198E3
:10266000FEBD0000F1B58AB00024114D05AE6F46E5
:102670000A98FFF7A7FF002802D001200BB0F0BD99
:10268000A868A100705040027850641C052CEFDB54
:1026900005216846FEF730FC029840122861E86880
:1026A000686168680121C903084368600020E5E7A4
:1026B00040240140F8B50025002200920446203451
:1026C000227D012A39D00123237502689668760796
:1026D0006AD43A4F4E68BE4250D0966A0F78BB40DB
:1026E0001E4396620123C26A1B079A421FD0012A29
:1026F0001DD0022A1BD0032A19D0042A17D0052A7C
:1027000015D0062A13D0072A11D002688B685669A3
:102710007607760FB3420AD05369DB08DB005361BA
:10272000006842690B7A5B075B0F1A4342610868D5
:102730000B2804D00C2802D03BE00220F8BD204B2F
:102740009A680B2807D00120800502439A60086828
:102750000B2803D02DE00120C005F6E71A481949DF
:102760000068FDF774FD0A214843009002E00098DC
:10277000401E009000980028F9D11AE0906A0E7867
:10278000B3409843906208680B2801D00C2810D100
:102790000B498A680B2804D00120800582438A6097
:1027A00007E00120C005F9E7816B20221143816316
:1027B0000125002020752846F8BD0000011000000A
:1027C0000027014040420F004C0300200068006CCD
:1027D00070470000F8B504460025002C05D0A06B1A
:1027E00026462036002802D007E00120F8BD002050
:1027F000E0633075204600F0A1F8A06B1022C006FF
:1028000000287DDB20688168490779D4A16B13011A
:10281000994302231943A1638168C943C9070CD0B6
:10282000C16818239943A3681943C16020680169EE
:10283000636809010909194301612068C1683D4BBA
:102840001940C160207EE16880030143607EA36A75
:102850004703012B02D001231B0300E000231F4389
:1028600023693943022B09D00023194333795B00D4
:102870001943A67E0123012E02D00AE00423F4E7C7
:10288000002826D0A06B20263043A063E06B1843BD
:10289000E063E0690646FF3EC23E02D0266A30434E
:1028A00001432068C6680E43C6600126E06A360709
:1028B000B04212D0012810D002280ED003280CD02C
:1028C00004280AD0052808D0062806D0072804D0F6
:1028D0000FE0012000040143DBE720684669F608A9
:1028E000F600466120684669A78D7F077F0F3E434B
:1028F00046612068C068104E3040884209D100E02F
:1029000011E00020E063A06B80088000401CA06301
:102910000DE0A06B022188431043A063E06B1843D5
:10292000E063012503E0A06B1043A0630125284666
:10293000F8BD000019C2FEFFE7FF3FC370B586B0C7
:102940000546142101A8FDF780FC21490A680120F1
:1029500002430A600A68024000921D4A403A936BA3
:1029600003439363936B03400093536B034353639D
:10297000526B024000920B68020513430B6009681A
:10298000114000910190032002900026039605203B
:1029900001A9000700F0A2FA002000F0B5FD0E4CDE
:1029A0000C4820606660A660E660401520618000EB
:1029B00060612020A06103200003E061204600F058
:1029C00099F8204600F0C6F82C63656206B070BD29
:1029D00040100240080002400C060020F8B50446F2
:1029E0000D4627466069203708280BD02068C0684C
:1029F000C00709D0A06B20210843A06300203875D0
:102A00000120F8BD082600E00C2600F0FFFA009037
:102A100011E0681C0FD0002D05D000F0F7FA0099E6
:102A2000401AA84207D9A06B04210843A0630020E4
:102A300038750320F8BD206800683042E9D0A06BEB
:102A4000012149020843A0632068C1680C220905DE
:102A5000890F00291AD1617E002917D10168090761
:102A600014D5816801234907002908DB4168914397
:102A70004160A06B190288431843A06306E0A06B75
:102A800020210843A063E06B1843E063207E002808
:102A900001D1206802600020F8BD000070B5044636
:102AA00020688068400720D425462035287D0128ED
:102AB00019D0012028752046FEF7EEF9002811D123
:102AC000A16B0B4A1140FF2201321143A163002187
:102AD000E163297522681C21116021688A6804233A
:102AE0001A438A6070BD022070BD022070BD0000D4
:102AF000FEF1FFFF70B50446002C24D02068016869
:102B0000490849000160206800250560206845608B
:102B1000206885602068C5600C4920684018142131
:102B2000FDF795FB800020640949E16301228240A2
:102B30004A60A562E56225636563A563203465701C
:102B40002570002070BD012070BD0000F8FFFDBFA2
:102B50000000024070B50446002C26D014482568B9
:102B600014212818FDF773FB800020641148E063EE
:102B700002212046203041702A680F490A40A3688C
:102B8000616826691943E36833431943636919434C
:102B9000A3691943E3691943114329600021A16323
:102BA000012242700170002070BD012070BD000044
:102BB000F8FFFDBF000002400FC0FFFF70B50446E4
:102BC00000F024FA0546601C02D00448406824182E
:102BD00000F01CFA401BA042FAD370BDCC000020CC
:102BE000F8B504460E46012563480178012969D0ED
:102BF00001210170614840680004400F60490B6882
:102C00008200604882581068C7B2BC46BB4229D1D6
:102C10004B68C701FF0DBB4224D10B690004000EB5
:102C200083421FD18B685068C7B2BB421AD1CB68B0
:102C30004001400D834215D148699368DB03DB0BEB
:102C400098420FD18869D368DB03DB0B984209D126
:102C5000CB69106987B2BB4204D10B6A8000800C3B
:102C600083421ED0604608601068C001C00D4860F5
:102C700010880004000E08611079886050684001D7
:102C8000400DC8609068C003C00B4861D068C003A5
:102C9000C00B8861108A80B2C86110698000800C06
:102CA00008627D272068FF0004280DD002281CD070
:102CB0000121C90288425AD13846FFF747FC002853
:102CC00036D054E00220F8BD3846FFF73FFC00281C
:102CD0004DD1FFF7F1FB3846FFF738FC05462A498E
:102CE000486904229043486141E07D20C000FFF71D
:102CF0002DFC00283BD1401E3060676811E038464B
:102D0000FFF7ECFB7D20C000FFF720FC05461E48C6
:102D10004169022291434161280001D0376026E0D9
:102D20008037A0686168C0014018B842E7D81EE04B
:102D30000020C0433060E76813E03846FFF7FCFB33
:102D40007D20C000FFF702FC05460F484169C21410
:102D500091434161280001D0376008E00120000361
:102D60003F182069E16800034018B842E5D80248DE
:102D7000002101702846F8BD900500200010024097
:102D800000210240D05800080020024001200549DF
:102D90004A69C3071A434A614969002900DA0020D9
:102DA0007047000000200240F7B50F463C4C2078E9
:102DB00001285AD0012020703A4840680004400F92
:102DC00039490D688200394880580268D3B29D4263
:102DD00029D14D68D601F60DB54224D10D691204F2
:102DE000120E95421FD18D684268D6B2B5421AD1F3
:102DF000CD685201520D954215D14A698568ED039F
:102E0000ED0BAA420FD18A69C568ED03ED0BAA420A
:102E100009D1CD69026996B2B54204D10D6A92001A
:102E2000920C95421DD00B600268D201D20D4A600F
:102E300002881204120E0A6102798A604268520105
:102E4000520DCA608268D203D20B4A61C268D203B3
:102E5000D20B8A61028A92B2CA6100698000800C3A
:102E60000862780603D00120FEBD0220FEBD7D254C
:102E7000ED002846FFF76AFB00280DD1384602997D
:102E8000FFF73CFB2846FFF761FB09494A695208F6
:102E900052004A610028E9D100212170FEBD0000E6
:102EA000900500200010024000210240D058000888
:102EB00000200240002006494A69002A07DA054A34
:102EC0008A60054A8A604969002900DA0120704752
:102ED0000020024023016745AB89EFCDF0B5002209
:102EE0007CE001249440A4462340002B75D04C681C
:102EF000022C01D0122C0CD1D408A40027183D6A52
:102F00005407E40E0F26A640B5430E69A6402E4393
:102F10003E62066855000324AC40A6430F79BF0704
:102F2000BF0FAF40374307604E68012E05D0022E19
:102F300003D0112E01D0122E0ED18668A643CF6881
:102F4000AF403743876047686646B7430E79F60659
:102F5000F60F96403E434660C668A6438C68AC4078
:102F60003443C4604C68E40037D595081E4CAD006E
:102F70002F193D6E9407E40E0F26A640B543052693
:102F80003607B04201D1002605E0184EB04201D10B
:102F9000012600E00226A6402E43134D3E66124E47
:102FA000803634689C434F68FF0300D51C4334606F
:102FB00074689C434F68BF0300D51C4374602C6841
:102FC0009C434E68F60200D51C432C606C689C4301
:102FD0004E68B60200D51C436C60521C0B681C4640
:102FE000D44000D07DE7F0BD00180240000400503E
:102FF0000069084201D00120704700207047002A74
:1030000001D081617047816270470000014880688B
:1030100070470000CC00002070B50446002C0FD093
:1030200021681048086021680F48086021686068BE
:1030300048602168A0688860FFF7E8FF054608E05F
:10304000012070BDFFF7E2FF401B302801D90320AB
:1030500070BD2068C0680028F4D12168034808606A
:10306000002070BDCCCC000055550000AAAA00007D
:10307000006802490160002070470000AAAA000011
:10308000024881684268891881607047CC0000203E
:1030900010B50024032000F009F8002801D0012415
:1030A00001E000F023F8204610BD000070B5054691
:1030B00000240C4E7068002811D00B4800F02CFA48
:1030C000002801D001240BE0042D06D2002229465D
:1030D000501E00F017F8356002E0012400E00124E2
:1030E000204670BDCC000020C05D0000704700008D
:1030F000C106C90E012088400149086070470000E0
:1031000000E100E010B500F029FD10BDF8B504465F
:103110000D46002C0FD04D480068C007C00FA842D4
:1031200018D24A4F38684008400028433860FFF7FB
:103130006DFF064609E00120F8BDFFF767FF811B20
:103140004348814201D90320F8BD3868C007C00F49
:10315000A842F2D120683F4E81070DD5400704D523
:10316000B068072109030843B060B0680F21090265
:103170008843A1680843B0602078C0072DD06068FC
:10318000012808D000280BD032494031096A89074C
:103190000BD40120F8BD3168890306D40120F8BDA5
:1031A0003168490501D40120F8BDB168C908C900DA
:1031B0000143B160FFF72AFF074607E0FFF726FF4C
:1031C000C11B2348814201D90320F8BDB0683821D2
:1031D00008406168C9008842F0D11C480168C907ED
:1031E000C90FA94216D9016849084900294301605D
:1031F000FFF70CFF074607E0FFF708FFC11B144865
:10320000814201D90320F8BD10480068C007C00FF3
:10321000A842F1D12078400706D5B06807210903FC
:103220008843E1680843B06000F01CF8B1683C22B4
:1032300089091140084A515CC906C90EC8400749AE
:10324000086007480068FFF731FFF8BD0020024022
:103250008813000000100240045900084C030020AD
:10326000CC00002000B585B0142216496846FCF752
:103270006BFF154881688906490F0CD08168890663
:10328000490F012918D080688006400F032815D007
:10329000002005B000BD016889044A0F012191405A
:1032A00040680004400F042800D9002080006A46CE
:1032B0001058FCF7CCFFECE70448EAE70120C00314
:1032C000E7E70000F05800080010024000366E01E9
:1032D000F8B50446002C1DD020783827C007864D4D
:1032E000002856D0A8683840082815D06068002803
:1032F00007D0A068002817D029690C229143014308
:10330000296101216068090488420FD128680843B7
:1033100028601EE00120F8BD2868800339D5606868
:10332000002836D10120F8BD0120F8BD0523012277
:103330001B049204984206D128681043286028682C
:103340000843286005E0286888432860286890437F
:103350002860606800280ED0FFF758FE064606E099
:10336000FFF754FE801BC82801D90320F8BD286848
:103370008003F5D50DE0FFF749FE064606E0FFF7AE
:1033800045FE801BC82801D90320F8BD28688003AA
:10339000F5D42078800772D5AE683E40002E12D05A
:1033A000FF20E1680130002958D029680722D202A5
:1033B0009143226911432960296801432960FFF77D
:1033C00025FE064640E02868400502D5E068002852
:1033D00009D068686169000C000408436860FFF761
:1033E00015FE074608E00120F8BDFFF70FFEC01BE1
:1033F000022801D90320F8BD28684005F5D5002E24
:1034000013D128680721C90288432169084328602D
:10341000FFF728FFA9683C2289091140374A515C0F
:10342000C906C90EC8403649086036480068FFF72B
:103430003DFE002823D00120F8BDFFF7E7FD801BEB
:10344000022801D90320F8BD28684005F5D5686831
:103450006169000C00040843686010E0296881433A
:103460002960FFF7D3FD064606E0FFF7CFFD801B7E
:10347000022801D90320F8BD28684005F5D420783A
:10348000000736D5A8681C4D8006400F403503283C
:103490000AD0A06900281AD0286A012108432862AE
:1034A000FFF7B4FD04460EE0286A800721D5A06925
:1034B00000281ED10120F8BDFFF7A8FD001B02283F
:1034C00001D90320F8BD286A8007F5D511E0286AE4
:1034D000400840002862FFF799FD044606E0FFF728
:1034E00095FD001B022801D90320F8BD286A80073A
:1034F000F5D40020F8BD0000001002400459000877
:103500004C030020CC0000200249CA690243CA6172
:10351000704700000000014010B50949401E884274
:1035200001D9012010BD074C60610321081F00F084
:1035300015FB0020A06107202061002010BD0000C5
:10354000FFFFFF0000E000E070B50446002C05D04E
:1035500025462035687F002802D006E0012070BD96
:1035600000202877204600F00AF802206877211D05
:10357000206800F033FB01206877002070BD7047A1
:10358000F8B504460E4625462035287F01280DD083
:1035900001202877022068770427002A08D0042A0F
:1035A00019D0082A2ED00C2A55D13EE00220F8BDB1
:1035B0003146206800F05EFB2068816908221143D3
:1035C000816120688169B9438161206881693269BC
:1035D000114381613FE03146206800F089FB20689B
:1035E00082690121C9020A4382612068816901223E
:1035F000920291438161206881693269120211430C
:10360000816128E03146206800F0B2FB2068C26981
:1036100008210A43C2612068C169B943C1612068B9
:10362000C16932691143C16115E03146206800F07B
:10363000DFFB2068C1690122D2021143C161206809
:10364000C269012189028A43C2612068C169326965
:1036500012021143C1610120687700202877F8BD6C
:1036600010B504460122206800F0F6FA0D482168E2
:10367000814205D00C48814202D00C48814204D1DD
:10368000486C0122D20310434864206881684907CE
:10369000490F062903D0016801221143016000206F
:1036A00010BD0000002C01400044014000480140D2
:1036B00008B540210268C9431160026849101160D1
:1036C00000680168416800910168416800910168E3
:1036D0004168009101684068009008BDFEE7000065
:1036E000074BDA1E1978002805D0002010705170A1
:1036F0003720907070471170D87B50709070704771
:10370000DE000020F0B530490820CE7906404F7A1F
:103710000740BC46CA7A024096462C480078C20749
:10372000140F0222034613405B001C43042305468A
:103730001D406D082C430507ED0F2C430C72C40689
:10374000E40F2643202405462540ED082E4340255E
:10375000284040090643CE711C484078C607360F02
:10376000074617407F003E4307461F407F083E4301
:103770000707FF0F3E438E72C6066746F60F3743B4
:1037800006462640F60837432840400907434F7253
:103790000E488078C607360F024052001643024694
:1037A0001A40520816430207D20F16430E73C3067F
:1037B0007246DB0F1A4303462340DB081A432840B6
:1037C00040090243CA72F0BD74050020DB000020EE
:1037D00070B51749174C20780207120F0A71102292
:1037E000034613409D088306DB0F1D43402318400A
:1037F000400905434D71607805072D0F8D70054612
:103800001540AD088606F60F3543184040090543BC
:10381000CD70A0780407240F0C7002409208840633
:10382000E40F22431840400902434A7070BD000073
:1038300074050020D800002010B5002804DB80B2F9
:10384000012100F027F910BD404200B2632800DDDD
:1038500063200A21FCF705FDCCB20A21FCF701FD2B
:10386000C9B2044840220270C21C515C4170115D13
:10387000817010BDDB00002070B504460E48844204
:1038800000D904460A212046FCF7E1FC0D460A2136
:10389000FCF7DDFC0E4664212046FCF7D8FC0A212B
:1038A000FCF7D5FC0548C21C535D8370935D4370E3
:1038B000515C017070BD0000E7030000DB000020D8
:1038C000054A0028917903D0042001439171704783
:1038D000FB2001409171704774050020054A0028C3
:1038E000917903D00220014391717047FD2001407E
:1038F0009171704774050020054A0028917903D022
:103900000120014391717047480840009071704751
:1039100074050020054A0028917903D0082001434E
:1039200091717047F7200140917170477405002034
:10393000054A0028517A03D008200143517270478C
:10394000F7200140517270477405002010B50246FF
:103950000846130000F094FA0705080B0E1114171F
:103960000700FFF7C9FF10BDFFF7B8FF10BDFFF755
:10397000A7FF10BDFFF7CEFF10BD00F007F810BD88
:10398000FFF7D6FF10BD00F00FF810BD054A002864
:10399000D17903D008200143D1717047F72001404D
:1039A000D171704774050020054A0028D17A03D0F0
:1039B00008200143D1727047F7200140D17270474F
:1039C0007405002002480021017041708170704729
:1039D000DB00002010B5002902D0FFF781FE01E0D6
:1039E000FFF7F0FFFFF78EFE10BD000070B5002955
:1039F00030D01B4A0024D31C4025997B03281BD0C0
:103A000006DC002809D001280CD0022824D10EE0C1
:103A10000F2816D010281FD118E014705170187894
:103A2000907019E0147051705878907014E0147010
:103A30005170987890700FE06D20107055709170F3
:103A40000AE014705170D87B907005E015705570C5
:103A5000957001E0FFF7B6FFFFF754FE70BD000060
:103A6000DB00002010B500290CD0002802D0FFF7A1
:103A7000E3FE09E0064806490078C91E0870487050
:103A8000887001E0FFF79EFFFFF73CFE10BD0000CD
:103A9000DE00002010B5002902D0FFF7EDFE01E0A6
:103AA000FFF790FFFFF72EFE10BD000070B5064631
:103AB0000A213046FCF7CBFB0D460A21FCF7C7FB79
:103AC0000C4664213046FCF7C2FB0A21FCF7BFFB21
:103AD0000B460548415D821F9170015D5170C05CCD
:103AE0001070FFF775FE70BDDE00002010B50928CC
:103AF00000D9092005490A5C881F82700978417045
:103B000073210170FFF764FE10BD0000DE0000208D
:103B100070B506461E213046FCF799FB0C4C0D4D46
:103B2000A1888E4209D9A080FDF792F8294601F0BC
:103B3000D7FDFDF751F880B270BD3046FDF790F823
:103B4000294601F0CDFDFDF747F8A080304670BD55
:103B50001C0100203333333F704700008307FF22EE
:103B6000DB0E9A408907090E994000280BDA0007FE
:103B7000000F0838830808489B001818C36993434E
:103B80000B43C3617047830804489B0018180368FF
:103B900093430B430360704700ED00E000E400E056
:103BA0007047704710B5FFF76BFA10BD08494868B9
:103BB000084A000C92880004D204D20C104301225F
:103BC000520310434860C8030349886070470000EF
:103BD00000100240000FFF1F00ED00E070B502680A
:103BE000184C194EA04201D0B04204D170251346A2
:103BF000AB434A681A43154B154DA04208D0B0425A
:103C000006D0144EB04203D0984201D0A84204D14D
:103C100003263602B243CE6832438026B2434E6951
:103C2000324302608A68C2620A688262A04203D09C
:103C3000984201D0A84201D1096901630121416183
:103C400070BD0000002C0140000400400044014011
:103C5000004801400020004010B5C906C90E0123EC
:103C60008B40046A9C430462036A8A4013430362E4
:103C700010BD0000F0B5026A520852000262056AE7
:103C8000436882697024A243920892000C6814432E
:103C9000022295438A682A43124E134FB04204D041
:103CA000B84202D0114DA84206D10825AA43CD68DA
:103CB0001543042295432A46B04204D0B84202D0AC
:103CC0000A4DA84208D1FF250135AB436D00AB4337
:103CD0004D691D438B692B4343608461496841638F
:103CE0000262F0BD002C0140004401400048014048
:103CF000F0B5026A10239A430262046A436882693B
:103D000007252D03AA4303252D02AA430D682D0282
:103D10001543202294438A6812012243114EB04277
:103D200007D180271446BC43CA68120122434024AD
:103D3000A243B04205D00C4CA04202D00B4CA04292
:103D40000AD10124A402A3436400A3434C69A40044
:103D50001C438B699B0023434360856149688163F1
:103D60000262F0BD002C01400044014000480140C7
:103D7000F0B5026AFF2301339A430262046A436882
:103D8000C2697025AA43920892000D68154301226A
:103D9000520294438A6812022243124EB04207D163
:103DA000C7141446BC43CA68120222430415A24336
:103DB000B04205D00C4CA04202D00C4CA0420AD11B
:103DC00001242403A3436400A3434C6924011C433E
:103DD0008B691B0123434360C5614968C16302626B
:103DE000F0BD0000002C01400044014000480140AB
:103DF00070B5026A01231B039A430262046A426897
:103E0000C36907252D03AB4303252D02AB430D6882
:103E10002D021D4301235B039C438B681E03264335
:103E20000A4B984205D00A4B984202D0094B98425F
:103E300006D10124A4031346A3434A6992011A43FD
:103E40004260C56149680164066270BD002C014092
:103E5000004401400048014010B5084C206800684B
:103E6000C043800601D400BF02E00448FFF720FCF5
:103E700020202168C043086010BD0000CC04002051
:103E800030B47446641E2578641CAB4200D21D46D3
:103E9000635D5B00E31830BC1847000010B5FDF708
:103EA000A5FD0A498A6890420AD08860002807D098
:103EB000002211461020FDF729FE0548002141850A
:103EC00000F034F800F006F810BD0000BC0100203E
:103ED0005404002070B5144C0025E078002817D059
:103EE000E570207900280AD000F03CFD0022114640
:103EF0000F20FDF70BFEFEF77DF8257108E000228C
:103F000011460120FDF702FE00F070FD0120207136
:103F10002079002806D0A078002803D0A5700120C1
:103F200000F076FB70BD00005404002070B5FDF772
:103F30005DFD002412490123124A00280ED090880A
:103F40000F2801D2401C908090880F2805D350780C
:103F5000002802D1CB705370947070BD9088451EBC
:103F60000E2D00D28B700F2806D35078002803D076
:103F70009078002800D193709480547070BD000038
:103F800054040020BC01002010B5174840780028D8
:103F90000ED00300FFF774FF110C0A0D10131F223F
:103FA000250C0C0C0C0C0C1C16190C0001F016FA4C
:103FB00010BD01F07DFA10BD01F044FA10BD01F012
:103FC000ABFA10BD01F0FAF810BD01F011F910BD07
:103FD00001F038F910BD01F065F910BD01F0CAF922
:103FE00010BD01F093F910BD74040020F0B587B046
:103FF00006460C4602962146404D029801F000FC10
:1040000047007F087F20C0050021864209DA002092
:104010003B4A8300D150401C0628FADB002007B041
:10402000F0BD3848374E8079A03E0690326E05923A
:10403000002827D00598FCF7CFFDF16E06228842B4
:1040400007D201202E49131A9B00CC50401C052892
:10405000F9DD2D48807800280AD101202849131A5B
:104060009B00CC50401C0628F9DD274801218170B7
:104070002648874201DD264D06E02648874203DABE
:10408000254D01E0204881702946029801F028FB67
:1040900004467F202946C00501F0B2FB184F04906A
:1040A000396801F01DFB214601F0AAFA38600124AD
:1040B000601E80003858294601F012FB0190A100D3
:1040C00003910498795801F00BFB019901F098FADB
:1040D00003997850641C062CEADB069800280BD064
:1040E0000598FCF779FD316F884205D23F2109061A
:1040F000786901F085FA92E7386990E7CDCC4C3DBC
:10410000E8050020740400201C0100200000C841C4
:10411000CDCCCC3D000020410AD7233CFEB5009019
:10412000009801F06DFB44003B4F6408BC603B4EBF
:104130003F252D06B4420ADA31462046FCF79CFCA6
:10414000374901F0CDFA294601F05AFA0DE031461F
:10415000204601F055FB3146FCF78EFC0221FCF7AE
:1041600083FD8121C90501F04BFAA84200DA2846F7
:1041700041252D06A84200DD2846F8600290314610
:104180008C420ADA2046FCF777FC264901F0A8FAAF
:104190007F21C90501F034FA0DE00E46204601F0FA
:1041A0002FFB3146FCF768FC0221FCF75DFD812105
:1041B000C90501F025FA7F24E405A04200DA204673
:1041C000A84200DD2846054638617868029901F06A
:1041D00017FA06462946304601F012FA01463046E3
:1041E000FCF74AFC786101903D680098294601F08F
:1041F00007FB019901F074FA294601F001FA05461E
:1042000038602046019901F0FBFA314601F068FA66
:1042100078602846FEBD0000A40100200000204177
:10422000000060400000404070B53C4905254D57F6
:104230003A4C00210122803C2B00FFF721FE0710A1
:1042400005111D333F6210006069002801D06161D3
:1042500000E0626160690121C0B2FFF7BBFB70BD85
:10426000A069002801D0A16100E0A261A06901213C
:10427000C0B2FFF7AFFB70BD002806D0206932281E
:104280000ADA2069401C206106E020693221C84218
:1042900002DD2069401E20612069012100B2FFF784
:1042A000E1FB70BD206A002801D0216200E022629B
:1042B000206A0121C0B2FFF78DFB70BD00280DD030
:1042C000606A174DA84204D200F02CF8616A4018C9
:1042D0006062606AA8420ED965620CE0606A41289B
:1042E00004D900F01FF8616A081A6062606A3C280D
:1042F00001D23C206062606A012100B2FFF7B2FB8C
:1043000070BDA06A002801D0A16200E0A262A06A8C
:104310000121C0B2FFF75EFB70BD00005404002015
:10432000E703000010B51C4800681C4A0023916890
:10433000002903D19060D060938013709168192494
:10434000411A6401A14202D9D06093801370D168F0
:104350007D24411AE400A1420BD39188032905D999
:104360001178FF2903D2491C117000E0137093806B
:10437000D0609188491C91809060052011780029B7
:1043800005D0042900D904210A204143C8B22828B5
:1043900000D9282010BD0000D4000020C801002052
:1043A00010B506480178002907D000214185017029
:1043B000034A1170407800F005F810BD5404002045
:1043C000BC01002010B50C490979002907D0FFF77E
:1043D0002BFF002211461020FDF798FB10BD00F0C6
:1043E000C5F8002201211020FDF790FB02480021B2
:1043F0002030817110BD00005404002010B5002051
:10440000FDF76CFA044CA060FCF7D0FEA062FCF74C
:10441000FFFDA06410BD00005403002010B504206F
:10442000FDF75CFA0149886110BD000054030020CB
:1044300010B50120FDF752FA024CE060FDF72AFAB0
:10444000E06210BD5403002010B5FCF7EDFD0149FA
:10445000C86410BD5403002010B5FDF713FF012000
:10446000FEF7ACFB0220FDF739FA104C2061104931
:10447000C979732904D0D22906D0F5290BD107E0D8
:1044800000F09CFC206306E000F0DAFC206302E010
:1044900000F018FD206305488030C068FCF7E0FBA1
:1044A0000146206BFDF7AAF8206510BD54030020DB
:1044B0007404002010B5FFF7B1FF0B48012180699B
:1044C000C902884201D9F52010BD0721C9018842DF
:1044D00001D2D22010BD054940180549884201D2B9
:1044E000732010BD002010BD540300207FFCFFFF8F
:1044F0007F02000010B50E498878002812D00020F5
:1045000088700C490A79002A0BD1C979042908D08E
:10451000052906D0074980398969002904D000F0AF
:104520000BF810BD0120EBE7012000F005F810BDED
:10453000C80100205404002010B50B49CA69012AA3
:1045400008D0022A0BD0032A03D101460020FFF72E
:10455000FDF910BD01460220FFF7F8F910BD014634
:104560000120FFF7F3F910BDD403002070B5274CEC
:10457000A169002926D0002806D0E069032809D2C5
:10458000E069401CE06105E0E069012802D9E069CA
:10459000401EE06101210020FFF7D8F90121084603
:1045A000FFF7D4F901210220FFF7D0F9E0693221A9
:1045B000401E4843FF302D30E060E06880B2FFF7D6
:1045C00075FA70BD00280ED0E068FF25C335A842FB
:1045D00004D2FFF7A7FEE1684018E060E068A84257
:1045E0000ED9E5600CE0E068692804D3FFF79AFE75
:1045F000E168081AE060E068642801D26420E060A5
:10460000E06880B2FFF752FA70BD0000D4030020CA
:1046100010B5314C002809D06079401C607105202C
:10462000205606280BDD0120607108E06079401EED
:10463000607105202056012801DA062060710520EE
:10464000205680B2FFF752FA05202056224C030074
:10465000803CFFF715FC070E050F19232D370E00C0
:1046600000210620FFF772F960690121C0B2FFF74F
:10467000B1F910BD00210620FFF768F9A0690121FA
:10468000C0B2FFF7A7F910BD01210620FFF75EF9C0
:104690002069012100B2FFF7E5F910BD00210620D5
:1046A000FFF754F9206A0121C0B2FFF793F910BD5A
:1046B00000210620FFF74AF9606A012100B2FFF7E6
:1046C000D1F910BD00210620FFF740F9A06A0121B1
:1046D000C0B2FFF77FF910BD54040020F8B534498B
:1046E0000025086E4200120E002A41D08A6E002A70
:1046F0003ED0896DFCF7C0F901467F22D205914278
:1047000000DD1146FF20C005C14200D30021294E23
:10471000294F2A4800F0E4FF394601F065F80446C5
:104720003146204600F0B2FF00D2344639462046DA
:1047300001F02EF800D23C46214E2046314601F0D1
:104740005FF83146FCF798F9FCF746FA82B21D494A
:104750004878002814D0C888401C80B2C88001283E
:1047600021D3CD804D7000210520FFF7EFF8F8BD73
:104770001448C580457000210520FFF7E7F8F8BD13
:10478000C888401C80B2C880904207D3CD800120E9
:10479000487001210520FFF7D9F8F8BD0021052058
:1047A000FFF7D4F8F8BD01210520FFF7CFF8F8BDD9
:1047B000D40300200000484300007A4500806D4586
:1047C0000000C842C801002010B5FFF717FE0548D9
:1047D0000549806C884204DD04480621C171FCF75C
:1047E000A7FB10BD54030020000096425404002093
:1047F00070B5052020210007FEF7FAFB134D144C7D
:10480000002814D00120FDF769F8E86080B2FDF7B8
:10481000B7FEFCF707F900222346FBF7DFFFE202B1
:104820000C4BFBF7DBFFFBF7C3FDE86670BD002018
:10483000E860FDF7A5FEFCF7F5F800222346FBF73C
:10484000CDFFFBF7B5FDE86670BD00005403002006
:1048500000003840CCCCEC3FFEB5404DE868FCF79A
:10486000FFF929468039096F019100F0BDFF400032
:10487000400800903A4FFE69761CFE612C46A03439
:10488000A079002808D0286EFCF7A6F9296F884285
:1048900002D20A20B86101E00120B8617969B869E3
:1048A000721A824215D3081878612C488030017939
:1048B00000290ED1C17900260B00FFF7E1FA082983
:1048C0000A050A11230A0B0A01210020FFF78EF8BE
:1048D000A671FEBD01210320FFF788F8A671FEBD79
:1048E0001E4D0198803DFCF777F93969884207D25F
:1048F00080B20121FFF7CEF8286FFCF76DF938611F
:10490000A671FEBD01211020FFF770F8A671FEBD53
:10491000A96A002907D00069FCF75EF980B201217D
:10492000FFF7B8F806E00198FCF756F980B20121CC
:10493000FFF7B0F87F210098C905884209DAA0790D
:10494000002804D1002211461020FDF7DFF80120D5
:10495000A071FF20C3303861FEBD0000D4030020E9
:10496000C801002010B501210020FEF7EFFF012152
:104970000846FEF7EBFF01210220FEF7E7FF134C8C
:10498000A069002812D0E069012804D0022806D0CE
:1049900003280BD107E0FF202D30E06006E0FF2068
:1049A0005F30E06002E0FF209130E06007480121C5
:1049B00080304171E06880B2FFF778F8A06A002883
:1049C00003D101210620FEF7C1FF10BDD403002052
:1049D000884203D3904201D300207047814203D321
:1049E000914201D3012070470220704710B5002189
:1049F0000846FEF7ABFF00210120FEF7A7FF0021CC
:104A00000220FEF7A3FF264C0520205680B2FFF7B8
:104A10006DF805202056803C0300FFF731FA070EA1
:104A2000050F19232D370E0000210620FEF78EFFFB
:104A300060690121C0B2FEF7CDFF10BD0021062044
:104A4000FEF784FFA0690121C0B2FEF7C3FF10BDCD
:104A500001210620FEF77AFF2069012100B2FFF74D
:104A600001F810BD00210620FEF770FF206A012129
:104A7000C0B2FEF7AFFF10BD00210620FEF766FFB3
:104A8000606A012100B2FEF7EDFF10BD0021062093
:104A9000FEF75CFFA06A0121C0B2FEF79BFF10BDCC
:104AA0005404002070B50D46174C962809D9616F43
:104AB000401AFCF7D5F8294600F06AFE01D2012021
:104AC00000E00020114B0025197888420DD0002805
:104AD00001D00A2100E004215A88521C92B25A8067
:104AE0008A4203D318705D8000E05D80187800284A
:104AF00004D0606EFCF770F880B270BD206EFCF7D9
:104B00006BF880B270BD0000D403002008010020C3
:104B1000F3B581B007463846029900F0E7F8384609
:104B2000029900F087F80646334CA06E002861D049
:104B30003846FCF795F8029900F062FE05463146CA
:104B4000E06B00F05DFD294600F0CAFDA064294637
:104B5000206C00F0C5FD216D00F0C2FDE16C00F09D
:104B60004FFD0646E0642846E16D00F049FE616CA9
:104B700000F0B6FD6065E5653046A16D00F008FE09
:104B800001D2A06DE0641D4DE06C0026A84200D368
:104B9000E664E16CA06C00F033FD616D00F030FD67
:104BA000014620661448A030C079732804D0D2286A
:104BB00005D0F52808D105E01148606604E01148E9
:104BC000606601E010486066A94200D32666616E07
:104BD000206E00F0DDFD01D2606E2066384602993D
:104BE000FFF760FFFCF73CF82066FBF7F5FF80B2AB
:104BF000FDF768FBFEBD0000D403002000008080AC
:104C00000000AF4400A00C4500401C460748C17995
:104C10008038002907D0002181660166C1640165E2
:104C20000348816370470121816670475404002066
:104C30000004004010B50C46FCF712F8214600F0C5
:104C4000DFFD00210122D20590420BDB064C2146FC
:104C500000F0D6FD0549C96B00F042FD2146FBF787
:104C60000BFF0146084610BD00007041D403002030
:104C700070B5FFF7F1FB1C4C2069FBF7E9FF2546F7
:104C8000803D296D00F0B0FD28602968E06880B2A1
:104C9000FFF73EFF20468030C079022813D0052858
:104CA00011D007280FD0E068FBF7DAFF0646E0686E
:104CB000FBF7D6FF01462868FFF730FA3146FFF7C9
:104CC00095F9286770BDE068FBF7CAFF0646E06803
:104CD000FBF7C6FF01460020FFF720FA3146FFF739
:104CE00085F90020286770BDD4030020F3B581B09A
:104CF00005462846FBF7B4FF07461F481E4CC079FF
:104D00000026803C002801D0A666FEBD1A4820304F
:104D1000C079732804D0D22805D0F52808D105E041
:104D2000FDF766FA04E0FDF763FA01E0FDF784FAA7
:104D3000E06F4019FBF794FF029900F0A7FC03D243
:104D4000E6642664266513E0A06F281AFBF788FF47
:104D5000029900F09BFC0BD23846029900F018FD36
:104D600006D2284600F00AF820647F20C00520659E
:104D7000FFF74CFFFEBD00005404002010B53F2497
:104D80002406642801D8204610BDFF21C331884283
:104D900001D3074810BD6438FBF75AFF054900F0FE
:104DA0009FFC0549FBF768FE214600F029FC10BD79
:104DB0000000A04100009C410000AF43F8B504464C
:104DC0002046FBF708FD164A164BFBF707FD064683
:104DD0000F462046FBF744FF009000F0DFF9FBF799
:104DE00021FE114A114BFBF7F9FC04460D460098D1
:104DF00000F0D9F9FBF716FE0D4A0E4BFBF7EEFC5F
:104E000022462B46FBF78EFC32463B46FBF78AFCDC
:104E1000094A0A4BFBF786FCFBF7CAFAF8BD00000B
:104E2000304CA60A4625EF3F2A4E5A5DF34F35BF58
:104E3000E7A52A8DE517693E9A99999999D582C077
:104E4000F8B504462046FBF7C6FC164A164BFBF79E
:104E5000C5FC06460F462046FBF702FF009000F017
:104E60009DF9FBF7DFFD114A114BFBF7B7FC044638
:104E70000D46009800F097F9FBF7D4FD0D4A0E4B54
:104E8000FBF7ACFC22462B46FBF74CFC32463B467C
:104E9000FBF748FC094A0A4BFBF744FCFBF788FA8E
:104EA000F8BD0000CB10C7BAB88DE83F44B97E0BFF
:104EB000FCF233BF7DAA55D59035733ECDCCCCCC1A
:104EC000CCCC70C010B5FBF7CBFEFBF7ABFD054AB1
:104ED000054BFBF783FC054A054BFBF723FCFBF76F
:104EE00067FA10BD917EFB3A70CEC83FEE7C3F352D
:104EF0005E1A3A4070B5294D2968294C2068091A74
:104F0000142905D314302060FFF7B2FEFFF79CFA96
:104F100029686068091A0A2903D30A306060FFF71C
:104F200033F82968E068091A322903D33230E06087
:104F3000FFF736FA2968A068091AFA2908D3FA3067
:104F4000A060FCF721FBFCF7A5F91648FEF790F8E6
:104F5000296820690A1A7D21C9008A4209D34018AC
:104F60002061FFF7C7FAFFF72FFCFCF72DFBFCF7DA
:104F700073F929686069091A64290BD36430606188
:104F8000FEF78CFFFCF73AF9FFF766FCFFF7A6FB8C
:104F9000FCF7EEFEFFF72CFC70BD0000D4000020F3
:104FA000F000002084050020FFB585B00598446816
:104FB0000598806804900598008802900298401E29
:104FC000800020180390019323E00698016803985D
:104FD00001600698001D06900398001D03900020B4
:104FE00000902546049E029F02CE01CD00F078FB82
:104FF000009900F005FB00907F1E002FF4D1079967
:10500000009808600798001D0790241D0198401E15
:10501000019001980028D8D1059841680298401E57
:1050200002E004CC04C1401E0028FAD109B0F0BD52
:1050300030B5002903D004680025012209E00020D2
:1050400030BD9300C358A34201D91C461546521CDB
:10505000D2B28A42F5D36D1CE8B230BD10B5094C0E
:10506000884201DC208810BD904201DBA08910BD80
:10507000521A401A062148431146FBF7F2F8400045
:10508000205A10BD0A030020FEF702F8FF209130DD
:10509000FDF794FDFCF7C0FDFCF7F8FDFCF7D0FC34
:1050A000FCF714FD12480121008AC903C004C00C9A
:1050B0004018FDF70DF91920FDF780FDFCF7CCFF36
:1050C000FCF7A2FCFDF7DEF8FCF780FCFCF736FCF1
:1050D000FDF72CF8FCF794FEFCF702FBFDF706F851
:1050E000002211461020FCF711FDFFF703FFFCE73B
:1050F000000FFF1FF0B585B0144D154C2A789100B4
:1051000060500521501CFBF7A2F8297000206E4664
:10511000810062587250401C0528F9DB00210020F4
:105120000422571A09E0421C850092007459B358B2
:105130009C4201D97351B450401C8742F3DC491C96
:105140000429ECDB029805B0F0BD00001C01002032
:10515000C805002010B5002802D000F009F810BDE5
:105160000520002240210007FDF749FF10BD000087
:1051700010B500280BD001460548FBF768F8401E23
:105180000449C86240084863496B0348C16110BDC7
:1051900000093D00004401405404002010B50146C0
:1051A00000F09EFA10BD10B504462146204600F0DE
:1051B00097FA214600F094FA10BD000070B50A4C31
:1051C000E08B401C80B2E083012801D100F032F86E
:1051D000E08B322806D30548002545700020FFF7F4
:1051E000B9FFE58370BD0000E801002074040020D1
:1051F00070B50A4C208C401C80B22084012801D15B
:1052000000F010F8208C052806D3054800254570CD
:105210000020FFF79FFF258470BD0000E8010020FB
:105220007404002010B50520012240210007FDF77D
:10523000E6FE10BD10B50520012240210007FDF754
:10524000DEFE10BDF8B5154CFF262178204600255E
:105250009136808C0127002908D0401D80B2A0849F
:105260007D21C900884207D3257005E0401F80B228
:10527000A084B04200D82770A08CFFF76BFF608C31
:10528000401C80B26084C82807D30020FFF762FF6B
:105290006584A684277002484570F8BDE8010020A7
:1052A0007404002070B5174C00252089002814D103
:1052B000E088022806D3E580134845700020FFF7F8
:1052C00049FF70BD0F4940002A31085AFFF742FFDD
:1052D000E088022801D2401CE0802089401C81B275
:1052E0002181094817222038C06900F04BF9208934
:1052F000172802D10020FFF72DFF20891928E0D3BD
:10530000258170BDE80100207404002070B5174CA1
:105310000025A089002814D16089062806D365815C
:10532000134845700020FFF715FF70BD0F4940007E
:10533000F631085AFFF70EFF6089062801D2401C9B
:105340006081A089401C81B2A181094817222038C0
:10535000C06900F017F9A089172802D10020FFF7D3
:10536000F9FEA0891928E0D3A58170BDE8010020CD
:105370007404002070B5174C0025A088002814D1B3
:105380006088032806D36580134845700020FFF726
:10539000E1FE70BD0F4940002E31085AFFF7DAFEDA
:1053A0006088032801D2401C6080A088401C81B224
:1053B000A180094817222038C06900F0E3F8A088CE
:1053C000172802D10020FFF7C5FEA0881928E0D3D6
:1053D000A58070BDE80100207404002070B5174C52
:1053E0000025208A002814D1E089032806D3E5810E
:1053F000134845700020FFF7ADFE70BD0F49400017
:105400003431085AFFF7A6FEE089032801D2401C78
:10541000E081208A401C81B221820948172220386D
:10542000C06900F0AFF8208A172802D10020FFF7EA
:1054300091FE208A1928E0D3258270BDE801002062
:105440007404002070B5174C0025208B002813D160
:10545000E08A092806D3E582134845700020FFF74B
:1054600079FE70BD11494000085AFFF773FEE08ACB
:10547000092801D2401CE082208B401C81B221838C
:10548000094817222038C06900F07CF8208B1728C3
:1054900002D10020FFF75EFE208B1928E1D325837F
:1054A00070BD0000E801002074040020EA02002022
:1054B00070B5174C0025A08A002814D1608A0328F3
:1054C00006D36582134845700020FFF743FE70BD88
:1054D0000F4940003A31085AFFF73CFE608A032822
:1054E00001D2401C6082A08A401C81B2A18209487E
:1054F00017222038C06900F045F8A08A172802D189
:105500000020FFF727FEA08A1928E0D3A58270BDEE
:10551000E80100207404002070B5174C0025A08B12
:10552000002813D1608B072806D365831348457084
:105530000020FFF70FFE70BD11494000085AFFF729
:1055400009FE608B072801D2401C6083A08B401CA1
:1055500081B2A183094817222038C06900F012F8EF
:10556000A08B172802D10020FFF7F4FDA08B19288B
:10557000E1D3A58370BD0000E80100207404002081
:10558000FC02002010B50B461146002805D0CA1AAF
:105590005043FAF75CFE0149486310BD00440140E6
:1055A00000B516490300FEF76BFC110C0A0D101331
:1055B0001F22250C0C0C0C0C0C1C16190C000120C5
:1055C000487000BD0220487000BD0320487000BD37
:1055D0000420487000BD0F20487000BD10204870A6
:1055E00000BD0E20487000BD0520487000BD06209B
:1055F000487000BD0720487000BD00007404002002
:1056000070B501250400ED074C4020D4441A01D2A6
:10561000001B0919C60D4B00F2B2FF2A29D01B0E40
:105620002CD000020C02D31A2C43DC40284305196D
:1056300010D2280A02D3401C6D0611D0761EF60542
:105640008019FF2A00DA70BDC00DC00570BD694029
:1056500000F0DCF801200543C541521C761CE8E748
:1056600064089C40C90161408900E7D10124A0433E
:10567000E4E71B0E440200D0034870BD002AFCD1B1
:10568000C00FC00770BD00BF0000C07F0123020033
:10569000DB050A430DD4DA4203D49A4207D4884288
:1056A0007047D84214D4D94212D4884270478042FD
:1056B0007047DA4203D59A42F9D5814270475B00C0
:1056C0004200DA4204D24A00DA4201D281427047F3
:1056D00010B5024AFBF7EAFA10BD00BF0900160434
:1056E00070B5420064414B005C41120E39D01B0E74
:1056F00038D0FF2A3CD0FF2B3AD040024902400A62
:10570000490A060045184E43000A090AD2184843C0
:10571000ED017F3A0104731A4019190C4318990FCF
:1057200004D001215B0849075B1A521CD80904D335
:10573000401CF50301D19D0607D0FF2A08D2D505EC
:1057400006D0E4072043401970BD0125A843F4E7C3
:10575000002A01DCE00770BD2402FF202043C005C1
:1057600070BD1B0EFF2A03D0FF2B01D0E00770BDD8
:10577000FF2645003606B54206D84D00B54203D88F
:10578000D218FF2A00D0E7E7004870BD0000C07FB4
:1057900001230A00DB0502430DD4DA4203D49A4206
:1057A00007D481427047D94214D4D84212D48142DE
:1057B000704789427047DA4203D59A42F9D5884248
:1057C00070475B004A00DA4204D24200DA4201D25A
:1057D000884270474840414010B5024A4840FBF7B4
:1057E00065FA10BD0900160470B50125ED07684083
:1057F00004004C4002D5694000F008F8FFF706FFAE
:1058000070B501250400ED074C4022D4441A02D2A1
:105810006C40001B0919C60D4B00F2B2FF2A4BD099
:105820001B0E50D000020C02D31A2C43DC40A843BC
:10583000051B05D5AD0019D36D08761E521E37D055
:10584000F605280A01D2801970BD70416D0603D09B
:1058500070BD6940FFF7DAFE9C40090261404900D3
:1058600001D0401E70BD0124A04370BD6D081DD045
:1058700001202B0C01D12D0410302B0E01D12D0253
:1058800008302B0F01D12D01001DAB0F01D1AD0050
:10589000801CEB0F01D16D00401C6D00361A121AEE
:1058A000680AF5054019012A02DB70BD002070BDB1
:1058B000C036300AC00770BD1B0E440201D1FF2B59
:1058C00000D1024870BD002AF0D070BD0000C07F3A
:1058D0001C0FFF1F300FFF1F440FFF1F580FFF1F2C
:1058E0006C0FFF1F1C0FFF1F1C0FFF1F1C0FFF1F44
:1058F00000093D0000127A000024F40040865101A6
:1059000000366E01000000000000000000000000F2
:105910000000000000000000000000000000000087
:105920000000000001000000020000000300000071
:10593000040000000600000007000000080000004E
:105940000900000000093D0000127A000024F40064
:105950004086510100366E0100093D0000093D00FE
:1059600000093D008182838485868788898B8C8DA0
:105970008E8F919293959697999A9C9D9FA0A2A3A2
:10598000A5A7A8AAACAEB0B2B3B5B7B9BCBEC0C2E9
:10599000C5C7C9CCCED1D4D7D9DCDFE2E6E9ECF07B
:1059A000F3F7FAFEC459000800000020800400004C
:1059B000120E0008D45A00088004002030060000AF
:1059C0000401000801CC3204D2010011203F065B23
:1059D0004F666D7D077F6F777C395E7971CB803E36
:1059E0000401102BC0416413A80514200C012A20C7
:1059F0000C5AB80C5940423F250AD7233C43A041DA
:105A0000580C9A99193ECDCC4C3E9A9999085A193E
:105A100058692C1AA32C9B4843843918312A40C159
:105A20000910181A80182904012E0223013A902522
:105A300018092C09270527052C090A400C082C09F0
:105A40004C0A4C0A2C092C082FBF0D6E0F5910045C
:105A50006599146E0F2920880BBF0D3F0CBF0D599F
:105A6000103F0C143AE9048559104C0A2B591002C6
:105A70001C6E0FE9186B6E0F400914560914582953
:105A80009C4956292E88095A125A129914591060A5
:105A90002D6E0FBF0D4E2936A119C019C8494449B2
:105AA000D22BE90A222984296229AA29E2C91CE108
:105AB00023C84233E14322411AA004791022401A3C
:105AC00080047104B5366E0112F012081AF8041A37
:045AD000FF04016F5F
:04000005080000C12E
:00000001FF
