:020000040800F2
:10000000980A002081010008353A0008A935000847
:1000100000000000000000000000000000000000E0
:100020000000000000000000000000007F3A00080F
:1000300000000000000000007D3A0008813A00083E
:100040009301000893010008930100089301000840
:100050009301000893010008930100089122000811
:100060000000000093010008930100080000000058
:1000700093010008930100089301000800000000AC
:10008000930100089301000800000000930100089C
:10009000000000009301000893010008930100088C
:1000A000000000009301000800000000353D00083A
:1000B00093010008000000000000000000000000A4
:1000C00000F002F800F030F80CA030C8083824180E
:1000D0002D18A246671EAB4654465D46AC4201D180
:1000E00000F022F87E460F3E0FCCB6460126334282
:1000F00000D0FB1AA246AB4633431847F056000027
:10010000105700000023002400250026103A01D3D8
:1001100078C1FBD8520700D330C100D50B607047BF
:100120001FB51FBD10B510BD00F012FE1146FFF740
:10013000F7FF00F099FE00F02AFE03B4FFF7F2FF8C
:1001400003BC00F05FFE000070B505460C46164685
:1001500002E00FCC0FC5103E102EFAD2082E02D3AB
:1001600003CC03C5083E042E07D301CC01C5361FBE
:1001700003E021782970641C6D1C761EF9D270BDD5
:100180000748804707480047FEE7FEE7FEE7FEE72F
:10019000FEE7FEE704480549034A054B70470000A7
:1001A000893A0008C100000898060020980A00203B
:1001B00098060020034610B50B439B070FD1042A75
:1001C0000DD308C810C9121FA342F8D018BA21BA1B
:1001D000884201D9012010BD0020C04310BD002A73
:1001E00003D0D30703D0521C07E0002010BD0378D2
:1001F0000C78401C491C1B1B07D103780C78401C51
:10020000491C1B1B01D1921EF1D1184610BD01E003
:1002100004C0091F0429FBD28B0701D50280801C72
:10022000C90700D00270704700290BD0C30702D065
:100230000270401C491E022904D3830702D50280A4
:10024000801C891EE3E70022EEE70022DFE70022A0
:1002500003098B422CD3030A8B4211D300239C4603
:100260004EE003460B433CD4002243088B4231D37B
:1002700003098B421CD3030A8B4201D394463FE00F
:10028000C3098B4201D3CB01C01A524183098B426F
:1002900001D38B01C01A524143098B4201D34B0158
:1002A000C01A524103098B4201D30B01C01A5241BB
:1002B000C3088B4201D3CB00C01A524183088B4242
:1002C00001D38B00C01A524143088B4201D34B002B
:1002D000C01A5241411A00D201465241104670479D
:1002E0005DE0CA0F00D04942031000D340425340A2
:1002F00000229C4603098B422DD3030A8B4212D362
:10030000FC22890112BA030A8B420CD38901921193
:100310008B4208D3890192118B4204D389013AD0D0
:10032000921100E08909C3098B4201D3CB01C01AA5
:10033000524183098B4201D38B01C01A52414309B8
:100340008B4201D34B01C01A524103098B4201D3A6
:100350000B01C01A5241C3088B4201D3CB00C01A13
:10036000524183088B4201D38B00C01A5241D9D22B
:1003700043088B4201D34B00C01A5241411A00D2AC
:100380000146634652415B10104601D34042002BA8
:1003900000D54942704763465B1000D3404201B527
:1003A0000020C046C04602BD70477047704700003D
:1003B0000246C80FC00781434B0030B54B405B007D
:1003C0009B0D20D01923DB06C91801231B05994278
:1003D00020DB0324A40704251346AB400BD3002BDA
:1003E00004D1EB0613409B00E34204D401246407CC
:1003F000002312195941FF231B0599420BD2C90052
:100400000143500F09E0CB0204D501430803024326
:1004100005D0054830BDFF21C905084330BD084659
:1004200007210905884330BD0000C07FF0B50C46A8
:10043000871A9C410D46861A9D4103D2C01BA141DB
:10044000D21963410D0D1F0DC94EEC1BAE435CD09C
:100450007F057F0D0026002F51D02D05AC46A94306
:10046000DD020123ED0A1B051D4320231B1B24D4A1
:100470001746E740381871412F46E740CC199D4098
:100480002818314661410C0D27D161449A4013D59B
:100490000023401C594152000ED140084000012267
:1004A0004B005205D34207D305204007C14201D576
:1004B000B04900E0B0493046F0BD6B00002A00D0E2
:1004C00001229A181F23203C1B1B01D5002302E0A8
:1004D000E540281871410C0DD7D0012424050919D5
:1004E000C407CD0740084908E40F28436144002CA5
:1004F000D5D00024401C61419A40D0D1CDE76A0597
:10050000520DD9D1C90FC907D5E79C4D4E0000281F
:1005100001D0012400E0002434195F00002A01D03A
:10052000012600E00026BE19954FAC420CD8AE4221
:100530000AD8B44206D001256D05EC42BCD0104665
:100540001946F0BD9942FCD000203946F0BDF0B507
:100550001FB40C460F46811A9F412546861A9D41BD
:1005600006D20125ED076F40401ABC4152187B416D
:10057000210D1E0D8D1BAC467D4D8D437ED0750526
:100580006D0D7CD00D05AE46AC431B031B0B794DA6
:1005900052429D41202366469B1B14D31746F740C9
:1005A000381800260090744160462F460741E41930
:1005B00000989D402818664116D4714671189A40DB
:1005C00025D5012320E093182A466A415200002BCA
:1005D00000D0521C1E23203E9B1B002B61DD3541A9
:1005E000EE1728186641E8D5001876415B1C9A4042
:1005F00000D3401C4B05F3181524E34010D3002B07
:1006000052D071467118D30FC01802D3491C05B0DF
:10061000F0BD0123DB079A42F9D140084000F6E71C
:1006200001225205B21801D1002853D00123CC0A6F
:10063000DB029943891E002A08D1020C03D0020C68
:100640000004103902E00246002020390023550B37
:1006500005D112020823550B01D152010D23550C6F
:1006600001D112011B1DD50C01D192009B1C150D4F
:1006700001D152005B1C2025EE1A01E02CE022E0A3
:100680000546F54015439840CA1AE1076918130555
:10069000C918002ABBDA032040070818C10FC90790
:1006A0000FE071466118B2E7F10740080843711086
:1006B00071444A000CD001235B059A42A7D2C90FAE
:1006C000C9070020A3E74905490D26D1002001E014
:1006D0000028F4D100219AE7284D6600002801D0B7
:1006E000012100E0002171185F00002A01D00126DD
:1006F00000E00026BE19224FA94210D8AE420ED803
:10070000B14208D001256D05E94206D01946A8027C
:10071000414010467BE79C4201D0214677E700200C
:10072000394674E710B50C465C4005D50124E40752
:100730006340FFF70CFF10BDFFF778FE10BD30B42B
:100740000C465C4004D50124E407634030BC6DE6F0
:1007500030BCFCE670B50124E40761400D465D4005
:1007600002D4FFF763FE70BD6340FFF7F0FE70BD7B
:10077000FF0700000000F0FF0000F07F0000E0FF36
:100780000000F87F1F22030C02D10F22000402D0C8
:10079000030E03D004E00020014670470002083A2F
:1007A000030F01D10001121F830F01D18000921E9F
:1007B000002801DB4000521E120551184205C012EC
:1007C000411810467047C10FC90700D040420122AE
:1007D00092071143D6E701218907D3E7F0B58B4C87
:1007E0000F09254689B0BD437BD01D092646AE437F
:1007F000FAD00E465E402740F60F3E43254071D0AA
:1008000024012142FBD0FF24AD19A4042D1B039524
:1008100001252D05DB02DB0AC9022B43C90A294346
:100820001E010901040F130F050121431701880B55
:10083000820391432D098C46A90B1E438A039543DD
:10084000B30B9A0396433F09BA0B9403A74302964E
:100850002E467E430497B6464E19D7190C4601968C
:10086000544305977E43371B7646BF1B3601B64679
:10087000BE0B361900967646BC043719009C01D38E
:10088000641C00946400002F01D001263443029EB2
:10089000049F754366467E430496760034196E00C5
:1008A00034190094029C019E1C196643751BAE46C8
:1008B000069465464519059C05956C435943754654
:1008C0000891691A0191049E01465143A41B0491A9
:1008D000611A009C0791E10605D0610901221143CC
:1008E00002E072E06EE06109089D00272C0A2D06E7
:1008F0006918049D7C412A0A2D066918019D6241F0
:10090000AC0DAD026D185441079A910D9202551924
:100910006141029A644658435443069B059A5A43E0
:10092000121A131B9A0E9B015B187A41010B0005EA
:10093000C3185141220A200644195A419A4200D252
:10094000491C01204002814203D315230226F643AD
:1009500002E014230326F6432020C51AA9401746B7
:10096000AF40DA400A4320460399D840091473186F
:1009700019055118039A3843D2075140AC4009D0A9
:100980000122944006D30022401C5141002C01D189
:10099000400840001E4A934212D301220398920657
:1009A000904207DB0520400709181A480143C0128E
:1009B000414004E0032040070818C10FC907002088
:1009C00009B0F0BD0020F107FAE705180C464C41CC
:1009D00011486D42A04115D394181A465A410E4849
:1009E000644290410ED301204A004005824209D35F
:1009F0005A00824206D35940C90F084AC90700204D
:100A00001143DDE700200649DAE700000000FF0798
:100A1000FE070000FFFFFF7F0000E0FF0000F07F07
:100A20000000F87F0121C9050123411842001B067F
:100A3000D3185B0E0AD0C1100722D20689184007CE
:100A40005242D14201D5520089187047090208D597
:100A50000146002A03D0C10FC90700207047104685
:100A60007047420202D00020024970470721090561
:100A70000143F4E70000F87FF0B5FF252D04C60917
:100A8000C209FF2704462E400137CB093E434840A8
:100A90002A402B400746002A6BD0002B69D0AA427F
:100AA00067D0AB4265D0002800DA32460125ED055B
:100AB00029432C4309022002090AD21A4B0C7F2435
:100AC000E31A434C000A7C44E35C7D24240412199D
:100AD00014145B00A218884201D3521C00E04000AD
:100AE00049420C465C4324115C43DB016415E31866
:100AF000040A5C43C502200D0C4644436419250AD0
:100B00005D432303EC0C0D46654300030019EB180D
:100B10004C42A34201D35B18401CD4052018002B83
:100B200007D05B00C91804D3401C002901D140083C
:100B300040003F2189048A4209D3002A08DC1106BB
:100B4000090F04D0032149074018C00FC007F0BDAA
:100B500001224100120689187F2252069142F6D2E4
:100B600005214907C84201D59010F0BDFF20C005FE
:100B7000F0BD002F00DA32461648AA4207D2AB4237
:100B800005D21902090E17D0F80FC007F0BDFF25D6
:100B900063002D06AB42F9D84900A942F6D8AB4212
:100BA00001D1A942F2D0A94201D1002101E06100A6
:100BB0004908D0050843F0BD1102090EFBD0FF2003
:100BC0000243D005F0BD0A460146104654E7000036
:100BD000E24C00000000C07F0102C21504D00123D6
:100BE000DB071943002A0ADB9E239A1A02D408461F
:100BF000D0407047FF2241001206914201D90020E7
:100C00007047C017C04370471F22030C02D10F2248
:100C100000041CD0030E01D10002083A030F01D1D9
:100C20000001121F830F01D18000921E002801DBFA
:100C30004000521ED205511802125118192290403C
:100C400004D3491C002801D14908490008467047CF
:100C5000C10FC90700D04042012292071143D3E7D8
:100C600001218907D0E7000010B5FF22C30D134012
:100C700009D05A4007D0914205DA5C42A14202DD18
:100C8000C905081810BDC40FE407002B06D0002AC0
:100C900006D0002902DBFF20C0050443204610BD1A
:100CA0004102FCD0004810BD0000C07F10B5FF23FA
:100CB0001B0644009C421DD84C009C421AD8034697
:100CC000124A0B4307D4401A02D3EFF3008010BD41
:100CD000EFF3008010BD081A06D2EFF30080012167
:100CE0009043C907084302E0EFF30080904380F38C
:100CF000008810BD0D231B041A4204D011460020A9
:100D000000F006F810BD00F01BF810BD00000090C8
:100D1000C80212D54803400F002804D0C803C043BE
:100D2000012188407047EFF3008000010009032192
:100D30000907084380F300887047002070470000CF
:100D400010B5024800F02BF810BD00000000C07F75
:100D5000754600F053F8AE46050069465346C00894
:100D6000C000854618B020B5FFF714FA60BC002714
:100D70004908B6460026C0C5C0C5C0C5C0C5C0C567
:100D8000C0C5C0C5C0C5403D49008D46704710B5BF
:100D90000446C046C0462046FFF7CFF910BD10B547
:100DA0000C461107090F092904D00A290AD008297D
:100DB0000CD104E011460820FFF7AAFF06E0510617
:100DC00006D501E0510601D50120C007214610BD1E
:100DD000D10607D501010909CC084907000E000614
:100DE000044309E0410F20024907000A0143200E95
:100DF00000061D22D14101430846E7E7004870473D
:100E00003806002001491820ABBEFEE7260002008C
:100E1000704770B58C180578401C6B075B0F01D1CB
:100E20000378401C2A1106D10278401C03E00678A2
:100E3000401C0E70491C5B1EF9D12B0705D4002302
:100E4000521E0DD40B70491CFAE70378401CCB1AD4
:100E5000921C03E01D780D70491C5B1C521EF9D5D5
:100E6000A142D8D3002070BD10B50122D2060020C7
:100E7000074B810054585C50401CC0B23028F8D356
:100E8000012004494007886004F022F8002010BDCA
:100E90000000002000ED00E008B50021009101688D
:100EA0008A68D243D2071ED08A68104B1A400123A9
:100EB000002A08D0816B102211438163C16B194352
:100EC000C163012008BD8868184388600948084943
:100ED0000068FFF7BCF9009002E00098401E009007
:100EE00000980028F9D1002008BD000015000080FE
:100EF00040420F0034030020F0B5002314E09A00B4
:100F00008458944627461E465A1C06E095004559CB
:100F1000A54201DA2C461646521C8A42F6DBB20084
:100F20008750624684505B1C8B42E8DBF0BD0000BA
:100F300070B501F00DF90121002002F075FC0121CE
:100F4000084602F071FC0121022002F06DFC012133
:100F5000032002F069FC0021062002F065FC00215C
:100F6000052002F061FC002002F00EFD264CE51F7A
:100F7000FD3D264801F0E2FFE079030002F0EEFEBD
:100F80000822050A0F22221E142201210F2002F03E
:100F90009BFC17E00121022002F096FC12E00121E7
:100FA000002002F091FC0DE00121032002F08CFCF6
:100FB00000F012FBE079002824D003E0012108466C
:100FC00002F082FC00F040FE2878002806D10022C2
:100FD0001146102000F006FD01202870FF26F5368E
:100FE000304601F051FD0021084602F06DFC00F092
:100FF0002BFE304601F048FD00221146102000F083
:10100000F1FCB6E770BD00003C0400206C05002038
:1010100001B582B0012301AA02A9024803F0E8FE4B
:1010200001980EBD2001002070B5104CA568204627
:101030008038006E0E49FFF71FFD06460D48294611
:1010400080680546FFF718FD314604F06DFA294621
:1010500004F06AFA084904F067FAE179002901D03E
:10106000002070BD002100F035F870BD3C04002068
:1010700000401C461401002048E17A3FF1B5144CB1
:10108000E168606804F0E0F905462846216904F04B
:10109000DBF901462846FFF7EFFC0646606127684A
:1010A0000098394604F0D0FA314604F03DFA39464A
:1010B00004F0CAF9074620607F203146C00504F0DD
:1010C000C3FA294604F030FA60603846F8BD0000E3
:1010D00064010020F3B581B0164C1549E160164E4D
:1010E0002661606804F0B0F905463146284604F0F0
:1010F000ABF901462846FFF7BFFC0646606127684A
:101100000198394604F0A0FA314604F00DFA394648
:1011100004F09AF9074620607F203146C00504F0AC
:1011200093FA294604F000FA60603846FEBD0000DC
:10113000CDCC4C3E7C0100200000404070B5FFF754
:101140008FFD06460D4904F0EFF90446304603F0E2
:1011500049FF0B4904F0E8F90546304603F047FF24
:10116000084904F0E1F9294604F06EF9214604F03B
:101170006BF9054904F068F970BD0000D26F1FBE1D
:10118000B67A7338E46A0FB2CD4C544370B5104848
:10119000C56CC06E0F49884203DD3F2424062146FA
:1011A00001E00D4C0D4904F0BFF9064621462846E2
:1011B00004F0BAF9314604F047F90446084D2C61B1
:1011C00008492046FFF758FCE860204670BD000043
:1011D0003C03002000004843CDCC4C3FCDCC4C3EDE
:1011E0003C0400200000C04110B50E48C17905291B
:1011F00002D00021418510BD418D3D2901D2491CFD
:101200004185408D3C28F6D106488038006A002888
:10121000F1D0002000F0B4FB002211460F2000F0B6
:10122000E1FB10BD3C040020F8B500F09DF8054638
:10123000494C4A4FE079072804D0022802D0002800
:1012400003D00CE00020B862F8BD00F0D1F8A06136
:1012500000F094F8A169884201D20020B8623E4EA5
:10126000E079803E002810D1F068FFF7F9FC3146A4
:101270008039096F04F0E8F9009000F0FFF8009958
:1012800004F028F901D20020B8627878002802D151
:101290007D6201207870786A854201D3281A00E0C7
:1012A000401B01214902884230D8716A7D20C0006C
:1012B0004143B86A814201D9FA30B862706A7D212F
:1012C000C9004843B96A8842BED80420E071387822
:1012D000002813D10121042002F0A6FA03F0F2FB4A
:1012E00000221146102000F07DFB2079002803D158
:1012F0000121062002F098FA012038701848006891
:1013000018498842A0DA0520E071F8BD0020B862D3
:10131000397800291DD03870012000F031FB002001
:10132000E07100221146102000F05CFB0021042037
:1013300002F07AFA207900280BD1B06A002804D094
:101340000021062002F070FA03E00121062002F0DD
:101350006BFA7D62F8BD00003C0400200803002009
:101360003C0300200000C84210B5072000F034FA0A
:101370000149486210BD00003C030020F8B51A4C3A
:101380001A48C068FFF76CFC00906168009804F090
:10139000A1F803D8E068FFF71FFCF8BDA16800982A
:1013A00004F01AF903D82069FFF716FCF8BD61684C
:1013B000A0680E4604F048F9E16805460F4620692A
:1013C00004F042F904463146009804F03DF9214604
:1013D00004F0AAF82946FFF74FFB394604F034F829
:1013E000FFF7FAFBF8BD000008030020BC03002053
:1013F000F8B51E4802691E4800901E481E4E8178AE
:10140000002906D18B00F250491C0329FADB012187
:10141000817034681046214604F016F9009904F0F2
:1014200083F8214604F010F830600124A5007759B4
:10143000601E80003058394604F006F9009904F027
:1014400073F8394604F000F87051641C032CEDDB8E
:10145000B068FF21C905C84201D30020F8BD3F2173
:10146000090603F0F1FFFFF7B7FBF8BD3C040020CD
:10147000ABAAAA3E08030020E8050020F8B5174CE7
:101480001748C068FFF7ECFB00906169009804F012
:1014900021F801D8E069F8BDA169009804F09CF832
:1014A00001D8206AF8BD6169A0690E4604F0CCF845
:1014B000E16905460F46206A04F0C6F80446314645
:1014C000009804F0C1F8214604F02EF82946FFF7F1
:1014D000D3FA394603F0B8FFF8BD00000803002036
:1014E000BC03002010B50C49C879002806D002289A
:1014F00004D0072801D100F06FF810BD074800683C
:10150000074A9042F9DB0720C871002211460F20DC
:1015100000F068FA10BD00003C0400203C030020ED
:101520000000164470B50A4D68682C468034E168A6
:1015300088420CD0074E3078401CC0B2307003286F
:1015400005D900F0BDFCE06868600020307070BD17
:101550003C030020AC010020F8B505461B497F2064
:101560001B4CC0058D4203DD256060602846F8BD38
:101570007F20C005E060174F27617F21C9056068A3
:1015800003F062FF06463946304603F05DFF014630
:101590003046FFF771FA0746606120680090014607
:1015A000284604F051F8394603F0BEFF009903F0D5
:1015B0004BFF054620607F203946C00504F044F803
:1015C000314603F0B1FF60602846F8BD00001644C4
:1015D0003801002000002041FEB50025009501954E
:1015E0000295002402F0F2FE002855D0732804D0A2
:1015F000D22806D0F5280BD107E00098401C0090B7
:1016000006E00198401C019002E00298401C029004
:10161000641C0A2CE6DB0321684603F02DFC4B4ECC
:10162000012804D0022805D0032808D105E0732042
:10163000F07104E0D220F07101E0F520F07100F0CB
:1016400087FDF17905242407732926D0D22924D0D7
:1016500001222021204601F038FC02F049FE002240
:101660008021204601F031FC00222021204601F09B
:101670002CFC364C203CE571E01FF938C06AFFF7BE
:10168000ABFAFF21373188420DD90220E0710022E8
:1016900011460F2000F0A6F9FEBD01228021204650
:1016A00001F013FCD9E7782802D20720E071FEBDD3
:1016B0002648F1790F231422A03873291BD0D22990
:1016C0002FD0F529F3D12249C16305642149416432
:1016D0002149816505652149C1667D2109010167AF
:1016E000192141678267C1671D48A0601D4860617C
:1016F00000F008FDFEBD1C49C1631C49016445643E
:101700001B49816505656421C166962101674267B1
:101710008367C2671748A0601748606100F0CEFC7D
:10172000FEBD1649C16316490164456415498165CA
:101730000565C821C166016742678367C3671248B0
:10174000A0601248606100F0B9FCFEBD5C0400209E
:101750000000B44200000C4200803B456C070000D2
:101760003333F340000010410000F040CDCCCC3DBD
:1017700000803B4433334340000090400000704100
:101780009A99193E00A00C45666606400000C040CC
:1017900010B5FFF765FA024903F0C6FE10BD000060
:1017A000510AA53D10B5052001220821000701F0CE
:1017B0008CFB00F019FA074C01220221204601F0AF
:1017C00084FB01221146204601F07FFB00F00CFA59
:1017D00010BD00000014005010B513490A68824281
:1017E00012D00860114A00219162114992144A6096
:1017F000086008460C3000F0C3FE002804D00D48F5
:101800000121C171FFF794FB09480C3001F0ACF8DD
:1018100007480A210C3001F047F805480C3000F069
:101820003BFF80B210BD0000C0000020002401403A
:10183000680400203C040020F8B51F490A6B012011
:10184000000502430A630A6B82430A631A49403166
:101850000A6802430A60096801400091184C174F5A
:101860002760204600F064FE164D0126002802D0B5
:10187000EE71FFF75DFB276003200007606000202A
:10188000A060E06026610421616126766076A07622
:10189000FF21C231E1612062094920310871A06253
:1018A0000620E062064800F0FBFE002802D0EE7140
:1018B000FFF73EFBF8BD000000100240002401408D
:1018C000740400203C04002000B585B097200090EF
:1018D000002002900320019005206946000701F0D6
:1018E00063FA05B000BD000010B50421044801F002
:1018F000E5FA002801D0002010BD012010BD000035
:101900000014005000B587B00A48426B20210A43FA
:101910004263406B08400190042002900120049033
:10192000032005900020039002A9034801F03CFA2F
:1019300007B000BD001002400014005010B586B082
:101940000D48426B02210A434263406B08400090FD
:101950002020019001200290002003900491074C68
:1019600001A9204601F020FA01222021204601F0A1
:10197000ACFA06B010BD0000001002400004005098
:1019800010B5074B002805D001222021184601F090
:101990009CFA10BD00222021184601F096FA10BDD5
:1019A0000004005010B586B00D48426B01210A4377
:1019B0004263406B0840009040200190029100205B
:1019C0000390022004900524240701A9204601F079
:1019D000EBF900224021204601F077FA06B010BD55
:1019E00000100240F8B50F463B4D6969002920D030
:1019F0002946A031497800291BD12C46374E803426
:101A0000002A0CD0030002F0A9F9111415191D21A8
:101A10005A5E6214141414141456252914000F2845
:101A200003D0102003F0E0FC02E00F2003F0DCFC08
:101A30006684F8BD012003F0D7FCF8BD022003F056
:101A4000D3FCF8BD032003F0CFFCF8BD042003F065
:101A5000CBFCF8BD0F2003F0C7FCF8BD102003F04D
:101A6000C3FC002F08D0E868FF2200B2C332642113
:101A700003F018FA6084F8BD2079002809D0052009
:101A80002056030002F06AF90604070A0D10140438
:101A9000F1E76684F8BD12486084F8BD114860849F
:101AA000F8BD11486084F8BD0F489D306084F8BDD2
:101AB0000E486084F8BD0E2003F096FCF8BD0520AA
:101AC00003F092FCF8BD062003F08EFCF8BD072061
:101AD00003F08AFCF8BD0000BC0300206E0F00007C
:101AE0002C0800002C0900004C0A00003F0C0000EC
:101AF00030B587B01948416B012319434163416BED
:101B000019400191426B20210A434263406B084017
:101B10000190082002900393002004900220059079
:101B20000524240702A9204601F03EF90321029171
:101B30000B4D02A9284601F037F90122114628462B
:101B400001F0C3F901220221284601F0BEF9012269
:101B50000821204601F0B9F907B030BD001002405D
:101B60000014005010B5064800F00CF8044850303E
:101B700000F008F80248401D00F004F810BD000015
:101B80000208000070B50446052000220821000765
:101B900001F09BF900F028F80025124E00220221E6
:101BA000304601F092F9200505D501221146304654
:101BB00001F08BF904E000220121304601F085F9A3
:101BC00000F012F801220221304601F07EF900F007
:101BD0000BF864006D1CEDB20C2DDFD3FFF7E2FDB6
:101BE00070BD000000140050002000BF401CC0B2B7
:101BF0000A28FAD37047000070B504460025114E3C
:101C000000220221304601F060F9E00505D50122ED
:101C10001146304601F059F904E000220121304616
:101C200001F053F9FFF7E0FF01220221304601F0F5
:101C30004CF9FFF7D9FF64006D1CEDB2092DDFD31D
:101C400070BD00000014005010B5052000220821CE
:101C5000000701F03AF9FFF7C7FFFF204A30FFF70E
:101C6000CBFF00F003F8FFF79DFD10BDF8B500268F
:101C7000144F1548855D002400220221384601F0EA
:101C800024F9E80705D001221146384601F01DF974
:101C900004E000220121384601F017F9FFF7A4FF04
:101CA00001220221384601F010F9FFF79DFF6D086F
:101CB000641CE4B2042CDFD3761CF6B20E2ED8D30B
:101CC000F8BD0000001400505C05002010B586B07F
:101CD0001248426B01210A434263406B0840009066
:101CE0008020019003910020049002900C4C01A9E7
:101CF000204601F059F80B4902914021019101A9B8
:101D0000204601F051F8072001F058F90022114651
:101D1000072001F05DF906B010BD00000010024080
:101D20000004005000002110F8B506460024064DBE
:101D300001273059401C02D0EF71FFF7F9F8241D3C
:101D4000282CF6D3F8BD00003C04002010B586B066
:101D500004460021059114216846FEF776FA022117
:101D6000009101940124029405A9684600F09EFEAA
:101D7000002803D00248C471FFF7DAF806B010BD9E
:101D80003C040020F0B5A3B02290164821902826EC
:101D900058202830209000246D461FE00020219913
:101DA0000A19431E81000F19B74202D257586F50CB
:101DB00000E06B50401C2028F4D322986A46011999
:101DC000012000F057FF002807D006480121783095
:101DD000C171FFF7ADF823B0F0BD80342098844284
:101DE000DCD3F8E7C403002070B506460024084D94
:101DF0003046FFF7C7FF282229463046FEF7DAF9BA
:101E0000002803D0641CE4B2022CF1D370BD0000A2
:101E1000C40300202849274A8A604268CA60CA6809
:101E20000B46803B5A60C2684A6182680A61026957
:101E30008A614269CA6182690A62C2694A62426A07
:101E4000CA62006A8862C868FF222D32642804D3FF
:101E5000C868FF23C333984200D9CA600869322397
:101E6000D84202DB0869322801DD00200861486A97
:101E7000124B984202D8486A3C2801D23C20486262
:101E8000C869042801D90120C8618869002809D0DF
:101E9000C869012807D0022807D0032802D1FF20F3
:101EA0009130C8607047CA607047FF205F30C860DB
:101EB00070470000ACACACACBC030020E7030000F2
:101EC00010B50748C16A491CC162064800F010F805
:101ED000054800F00DF8054800F00AF810BD0000B4
:101EE000BC03002000F0000800F8000800FF000814
:101EF00070B50546EFF3108472B6094801F01EF87C
:101F000000F03EFF2846FFF721FF2846FFF70CFFB1
:101F10002846FFF769FF00F09FFE84F3108870BD2C
:101F20006C05002010B5EFF3108472B6034801F081
:101F300005F800F005F884F3108810BD6C0500204A
:101F400070B51B4C1B4B206B0168994207D1616B2C
:101F50000A689A4203D1A26B15689D4211D0A36012
:101F6000FF202D30E0600121616100202061A0612F
:101F7000E16120623C216162A062E062FFF7A0FFA4
:101F800070BD526A496A406A02F0AEFC002807D070
:101F9000012809D00228F3D1A06BFFF73BFF70BDE9
:101FA000206BFFF737FF70BD606BFFF733FF70BD2D
:101FB000BC030020ACACACAC10B50B48016A0124EA
:101FC000214301620A480949016003214160FF2160
:101FD0000901816000F086FF002803D00548C47124
:101FE000FEF7A6FF10BD0000401002400030004088
:101FF0006C0500203C04002010B50020224AFF217F
:102000001154401CC0B20E28FAD3204CA0690028FD
:102010001FD0E069012804D002280AD003281CD16F
:102020000FE0FF202D30E060E06880B201F0ACFCF2
:1020300013E0FF205F30E060E06880B201F0A4FCB4
:102040000BE0FF209130E060E06880B201F09CFC82
:1020500003E0E06880B201F097FC0121002001F06C
:1020600087FC0A480121803041710021042001F0E1
:10207000DBFBA06A002803D00021062001F0D4FB7E
:10208000FFF7E2FD10BD00005C050020BC0300204E
:1020900010B500F0B7F800F0DFF80421054801F0B2
:1020A00045FA002804D004480121C171FEF740FF21
:1020B00010BD0000000500203C04002030B587B0B2
:1020C0000E48416B012529434163406B2840019034
:1020D0008020029002200390002104910590069533
:1020E000052002A9000700F05FFE054C20790028BA
:1020F00002D1FFF7CDFF257107B030BD00100240BF
:102100005C04002030B587B00F48416B012529439E
:102110004163406B284001902020029002200390F0
:102120000021049105900D200690052002A90007CA
:1021300000F03AFE054C2079002802D1FFF7A8FFF5
:10214000257107B030BD0000001002405C04002083
:1021500010B586B00D48426B01210A434263406BC3
:10216000084000902020019002910020039002205E
:1021700004900524240701A9204600F015FE002242
:102180002021204600F0A1FE06B010BD0010024044
:1021900001498863704700000004004070B58CB0AE
:1021A00005461C2105A8FEF750F80024019402946E
:1021B000039404940B200590FF20013008900994AB
:1021C0000A9506940C20079001260B9605A800F0AE
:1021D000E5FF0B4D002802D0EE71FEF7A9FE0720A7
:1021E0000190029403940494002101A800F0F4FEED
:1021F000002802D0EE71FEF79BFE0CB070BD00000F
:102200003C04002008B50F48C26B02210A43C26398
:10221000C06B084000900D480B4901600C49C1603B
:10222000052141600021016181604161816101F00E
:10223000F1F8002804D007480121C171FEF778FEAB
:1022400008BD00000010024000040040000500200E
:10225000102700003C04002010B50B4860210160ED
:10226000002181600161C16081614161416001467D
:102270000422403801F0EAF8002804D00348012184
:10228000C171FEF755FE10BD400500203C04002042
:10229000F8B5194E3068194D6968401A642803D2A0
:1022A00017494020C860F8BD164C012020708021DD
:1022B000154800F003FE07464021134800F0FEFDDC
:1022C000874201D1012000E0002032686968521A7B
:1022D000642A00D928702A78904205D03368591AA8
:1022E000642901D8627001E060702870306868600D
:1022F00003494020C860F8BDD4000020C40000207D
:10230000001802403C04002000040050F8B5194CAD
:10231000194F6278510078520521501CFDF797FF44
:1023200061700E460025002430190521FDF78FFF4E
:102330004800385AFEF794FC0E49A2003C318958F7
:1023400003F0F2F8294603F07FF80546641CE4B276
:10235000052CE9D3FF20C005C54201D30020F8BDFC
:102360000648854201DD0648F8BD2846FEF734FCE4
:1023700080B2F8BD14010020C405002000F07F45A4
:10238000FF0F00000549002048600548416904220C
:10239000114341610348C106086070477805002079
:1023A0000020024021433412054A002151600549B2
:1023B0004A6902231A434A61FF2101607047000005
:1023C000780500200020024070B500220C4C6369A3
:1023D00001252B436361EFF3108372B60125ED04F1
:1023E00008E040C940C0521CD2B21F2A02D166691F
:1023F0002E436661202AF4D383F3108870BD000059
:102400000020024003494A69CB141A434A61FF2164
:10241000016070470020024070B5044600F05CFD8A
:102420000419084D05E000F057FDA04201D3032038
:1024300070BD2869C043C003F5D50348286100205A
:1024400070BD0000002002401180000010B501F0B6
:10245000CDFA02F073FD80B2FEF702FCFEF70EFE2D
:10246000FEF7BAFB80B2FFF751FFFEF7F9FB054913
:1024700003F05AF80449FEF7FFFA0449FEF7FCFAA4
:1024800010BD00003333534000F07F450AD7233C92
:10249000FEB504460020019025462035287D012800
:1024A0001ED00120287520688168C943C90734D02F
:1024B000A16BFF220132914302263143A163C1681F
:1024C0008907890F0091C16889088900C160206867
:1024D0008168D2051143816000F0FEFC07460FE0E1
:1024E0000220FEBD00F0F8FCC01B022808D9A06B3A
:1024F0001021B0430843A063002028750120FEBDD1
:10250000206880680028EDDB2068C168009A1143CC
:10251000C160A06BB043A06305E0A06B202108431D
:10252000A06301200190002028750198FEBD0000E5
:10253000F1B58AB00024114D05AE6F460A98FFF739
:10254000A7FF002802D001200BB0F0BDA868A100B1
:10255000705040027850641C052CEFDB0521684662
:10256000FEF7CAFC029840122861E8686861686852
:102570000121C903084368600020E5E740240140C9
:10258000F8B500250022009204462034227D012A5D
:1025900039D0012323750268966876076AD43A4FCA
:1025A0004E68BE4250D0966A0F78BB401E4396627A
:1025B0000123C26A1B079A421FD0012A1DD0022A9A
:1025C0001BD0032A19D0042A17D0052A15D0062AB1
:1025D00013D0072A11D002688B6856697607760FE8
:1025E000B3420AD05369DB08DB00536100684269DB
:1025F0000B7A5B075B0F1A43426108680B2804D013
:102600000C2802D03BE00220F8BD204B9A680B2832
:1026100007D00120800502439A6008680B2803D088
:102620002DE00120C005F6E71A4819490068FDF7BA
:102630000EFE0A214843009002E00098401E0090E0
:1026400000980028F9D11AE0906A0E78B3409843B8
:10265000906208680B2801D00C2810D10B498A68B9
:102660000B2804D00120800582438A6007E0012006
:10267000C005F9E7816B2022114381630125002009
:1026800020752846F8BD0000011000000027014019
:1026900040420F00340300200068006C70470000C7
:1026A000F8B504460025002C05D0A06B2646203640
:1026B000002802D007E00120F8BD0020E06330755B
:1026C000204600F0A1F8A06B1022C00600287DDB98
:1026D00020688168490779D4A16B130199430223CB
:1026E0001943A1638168C943C9070CD0C168182385
:1026F0009943A3681943C1602068016963680901AF
:102700000909194301612068C1683D4B1940C16046
:10271000207EE16880030143607EA36A4703012BAA
:1027200002D001231B0300E000231F432369394328
:10273000022B09D00023194333795B001943A67E8D
:102740000123012E02D00AE00423F4E7002826D05A
:10275000A06B20263043A063E06B1843E063E06980
:102760000646FF3EC23E02D0266A3043014320683F
:10277000C6680E43C6600126E06A3607B04212D032
:10278000012810D002280ED003280CD004280AD02B
:10279000052808D0062806D0072804D00FE001201D
:1027A00000040143DBE720684669F608F60046614D
:1027B00020684669A78D7F077F0F3E4346612068EA
:1027C000C068104E3040884209D100E011E000207E
:1027D000E063A06B80088000401CA0630DE0A06B4C
:1027E000022188431043A063E06B1843E063012596
:1027F00003E0A06B1043A06301252846F8BD00004C
:1028000019C2FEFFE7FF3FC370B586B0054614212D
:1028100001A8FDF71AFD21490A68012002430A6058
:102820000A68024000921D4A403A936B0343936347
:10283000936B03400093536B03435363526B02400B
:1028400000920B68020513430B6009681140009168
:1028500001900320029000260396052001A900079D
:1028600000F0A2FA002000F0B5FD0E4C0C482060EC
:102870006660A660E66040152061800060612020EF
:10288000A06103200003E061204600F099F8204693
:1028900000F0C6F82C63656206B070BD40100240BF
:1028A00008000240F4050020F8B504460D4627460E
:1028B0006069203708280BD02068C068C00709D09D
:1028C000A06B20210843A063002038750120F8BDCB
:1028D000082600E00C2600F0FFFA009011E0681CCA
:1028E0000FD0002D05D000F0F7FA0099401AA84249
:1028F00007D9A06B04210843A0630020387503208A
:10290000F8BD206800683042E9D0A06B012149027F
:102910000843A0632068C1680C220905890F0029BB
:102920001AD1617E002917D10168090714D5816881
:1029300001234907002908DB416891434160A06BEE
:10294000190288431843A06306E0A06B20210843C6
:10295000A063E06B1843E063207E002801D120686B
:1029600002600020F8BD000070B504462068806851
:10297000400720D425462035287D012819D0012084
:1029800028752046FEF788FA002811D1A16B0B4A62
:102990001140FF2201321143A1630021E163297537
:1029A00022681C21116021688A6804231A438A6006
:1029B00070BD022070BD022070BD0000FEF1FFFF5F
:1029C00070B50446002C24D02068016849084900ED
:1029D00001602068002505602068456020688560EA
:1029E0002068C5600C49206840181421FDF72FFCB1
:1029F000800020640949E163012282404A60A562A7
:102A0000E56225636563A563203465702570002049
:102A100070BD012070BD0000F8FFFDBF0000024046
:102A200070B50446002C26D01448256814212818B7
:102A3000FDF70DFC800020641148E0630221204670
:102A4000203041702A680F490A40A36861682669EE
:102A50001943E3683343194363691943A36919436D
:102A6000E3691943114329600021A16301224270E7
:102A70000170002070BD012070BD0000F8FFFDBF97
:102A8000000002400FC0FFFF70B5044600F024FABA
:102A90000546601C02D004484068241800F01CFA67
:102AA000401BA042FAD370BDCC000020F8B504460C
:102AB0000E46012563480178012969D00121017082
:102AC000614840680004400F60490B68820060481C
:102AD00082581068C7B2BC46BB4229D14B68C701B7
:102AE000FF0DBB4224D10B690004000E83421FD1AD
:102AF0008B685068C7B2BB421AD1CB684001400D09
:102B0000834215D148699368DB03DB0B98420FD1F0
:102B10008869D368DB03DB0B984209D1CB69106964
:102B200087B2BB4204D10B6A8000800C83421ED066
:102B3000604608601068C001C00D4860108800043D
:102B4000000E08611079886050684001400DC8602F
:102B50009068C003C00B4861D068C003C00B886197
:102B6000108A80B2C86110698000800C08627D27DD
:102B70002068FF0004280DD002281CD00121C902C2
:102B800088425AD13846FFF747FC002836D054E037
:102B90000220F8BD3846FFF73FFC00284DD1FFF773
:102BA000F1FB3846FFF738FC05462A4948690422FC
:102BB0009043486141E07D20C000FFF72DFC0028D4
:102BC0003BD1401E3060676811E03846FFF7ECFBF0
:102BD0007D20C000FFF720FC05461E484169022207
:102BE00091434161280001D0376026E08037A0681A
:102BF0006168C0014018B842E7D81EE00020C04319
:102C00003060E76813E03846FFF7FCFB7D20C0002A
:102C1000FFF702FC05460F484169C2149143416128
:102C2000280001D0376008E0012000033F18206928
:102C3000E16800034018B842E5D80248002101705D
:102C40002846F8BD7805002000100240002102400F
:102C50001857000800200240012005494A69C307AF
:102C60001A434A614969002900DA002070470000D0
:102C700000200240F7B50F463C4C207801285AD07E
:102C8000012020703A4840680004400F39490D681F
:102C90008200394880580268D3B29D4229D14D68DC
:102CA000D601F60DB54224D10D691204120E9542DB
:102CB0001FD18D684268D6B2B5421AD1CD68520193
:102CC000520D954215D14A698568ED03ED0BAA4274
:102CD0000FD18A69C568ED03ED0BAA4209D1CD6910
:102CE000026996B2B54204D10D6A9200920C9542E7
:102CF0001DD00B600268D201D20D4A600288120416
:102D0000120E0A6102798A6042685201520DCA604D
:102D10008268D203D20B4A61C268D203D20B8A61A5
:102D2000028A92B2CA6100698000800C086278064B
:102D300003D00120FEBD0220FEBD7D25ED0028460A
:102D4000FFF76AFB00280DD138460299FFF73CFBDC
:102D50002846FFF761FB09494A69520852004A6157
:102D60000028E9D100212170FEBD00007805002077
:102D700000100240002102401857000800200240C5
:102D8000002006494A69002A07DA054A8A60054A8E
:102D90008A604969002900DA01207047002002405A
:102DA00023016745AB89EFCDF0B500227CE001241B
:102DB0009440A4462340002B75D04C68022C01D0CF
:102DC000122C0CD1D408A40027183D6A5407E40E35
:102DD0000F26A640B5430E69A6402E433E62066804
:102DE00055000324AC40A6430F79BF07BF0FAF4087
:102DF000374307604E68012E05D0022E03D0112EF6
:102E000001D0122E0ED18668A643CF68AF4037435B
:102E1000876047686646B7430E79F606F60F964018
:102E20003E434660C668A6438C68AC403443C460E9
:102E30004C68E40037D595081E4CAD002F193D6E47
:102E40009407E40E0F26A640B54305263607B04288
:102E500001D1002605E0184EB04201D1012600E064
:102E60000226A6402E43134D3E66124E803634682D
:102E70009C434F68FF0300D51C43346074689C4337
:102E80004F68BF0300D51C4374602C689C434E6898
:102E9000F60200D51C432C606C689C434E68B60259
:102EA00000D51C436C60521C0B681C46D44000D0FB
:102EB0007DE7F0BD001802400004005000690842A0
:102EC00001D00120704700207047002A01D08161A5
:102ED00070478162704700000148806870470000B9
:102EE000CC00002070B50446002C0FD0216810489B
:102EF000086021680F4808602168606848602168A0
:102F0000A0688860FFF7E8FF054608E0012070BD73
:102F1000FFF7E2FF401B302801D9032070BD206875
:102F2000C0680028F4D1216803480860002070BD03
:102F3000CCCC000055550000AAAA00000068024948
:102F40000160002070470000AAAA000002488168C2
:102F50004268891881607047CC00002010B50024B9
:102F6000032000F009F8002801D0012401E000F05E
:102F700023F8204610BD000070B5054600240C4E15
:102F80007068002811D00B4800F02CFA002801D0FE
:102F900001240BE0042D06D200222946501E00F029
:102FA00017F8356002E0012400E00124204670BDDE
:102FB000CC000020C05D000070470000C106C90EB3
:102FC00001208840014908607047000000E100E0EE
:102FD00010B500F031FD10BDF8B504460D46002CCB
:102FE0000FD04D480068C007C00FA84218D24A4F02
:102FF00038684008400028433860FFF76DFF0646F8
:1030000009E00120F8BDFFF767FF811B43488142BB
:1030100001D90320F8BD3868C007C00FA842F2D11B
:1030200020683F4E81070DD5400704D5B0680721C1
:1030300009030843B060B0680F2109028843A16802
:103040000843B0602078C0072DD06068012808D000
:1030500000280BD032494031096A89070BD401207E
:10306000F8BD3168890306D40120F8BD31684905EF
:1030700001D40120F8BDB168C908C9000143B1609D
:10308000FFF72AFF074607E0FFF726FFC11B23488B
:10309000814201D90320F8BDB06838210840616839
:1030A000C9008842F0D11C480168C907C90FA9426C
:1030B00016D901684908490029430160FFF70CFF50
:1030C000074607E0FFF708FFC11B1448814201D9FA
:1030D0000320F8BD10480068C007C00FA842F1D116
:1030E0002078400706D5B068072109038843E168C6
:1030F0000843B06000F01CF8B1683C228909114017
:10310000084A515CC906C90EC8400749086007480B
:103110000068FFF731FFF8BD00200240881300006F
:10312000001002404C57000834030020CC0000205F
:1031300000B585B0142216496846FDF705F8154814
:1031400081688906490F0CD081688906490F0129D9
:1031500018D080688006400F032815D0002005B0E5
:1031600000BD016889044A0F0121914040680004B4
:10317000400F042800D9002080006A461058FDF74F
:1031800066F8ECE70448EAE70120C003E7E700003F
:10319000385700080010024000366E01F8B50446AA
:1031A000002C1DD020783827C007864D002856D027
:1031B000A8683840082815D06068002807D0A068A3
:1031C000002817D029690C2291430143296101216C
:1031D0006068090488420FD12868084328601EE00F
:1031E0000120F8BD2868800339D56068002836D1F1
:1031F0000120F8BD0120F8BD052301221B04920423
:10320000984206D12868104328602868084328603F
:1032100005E0286888432860286890432860606833
:1032200000280ED0FFF758FE064606E0FFF754FED2
:10323000801BC82801D90320F8BD28688003F5D574
:103240000DE0FFF749FE064606E0FFF745FE801B4E
:10325000C82801D90320F8BD28688003F5D4207858
:10326000800772D5AE683E40002E12D0FF20E16884
:103270000130002958D029680722D20291432269DF
:1032800011432960296801432960FFF725FE06469E
:1032900040E02868400502D5E068002809D0686849
:1032A0006169000C000408436860FFF715FE0746DB
:1032B00008E00120F8BDFFF70FFEC01B022801D96E
:1032C0000320F8BD28684005F5D5002E13D12868E5
:1032D0000721C9028843216908432860FFF728FFB6
:1032E000A9683C2289091140374A515CC906C90EB8
:1032F000C8403649086036480068FFF73DFE0028A0
:1033000023D00120F8BDFFF7E7FD801B022801D97B
:103310000320F8BD28684005F5D568686169000C90
:1033200000040843686010E0296881432960FFF7C2
:10333000D3FD064606E0FFF7CFFD801B022801D92A
:103340000320F8BD28684005F5D42078000736D55D
:10335000A8681C4D8006400F403503280AD0A0699C
:1033600000281AD0286A012108432862FFF7B4FD1B
:1033700004460EE0286A800721D5A06900281ED1E6
:103380000120F8BDFFF7A8FD001B022801D903208A
:10339000F8BD286A8007F5D511E0286A400840008A
:1033A0002862FFF799FD044606E0FFF795FD001B34
:1033B000022801D90320F8BD286A8007F5D400202F
:1033C000F8BD0000001002404C57000834030020F4
:1033D000CC0000200249CA690243CA61704700005C
:1033E0000000014010B50949401E884201D9012062
:1033F00010BD074C60610321081F00F01DFB002079
:10340000A06107202061002010BD0000FFFFFF0029
:1034100000E000E070B50446002C05D025462035BC
:10342000687F002802D006E0012070BD00202877C8
:10343000204600F00AF802206877211D206800F07D
:103440003BFB01206877002070BD7047F8B504464B
:103450000E4625462035287F01280DD001202877EB
:10346000022068770427002A08D0042A19D0082AE5
:103470002ED00C2A55D13EE00220F8BD31462068FE
:1034800000F066FB20688169082211438161206891
:103490008169B94381612068816932691143816121
:1034A0003FE03146206800F091FB206882690121ED
:1034B000C9020A4382612068816901229202914314
:1034C000816120688169326912021143816128E0BB
:1034D0003146206800F0BAFB2068C26908210A431F
:1034E000C2612068C169B943C1612068C16932699C
:1034F0001143C16115E03146206800F0E7FB206808
:10350000C1690122D2021143C1612068C26901214F
:1035100089028A43C2612068C1693269120211437B
:10352000C1610120687700202877F8BD10B50446F6
:103530000122206800F0FEFA0D482168814205D082
:103540000C48814202D00C48814204D1486C0122CF
:10355000D20310434864206881684907490F06294F
:1035600003D00168012211430160002010BD00005A
:10357000002C0140004401400048014008B54021B2
:103580000268C9431160026849101160006801684F
:1035900041680091016841680091016841680091AB
:1035A00001684068009008BDFEE70000074BDA1E86
:1035B0001978002805D000201070517037209070C5
:1035C00070471170D87B507090707047DE000020FB
:1035D000F0B530490820CE7906404F7A0740BC4606
:1035E000CA7A024096462C480078C207140F02227D
:1035F000034613405B001C43042305461D406D0831
:103600002C430507ED0F2C430C72C406E40F264330
:10361000202405462540ED082E434025284040093A
:103620000643CE711C484078C607360F0746174040
:103630007F003E4307461F407F083E430707FF0FBA
:103640003E438E72C6066746F60F3743064626404F
:10365000F60837432840400907434F720E488078E8
:10366000C607360F02405200164302461A4052085F
:1036700016430207D20F16430E73C3067246DB0FC2
:103680001A4303462340DB081A43284040090243FB
:10369000CA72F0BD5C050020DB00002070B5174940
:1036A000174C20780207120F0A71102203461340AC
:1036B0009D088306DB0F1D43402318404009054346
:1036C0004D71607805072D0F8D7005461540AD08CA
:1036D0008606F60F3543184040090543CD70A078A3
:1036E0000407240F0C70024092088406E40F224362
:1036F0001840400902434A7070BD00005C0500207C
:10370000D800002010B5002804DB80B2012100F0B1
:103710002FF910BD404200B2632800DD63200A216A
:10372000FCF79FFDCCB20A21FCF79BFDC9B204480F
:1037300040220270C21C515C4170115D817010BD4D
:10374000DB00002070B504461248844200D90446CC
:103750000A212046FCF77BFD0E460A21FCF777FD87
:103760000D4664212046FCF772FD0A21FCF76FFD2F
:103770000948002242700270C21C935D83700B46A0
:103780002B4301D0535D4370002901D0515C01707F
:1037900070BD0000E7030000DB000020054A0028A0
:1037A000917903D00420014391717047FB200140BF
:1037B000917170475C050020054A0028917903D07B
:1037C0000220014391717047FD20014091717047C3
:1037D0005C050020054A0028917903D001200143AF
:1037E0009171704748084000907170475C05002057
:1037F000054A0028917903D0082001439171704750
:10380000F7200140917170475C050020054A0028AF
:10381000517A03D00820014351727047F7200140CC
:10382000517270475C05002010B50246084613002F
:1038300000F094FA0705080B0E1114170700FFF7A4
:10384000C9FF10BDFFF7B8FF10BDFFF7A7FF10BD00
:10385000FFF7CEFF10BD00F007F810BDFFF7D6FF51
:1038600010BD00F00FF810BD054A0028D17903D033
:1038700008200143D1717047F7200140D171704792
:103880005C050020054A0028D17A03D008200143B6
:10389000D1727047F7200140D17270475C0500205B
:1038A000024800210170417081707047DB000020E8
:1038B00010B5002902D0FFF779FE01E0FFF7F0FF15
:1038C000FFF786FE10BD000070B5002930D01B4AFE
:1038D0000024D31C4025997B03281BD006DC00283C
:1038E00009D001280CD0022824D10EE00F2816D0D0
:1038F00010281FD118E0147051701878907019E0DA
:10390000147051705878907014E014705170987859
:1039100090700FE06D201070557091700AE0147077
:103920005170D87B907005E015705570957001E06E
:10393000FFF7B6FFFFF74CFE70BD0000DB00002074
:1039400010B500290CD0002802D0FFF7DBFE09E0FB
:10395000064806490078C91E08704870887001E062
:10396000FFF79EFFFFF734FE10BD0000DE000020D1
:1039700010B5002902D0FFF7E5FE01E0FFF790FF48
:10398000FFF726FE10BD000070B506460A2130463E
:10399000FCF75DFC0D460A21FCF759FC0C4664213E
:1039A0003046FCF754FC0A21FCF751FC0B46054855
:1039B000415D821F9170015D5170C05C1070FFF716
:1039C0006DFE70BDDE00002010B5092800D9092069
:1039D00005490A5C881F8270097841707321017063
:1039E000FFF75CFE10BD0000DE00002070B506464B
:1039F0001E213046FCF72BFC0C4C0D4DA1888E424D
:103A000009D9A080FDF724F9294601F08DFDFDF7C5
:103A1000E3F880B270BD3046FDF722F9294601F087
:103A200083FDFDF7D9F8A080304670BD1401002059
:103A30003333333F704700008307FF22DB0E9A4089
:103A40008907090E994000280BDA0007000F083893
:103A5000830808489B001818C36993430B43C3614C
:103A60007047830804489B001818036893430B436E
:103A70000360704700ED00E000E400E0704770472D
:103A800010B5FFF763FA10BD08494868084A000CF2
:103A900092880004D204D20C104301225203104336
:103AA0004860C80303498860704700000010024066
:103AB000000FFF1F00ED00E070B50268184C194EB2
:103AC000A04201D0B04204D170251346AB434A68EE
:103AD0001A43154B154DA04208D0B04206D0144EE3
:103AE000B04203D0984201D0A84204D10326360246
:103AF000B243CE6832438026B2434E6932430260FD
:103B00008A68C2620A688262A04203D0984201D0E9
:103B1000A84201D1096901630121416170BD000022
:103B2000002C0140000400400044014000480140D6
:103B30000020004010B5C906C90E01238B40046A5D
:103B40009C430462036A8A401343036210BD000071
:103B5000F0B5026A520852000262056A436882693F
:103B60007024A243920892000C68144302229543E9
:103B70008A682A43124E134FB04204D0B84202D092
:103B8000114DA84206D10825AA43CD681543042249
:103B900095432A46B04204D0B84202D00A4DA8420A
:103BA00008D1FF250135AB436D00AB434D691D4383
:103BB0008B692B4343608461496841630262F0BDB5
:103BC000002C01400044014000480140F0B5026A69
:103BD00010239A430262046A4368826907252D0311
:103BE000AA4303252D02AA430D682D021543202266
:103BF00094438A6812012243114EB04207D18027B4
:103C00001446BC43CA68120122434024A243B04276
:103C100005D00C4CA04202D00B4CA0420AD101248A
:103C2000A402A3436400A3434C69A4001C438B6912
:103C30009B00234343608561496881630262F0BD54
:103C4000002C01400044014000480140F0B5026AE8
:103C5000FF2301339A430262046A4368C2697025F4
:103C6000AA43920892000D68154301225202944320
:103C70008A6812022243124EB04207D1C71414467A
:103C8000BC43CA68120222430415A243B04205D0C5
:103C90000C4CA04202D00C4CA0420AD101242403B7
:103CA000A3436400A3434C6924011C438B691B019B
:103CB00023434360C5614968C1630262F0BD0000EF
:103CC000002C0140004401400048014070B5026AE8
:103CD00001231B039A430262046A4268C3690725F1
:103CE0002D03AB4303252D02AB430D682D021D436D
:103CF00001235B039C438B681E0326430A4B9842B7
:103D000005D00A4B984202D0094B984206D10124B3
:103D1000A4031346A3434A6992011A434260C56152
:103D200049680164066270BD002C014000440140F6
:103D30000048014010B5084C20680068C043800668
:103D400001D400BF02E00448FFF718FC20202168DE
:103D5000C043086010BD0000B404002030B47446B5
:103D6000641E2578641CAB4200D21D46635D5B0077
:103D7000E31830BC1847000010B5FDF7B5FD0B493E
:103D80008A6890420DD0886000280AD0002211462F
:103D90001020FDF727FE0120FDF7F2FD0448002169
:103DA000418500F033F800F005F810BDAC010020AB
:103DB0003C04002070B5144C0025E078002817D092
:103DC000E570207900280AD000F058FD0022114645
:103DD0000F20FDF707FEFEF773F8257108E00022BB
:103DE00011460120FDF7FEFD00F08CFD0120207141
:103DF0002079002806D0A078002803D0A5700120E3
:103E000000F092FB70BD00003C04002070B5FDF78F
:103E10006BFD002412490123124A00280ED090881D
:103E20000F2801D2401C908090880F2805D350782D
:103E3000002802D1CB705370947070BD9088451EDD
:103E40000E2D00D28B700F2806D35078002803D097
:103E50009078002800D193709480547070BD000059
:103E60003C040020AC01002010B517484078002821
:103E70000ED00300FFF772FF110C0A0D10131F2262
:103E8000250C0C0C0C0C0C1C16190C0001F0CAF9BA
:103E900010BD01F031FA10BD01F0F8F910BD01F0CC
:103EA0005FFA10BD01F0AEF810BD01F0C5F810BD0D
:103EB00001F0ECF810BD01F019F910BD01F07EF928
:103EC00010BD01F047F910BD5C040020F0B587B0CB
:103ED0000C460390214637480290039801F0B4FB4A
:103EE00047007F083448344D8079A03D0690334E1A
:103EF000296E0591002822D00598FCF76DFEE96E29
:103F0000884204D274613461F460B46074602C48F7
:103F10008178002907D174613461F460B460746001
:103F20003460012181702748874202DD26480290D3
:103F300008E02648874205DA2548029002E020483A
:103F4000002181700299039801F0EEFA04467F2067
:103F5000C005029901F078FB0490316801F0E4FAA1
:103F6000214601F071FA30600124601E8000305853
:103F7000029901F0D9FA0190A700F159049801F0D3
:103F8000D3FA019901F060FAF051641C062CECDBC5
:103F9000069800280CD00598FCF71EFE296F884271
:103FA00006D23F210906706901F04EFA07B0F0BD54
:103FB0003069FBE7CDCC4C3D5C040020D0050020EF
:103FC000140100200000C841CDCCCC3D00002041B0
:103FD0000AD7233CFEB50090009801F035FB440061
:103FE0003B4F6408BC603B4E3F252D06B4420ADAC5
:103FF00031462046FCF740FD374901F095FA294645
:1040000001F022FA0DE03146204601F01DFB314659
:10401000FCF732FD0221FCF727FE8121C90501F0E2
:1040200013FAA84200DA284641252D06A84200DDF1
:104030002846F860029031468C420ADA2046FCF7A6
:104040001BFD264901F070FA7F21C90501F0FCF93A
:104050000DE00E46204601F0F7FA3146FCF70CFD64
:104060000221FCF701FE8121C90501F0EDF97F2451
:10407000E405A04200DA2046A84200DD28460546B5
:1040800038617868029901F0DFF906462946304622
:1040900001F0DAF901463046FCF7EEFC7861019058
:1040A0003D680098294601F0CFFA019901F03CFAE9
:1040B000294601F0C9F9054638602046019901F00A
:1040C000C3FA314601F030FA78602846FEBD0000A0
:1040D00094010020000020410000604000004040AA
:1040E00070B53C4905254D573A4C00210122803CD2
:1040F0002B00FFF733FE071005111D333F62100040
:104100006069002801D0616100E06261606901219D
:10411000C0B2FFF7CDFB70BDA069002801D0A1613E
:1041200000E0A261A0690121C0B2FFF7C1FB70BD30
:10413000002806D0206932280ADA2069401C206154
:1041400006E020693221C84202DD2069401E20615C
:104150002069012100B2FFF7F3FB70BD206A00283F
:1041600001D0216200E02262206A0121C0B2FFF783
:104170009FFB70BD00280DD0606A174DA84204D285
:1041800000F02CF8616A40186062606AA8420ED99B
:1041900065620CE0606A412804D900F01FF8616A8A
:1041A000081A6062606A3C2801D23C206062606A42
:1041B000012100B2FFF7C4FB70BDA06A002801D046
:1041C000A16200E0A262A06A0121C0B2FFF770FB09
:1041D00070BD00003C040020E703000010B51C483F
:1041E00000681C4A00239168002903D19060D060C8
:1041F0009380137091681924411A6401A14202D975
:10420000D06093801370D1687D24411AE400A142EC
:104210000BD39188032905D91178FF2903D2491CB2
:10422000117000E013709380D0609188491C9180D8
:10423000906005201178002905D0042900D90421B7
:104240000A204143C8B2282800D9282010BD000008
:10425000D4000020B801002010B5084C20780028B8
:104260000AD00120FDF78CFB0020608520700449F6
:104270000870607800F006F810BD00003C040020D3
:10428000AC01002010B50C490979002907D0FFF7CF
:1042900027FF002211461020FDF7A4FB10BD00F0FF
:1042A000F1F8002201211020FDF79CFB02480021BB
:1042B0002030817110BD00003C04002010B50020AA
:1042C000FDF78AFA044CA060FCF738FFA062FCF707
:1042D0009FFEA06410BD00003C03002010B5042028
:1042E000FDF77AFA0149886110BD00003C03002007
:1042F00010B50120FDF770FA024CE060FDF748FAB6
:10430000E06210BD3C03002010B5FCF78DFE0149B2
:10431000C86410BD3C03002070B5FDF719FF0020F4
:10432000274900BF401C80B28842FAD30220FDF723
:1043300053FA244D28612449C979732904D0D2291C
:1043400006D0F5290BD107E000F064FC286306E0F5
:1043500000F0A2FC286302E000F0E0FC2863194CA6
:104360008034E068FCF77CFC0146286BFDF7F4F82C
:104370002865286020468030C07907280FD0E06883
:10438000FCF76EFC0646E068FCF76AFC014628680C
:10439000FFF720FE3146FFF799FD286770BDE06802
:1043A000FCF75EFC0646E068FCF75AFC014600207C
:1043B000FFF710FE3146FFF789FD286770BD00004A
:1043C000FF0800003C0300205C04002010B5FFF74C
:1043D00085FF0B4801218069C902884201D9F52077
:1043E00010BD0721C901884201D2D22010BD054964
:1043F00040180549884201D2732010BD002010BD2D
:104400003C0300207FFCFFFF7F02000010B50E4937
:104410008878002812D0002088700C490A79002A78
:104420000BD1C979042908D0052906D0074980395C
:104430008969002904D000F00BF810BD0120EBE7DA
:10444000012000F005F810BDB80100203C04002058
:1044500010B50B49CA69012A08D0022A0BD0032AD9
:1044600003D101460020FFF7DFF910BD014602200D
:10447000FFF7DAF910BD01460120FFF7D5F910BDAD
:10448000BC03002070B5274CA169002926D0002864
:1044900006D0E069032809D2E069401CE06105E02C
:1044A000E069012802D9E069401EE0610121002095
:1044B000FFF7BAF901210846FFF7B6F901210220FA
:1044C000FFF7B2F9E0693221401E4843FF302D303A
:1044D000E060E06880B2FFF757FA70BD00280ED0A8
:1044E000E068FF25C335A84204D2FFF777FEE168F4
:1044F0004018E060E068A8420ED9E5600CE0E06892
:10450000692804D3FFF76AFEE168081AE060E068F2
:10451000642801D26420E060E06880B2FFF734FADA
:1045200070BD0000BC03002010B5314C002809D03C
:104530006079401C60710520205606280BDD0120A3
:10454000607108E06079401E6071052020560128E6
:1045500001DA062060710520205680B2FFF734FA98
:1045600005202056224C0300803CFFF7F7FB070E86
:10457000050F19232D370E0000210620FFF754F9EF
:1045800060690121C0B2FFF793F910BD0021062038
:10459000FFF74AF9A0690121C0B2FFF789F910BD00
:1045A00001210620FFF740F92069012100B2FFF741
:1045B000C7F910BD00210620FFF736F9206A012156
:1045C000C0B2FFF775F910BD00210620FFF72CF9E6
:1045D000606A012100B2FFF7B3F910BD0021062087
:1045E000FFF722F9A06A0121C0B2FFF761F910BDFF
:1045F0003C040020F8B534490025086E4200120E34
:10460000002A41D08A6E002A3ED0896DFCF734FA28
:1046100001467F22D205914200DD1146FF20C005F0
:10462000C14200D30021294E294F2A4800F07CFFC7
:10463000394600F0FDFF04463146204600F04AFFAF
:1046400000D234463946204600F0C6FF00D23C4630
:10465000214E2046314600F0F7FF3146FCF70CFAB8
:10466000FCF7BAFA82B21D494878002814D0C888ED
:10467000401C80B2C880012821D3CD804D7000211C
:104680000520FFF7D1F8F8BD1448C580457000211A
:104690000520FFF7C9F8F8BDC888401C80B2C88063
:1046A000904207D3CD800120487001210520FFF7FB
:1046B000BBF8F8BD00210520FFF7B6F8F8BD0121D1
:1046C0000520FFF7B1F8F8BDBC0300200000484307
:1046D00000007A4500806D450000C842B801002006
:1046E00010B5FFF7EBFD05480549806C884204DDF5
:1046F00004480621C171FCF71BFC10BD3C030020DF
:10470000000096423C04002070B5052020210007DF
:10471000FEF7D4FB134D144C002814D00120FDF7F4
:104720005BF8E86080B2FDF791FEFCF77BF90022B0
:104730002346FCF753F8E2020C4BFCF74FF8FBF76B
:1047400037FEE86670BD0020E860FDF77FFEFCF7ED
:1047500069F900222346FCF741F8FBF729FEE866D9
:1047600070BD00003C03002000003840CCCCEC3F82
:10477000FEB5404DE868FCF773FA29468039096FA9
:10478000019100F055FF4000400800903A4FFE694B
:10479000761CFE612C46A034A079002808D0286E33
:1047A000FCF71AFA296F884202D20A20B86101E0A8
:1047B0000120B8617969B869721A824215D3081864
:1047C00078612C488030017900290ED1C17900260A
:1047D0000B00FFF7C3FA08290A050A11230A0B0A7E
:1047E00001210020FFF770F8A671FEBD0121032012
:1047F000FFF76AF8A671FEBD1E4D0198803DFCF7DB
:10480000EBF93969884207D280B20121FFF7B0F88D
:10481000286FFCF7E1F93861A671FEBD0121102077
:10482000FFF752F8A671FEBDA96A002907D00069FA
:10483000FCF7D2F980B20121FFF79AF806E001985F
:10484000FCF7CAF980B20121FFF792F87F210098A6
:10485000C905884209DAA079002804D1002211464E
:104860001020FDF7BFF80120A071FF20C330386190
:10487000FEBD0000BC030020B801002010B50121DE
:104880000020FEF7D1FF01210846FEF7CDFF0121F0
:104890000220FEF7C9FF134CA069002812D0E0697E
:1048A000012804D0022806D003280BD107E0FF20FE
:1048B0002D30E06006E0FF205F30E06002E0FF2086
:1048C0009130E0600748012180304171E06880B29A
:1048D000FFF75AF8A06A002803D101210620FEF74D
:1048E000A3FF10BDBC030020884203D3904201D334
:1048F00000207047814203D3914201D301207047C9
:104900000220704710B500210846FEF78DFF0021F8
:104910000120FEF789FF00210220FEF785FF264CCB
:104920000520205680B2FFF74FF805202056803C26
:104930000300FFF713FA070E050F19232D370E009A
:1049400000210620FEF770FF60690121C0B2FEF76A
:10495000AFFF10BD00210620FEF766FFA069012110
:10496000C0B2FEF7A5FF10BD01210620FEF75CFFD7
:104970002069012100B2FEF7E3FF10BD00210620EF
:10498000FEF752FF206A0121C0B2FEF791FF10BD71
:1049900000210620FEF748FF606A012100B2FEF701
:1049A000CFFF10BD00210620FEF73EFFA06A0121C7
:1049B000C0B2FEF77DFF10BD3C040020F3B581B00E
:1049C00005462846029900F0C5F82846029900F0ED
:1049D0008DF80746364CA06E002867D02846FCF7B5
:1049E0003FF9029900F030FE06463946E06B00F0D0
:1049F0002BFD314600F098FDA0643146206C00F09C
:104A000093FD216D00F090FDE16C00F01DFD074667
:104A1000E0643046E16D00F017FE616C00F084FD4B
:104A20006065E6653846A16D00F0D6FD01D2A06D47
:104A3000E064204EE06C0027B04200D3E764E16CF4
:104A4000A06C00F001FD616D00F0FEFC01462066E7
:104A50001748A030C079732804D0D22805D0F52893
:104A600008D105E01448606604E01448606601E07F
:104A700013486066B14200D32766616E206E00F075
:104A8000ABFD01D2606E2066606F281AFCF7E8F873
:104A9000029900F0A1FD03D2962D01D9606E206627
:104AA000206EFCF799F880B2FDF772FBFEBD0000A6
:104AB000BC030020000080800000AF4400A00C4533
:104AC00000401C460748C1798038002907D00021E2
:104AD00081660166C16401650348816370470121F5
:104AE000816670473C0400200004004010B50C466D
:104AF000FCF7B6F8214600F0A7FD00210122D205FF
:104B000090420BDB064C214600F09EFD0549C96B27
:104B100000F00AFD2146FBF7AFFF0146084610BD35
:104B200000002041BC03002010B50848C0790528CA
:104B30000BD0FFF7F1FB05488038C1680069081801
:104B4000034980B20968FFF739FF10BD3C0400201B
:104B50003C03002070B506460C463046FCF780F852
:104B6000214600F065FD45006D081848C2790446ED
:104B7000A03C732A04D0D22A05D0F52A08D105E03A
:104B8000FDF79CFA04E0FDF799FA01E0FDF7BAFAA7
:104B9000E06FFCF765F8294600F09CFC04D2002089
:104BA000E064206420650DE0A06FFCF759F8294609
:104BB00000F012FD06D2304600F00AF820647F2093
:104BC000C0052065FFF77EFF70BD00005C0400207B
:104BD00010B50C4C642801D8204610BDFF21C3310C
:104BE000884201D3084810BD6438FCF731F8074902
:104BF00000F09AFC0649FBF73FFF214600F024FC39
:104C000010BD0000CDCC4C3D00004040CDCC3C4020
:104C10000000AF43F8B504462046FBF7DCFD164A1A
:104C2000164BFBF7DBFD06460F462046FCF718F84F
:104C3000009000F0D7F9FBF7F5FE114A114BFBF796
:104C4000CDFD04460D46009800F0D1F9FBF7EAFED1
:104C50000D4A0E4BFBF7C2FD22462B46FBF762FDC9
:104C600032463B46FBF75EFD094A0A4BFBF75AFD0D
:104C7000FBF79EFBF8BD0000304CA60A4625EF3F2F
:104C80002A4E5A5DF34F35BFE7A52A8DE517693ED9
:104C90009A99999999D582C0F8B504462046FBF7B0
:104CA0009AFD164A164BFBF799FD06460F4620461D
:104CB000FBF7D6FF009000F095F9FBF7B3FE114A21
:104CC000114BFBF78BFD04460D46009800F08FF961
:104CD000FBF7A8FE0D4A0E4BFBF780FD22462B4644
:104CE000FBF720FD32463B46FBF71CFD094A0A4B09
:104CF000FBF718FDFBF75CFBF8BD0000CB10C7BA53
:104D0000B88DE83F44B97E0BFCF233BF7DAA55D580
:104D10009035733ECDCCCCCCCCCC70C010B5FBF76D
:104D20009FFFFBF77FFE054A054BFBF757FD054A42
:104D3000054BFBF7F7FCFBF73BFB10BD917EFB3A05
:104D400070CEC83FEE7C3F355E1A3A4070B5254DB7
:104D50002968254C2068091A0A2907D30A302060DF
:104D6000FFF7E2FEFFF7D0FAFFF77EF82968A068A8
:104D7000091A322903D33230A060FFF76DFA29688F
:104D80006068091AFA2908D3FA306060FCF7AAFBB8
:104D9000FCF74AFA1548FEF7D1F82968E0680A1AC4
:104DA0007D21C9008A4209D34018E060FFF72EFB3D
:104DB000FFF796FCFCF7B6FBFCF716FA29682069AA
:104DC000091A64290BD364302061FEF7D5FFFCF784
:104DD000DDF9FFF7CDFCFFF70DFCFCF735FFFFF722
:104DE00093FC70BDD4000020F00000206C05002072
:104DF000FFB585B0059844680598806804900598CB
:104E0000008802900298401E8000201803900193B1
:104E100023E006980168039801600698001D06903B
:104E20000398001D0390002000902546049E029FD9
:104E300002CE01CD00F078FB009900F005FB009058
:104E40007F1E002FF4D10799009808600798001D75
:104E50000790241D0198401E019001980028D8D188
:104E6000059841680298401E02E004CC04C1401E2F
:104E70000028FAD109B0F0BD30B5002903D004688C
:104E80000025012209E0002030BD9300C358A34251
:104E900001D91C461546521CD2B28A42F5D36D1C6C
:104EA000E8B230BD10B5094C884201DC208810BD45
:104EB000904201DBA08910BD521A401A06214843D6
:104EC0001146FBF7CEF94000205A10BDFA0200202F
:104ED000FEF744F8FF209130FDF7D6FDFCF708FE01
:104EE000FCF740FEFCF72AFDFCF75CFD12480121AF
:104EF000008AC903C004C00C4018FDF74FF91920FF
:104F0000FDF7C2FDFDF70EF8FCF7FCFCFDF720F9FC
:104F1000FCF7DAFCFCF790FCFDF76EF8FCF7D6FE28
:104F2000FCF75AFBFDF748F8002211461020FCF769
:104F300059FDFFF70BFFFCE7000FFF1FF0B585B031
:104F4000144D154C2A78910060500521501CFBF738
:104F50007EF9297000206E46810062587250401C14
:104F60000528F9DB002100200422571A09E0421C21
:104F7000850092007459B3589C4201D97351B450C2
:104F8000401C8742F3DC491C0429ECDB029805B085
:104F9000F0BD000014010020B005002010B500286D
:104FA00002D000F009F810BD0520002240210007C2
:104FB000FDF78BFF10BD000010B500280BD0014697
:104FC0000548FBF744F9401E0449C862400848639D
:104FD000496B0348C16110BD00093D000044014018
:104FE0003C04002010B5014600F09EFA10BD10B53B
:104FF00004462146204600F097FA214600F094FA34
:1050000010BD000070B50A4CE08B401C80B2E083FC
:10501000012801D100F032F8E08B322806D3054890
:10502000002545700020FFF7B9FFE58370BD000043
:10503000D80100205C04002070B50A4C208C401C74
:1050400080B22084012801D100F010F8208C0528BE
:1050500006D30548002545700020FFF79FFF2584F3
:1050600070BD0000D80100205C04002010B50520B0
:10507000012240210007FDF728FF10BD10B50520D3
:10508000012240210007FDF720FF10BDF8B5154CA7
:10509000FF262178204600259136808C01270029A3
:1050A00008D0401D80B2A0847D21C900884207D36A
:1050B000257005E0401F80B2A084B04200D8277060
:1050C000A08CFFF76BFF608C401C80B26084C82806
:1050D00007D30020FFF762FF6584A684277002488B
:1050E0004570F8BDD80100205C04002070B5174C55
:1050F00000252089002814D1E088022806D3E58005
:10510000134845700020FFF749FF70BD0F4940006C
:105110002A31085AFFF742FFE088022801D2401CDA
:10512000E0802089401C81B2218109481722203863
:10513000C06900F04BF92089172802D10020FFF741
:105140002DFF20891928E0D3258170BDD8010020CA
:105150005C04002070B5174C0025A089002814D1EC
:105160006089062806D36581134845700020FFF743
:1051700015FF70BD0F494000F631085AFFF70EFFCA
:105180006089062801D2401C6081A089401C81B240
:10519000A181094817222038C06900F017F9A089B9
:1051A000172802D10020FFF7F9FEA0891928E0D3C3
:1051B000A58170BDD80100205C04002070B5174C9B
:1051C0000025A088002814D16088032806D36580B4
:1051D000134845700020FFF7E1FE70BD0F49400005
:1051E0002E31085AFFF7DAFE6088032801D2401CEE
:1051F0006080A088401C81B2A18009481722203815
:10520000C06900F0E3F8A088172802D10020FFF75A
:10521000C5FEA0881928E0D3A58070BDD801002064
:105220005C04002070B5174C0025208A002814D19A
:10523000E089032806D3E581134845700020FFF775
:10524000ADFE70BD0F4940003431085AFFF7A6FE8D
:10525000E089032801D2401CE081208A401C81B2F1
:105260002182094817222038C06900F0AFF8208A4F
:10527000172802D10020FFF791FE208A1928E0D3D9
:10528000258270BDD80100205C04002070B5174C49
:105290000025208B002813D1E08A092806D3E58257
:1052A000134845700020FFF779FE70BD114940009A
:1052B000085AFFF773FEE08A092801D2401CE082F9
:1052C000208B401C81B22183094817222038C069F5
:1052D00000F07CF8208B172802D10020FFF75EFE3B
:1052E000208B1928E1D3258370BD0000D801002050
:1052F0005C040020DA02002070B5174C0025A08A5B
:10530000002814D1608A032806D3658213484570AB
:105310000020FFF743FE70BD0F4940003A31085AA4
:10532000FFF73CFE608A032801D2401C6082A08AFD
:10533000401C81B2A182094817222038C06900F0C0
:1053400045F8A08A172802D10020FFF727FEA08A7F
:105350001928E0D3A58270BDD80100205C0400208C
:1053600070B5174C0025A08B002813D1608B07283F
:1053700006D36583134845700020FFF70FFE70BD0C
:1053800011494000085AFFF709FE608B072801D237
:10539000401C6083A08B401C81B2A1830948172266
:1053A0002038C06900F012F8A08B172802D1002025
:1053B000FFF7F4FDA08B1928E1D3A58370BD000091
:1053C000D80100205C040020EC02002010B50B4640
:1053D0001146002805D0CA1A5043FAF738FF014990
:1053E000486310BD0044014000B516490300FEF7B4
:1053F000B5FC110C0A0D10131F22250C0C0C0C0C03
:105400000C1C16190C000120487000BD02204870C9
:1054100000BD0320487000BD0420487000BD0F206F
:10542000487000BD1020487000BD0E20487000BDBF
:105430000520487000BD0620487000BD0720487058
:1054400000BD00005C04002070B501250400ED07DC
:105450004C4020D4441A01D2001B0919C60D4B0040
:10546000F2B2FF2A29D01B0E2CD000020C02D31A54
:105470002C43DC402843051910D2280A02D3401CD3
:105480006D0611D0761EF6058019FF2A00DA70BD70
:10549000C00DC00570BD694000F0DCF80120054377
:1054A000C541521C761CE8E764089C40C901614074
:1054B0008900E7D10124A043E4E71B0E440200D099
:1054C000034870BD002AFCD1C00FC00770BD00BFEB
:1054D0000000C07F01230200DB050A430DD4DA423D
:1054E00003D49A4207D488427047D84214D4D94290
:1054F00012D48842704780427047DA4203D59A42FC
:10550000F9D5814270475B004200DA4204D24A007A
:10551000DA4201D28142704710B5024AFBF7C6FB5E
:1055200010BD00BF0900160470B5420064414B0075
:105530005C41120E39D01B0E38D0FF2A3CD0FF2B15
:105540003AD040024902400A490A060045184E4333
:10555000000A090AD2184843ED017F3A0104731A80
:105560004019190C4318990F04D001215B08490711
:105570005B1A521CD80904D3401CF50301D19D06C7
:1055800007D0FF2A08D2D50506D0E40720434019EA
:1055900070BD0125A843F4E7002A01DCE00770BDD7
:1055A0002402FF202043C00570BD1B0EFF2A03D03C
:1055B000FF2B01D0E00770BDFF2645003606B5423F
:1055C00006D84D00B54203D8D218FF2A00D0E7E72D
:1055D000004870BD0000C07F01230A00DB050243C4
:1055E0000DD4DA4203D49A4207D481427047D9429B
:1055F00014D4D84212D48142704789427047DA42AB
:1056000003D59A42F9D5884270475B004A00DA42D6
:1056100004D24200DA4201D28842704748404140F9
:1056200010B5024A4840FBF741FB10BD09001604C3
:1056300070B50125ED07684004004C4002D5694073
:1056400000F008F8FFF706FF70B501250400ED072C
:105650004C4022D4441A02D26C40001B0919C60DDA
:105660004B00F2B2FF2A4BD01B0E50D000020C02AE
:10567000D31A2C43DC40A843051B05D5AD0019D334
:105680006D08761E521E37D0F605280A01D2801901
:1056900070BD70416D0603D070BD6940FFF7DAFE42
:1056A0009C4009026140490001D0401E70BD0124A8
:1056B000A04370BD6D081DD001202B0C01D12D041D
:1056C00010302B0E01D12D0208302B0F01D12D01EE
:1056D000001DAB0F01D1AD00801CEB0F01D16D009F
:1056E000401C6D00361A121A680AF5054019012A85
:1056F00002DB70BD002070BDC036300AC00770BD2F
:105700001B0E440201D1FF2B00D1024870BD002ABC
:10571000F0D070BD0000C07F1C0FFF1F300FFF1FB7
:10572000440FFF1F580FFF1F6C0FFF1F1C0FFF1FA1
:105730001C0FFF1F1C0FFF1F00093D0000127A0005
:105740000024F4004086510100366E010000000084
:105750000000000000000000000000000000000049
:105760000000000000000000000000000100000038
:10577000020000000300000004000000060000001A
:1057800007000000080000000900000000093D00BB
:1057900000127A000024F4004086510100366E01A8
:1057A00000093D0000093D0000093D00818283841D
:1057B00085868788898B8C8D8E8F9192939596970D
:1057C000999A9C9D9FA0A2A3A5A7A8AAACAEB0B28F
:1057D000B3B5B7B9BCBEC0C2C5C7C9CCCED1D4D78A
:1057E000D9DCDFE2E6E9ECF0F3F7FAFE0C5800084A
:1057F0000000002068040000120E00081459000880
:1058000068040020300600000401000801CC3204C6
:10581000D2010011183F065B4F666D7D077F6F77E1
:105820007C395E7971CB803E04812BC0415413904A
:10583000051C20040104315AA00C593802103F58AD
:105840000C9A99193ECDCC4C3E9A9999085A195008
:10585000492C1914223D9B48437C69442A40B109D4
:1058600010181A80182904012E0223013A902518D5
:10587000092C09270527052C090A400C082C094C7E
:105880000A4C0A2C092C082FBF0D6E0F5910046505
:1058900099146E0F2920880BBF0D3F0CBF0D5910B6
:1058A0003F0C143AE9048559104C0A2B5910021C7C
:1058B0006E0FE9186B6E0F40091456091458299C95
:1058C0004956292E88095A125A1299145910602DD6
:1058D0006E0FBF0D4E2936A119C019C8494449D2CF
:1058E0002BE90A222984296229AA29E2C91C6123F9
:1058F000C84233E14322411AA004791022401A80A1
:10590000047104B5366E0112F012081AF8041AFF79
:0459100004016F001F
:04000005080000C12E
:00000001FF
